S00E0000656D7074795F322E73333726
S11300000010002069050000670500006705000076
S1130010670500006705000067050000670500002C
S1130020670500006705000067050000670500001C
S1130030670500006705000067050000670500000C
S113004067050000670500006705000067050000FC
S113005067050000670500006705000067050000EC
S113006067050000670500006705000067050000DC
S1130070670500006705000067050000BD04000077
S1130080C90400006705000067050000670500005B
S113009067050000670500006705000067050000AC
S11300A0670500006705000067050000670500009C
S11300B0670500006705000067050000670500008C
S11300C0670500006705000067050000670500007C
S11300D0670500006705000067050000670500006C
S11300E0670500006705000067050000670500005C
S11300F0670500006705000067050000670500004C
S1130100670500006705000067050000670500003B
S1130110670500006705000067050000670500002B
S1130120670500006705000067050000670500001B
S1130130670500006705000067050000670500000B
S113014010B5054C237833B9044B13B1044800E0CF
S113015000BF0123237010BD8810002000000000A0
S11301603447000008B5034B1BB10349034800E0C2
S113017000BF08BD000000008C10002034470000C0
S1130180A3F5803A704700BF174B002B08BF134BF1
S11301909D46FFF7F5FF00218B460F461348144A8E
S11301A0121A03F027F80E4B002B00D098470D4B82
S11301B0002B00D098470020002104000D000D48BA
S11301C0002802D00C4800E000BF02F0EFFF20003E
S11301D0290000F0A5F802F0D5FF00BF00000800D8
S11301E00000000000000000001000208810002023
S11301F04C11002000000000000000007047704710
S11302007FB5084A084B01A8CDE901230023074A1A
S11302108DF81430CDE9033200F038FA07B05DF8F8
S113022004FB00BF0080064003030302A086010014
S11302307FB50123074A01A9019207480DF1030282
S11302408DF803300292ADF80C3000F0DFFA07B0FD
S11302505DF804FB46000100008006407FB51023D2
S11302608DF80330074B01A901930DF103030293A9
S113027001230548ADF80C3000F0C8FA07B05DF86A
S113028004FB00BF460001000080064030B51E4B51
S113029087B0019302231D4801A9CDF808D0ADF819
S11302A00C3001F0DDFD0446184D012C27D003204D
S11302B000F00CF968B1164D1649286802F077F879
S11302C000F024F900F023F922461349286802F0CB
S11302D06EF801A90D4800F099FA9DF801309DF8D7
S11302E0000003EB002002F0B1FC4FF033320B4B63
S11302F002F040FE02F026FF80B207B030BD28466F
S113030001F08CFC0446D0E7460002000080064061
S113031018110020784200007D4200003333F33F7F
S1130320F8B502F003FBFFF769FF01212F2000F06D
S113033055FC01213A2000F051FCFFF761FFFFF763
S113034077FFFFF78BFF0E4D0E4E0F4FFFF757FF52
S1130350FFF79CFF0446032000F0B8F860B1314673
S1130360286802F024F800F0D1F800F0D0F8224612
S11303703946286802F01BF8044B013BFDD1E5E740
S113038018110020784200008F4200007F969800E8
S1130390704708B50321802000F0E4FF03214FF4E7
S11303A0806000F0DFFF03214FF4906000F0DAFF7B
S11303B008214FF4C06000F0D5FF08214FF4F0602D
S11303C000F0D0FF08213E2000F0CCFF08212D20B2
S11303D000F0C8FF002008BD08B5134B1B68C3F329
S11303E00743012B0ED1114B04205A6E4FF4802386
S11303F00F49520358BF0F4A4B6601F5104108627A
S113040058BF536601F070FF00F0A9F801F0F2FE46
S113041001F012FF01F04EFFFFF7BBFF01F0FAFEFF
S1130420BDE8084000F092B80080E00F0080004072
S11304300090004000A00040704708B500F084F828
S113044002F006F8BDE8084000F036B8704700F046
S11304505FB8000070B5144C92B00BAD0FCC0FC553
S113046094E80700032385E8070003AE8DF84530C0
S113047007AD04F10C031C340FCB86E80F0094E89D
S11304800F0085E80F00094B2946009308483346BE
S11304900BAA02F077F9044618B18721054800F049
S11304A0C0F9204612B070BDD4420000A410002050
S11304B000110020A4420000FFF7CCBF014B1868D4
S11304C002F01CBA00110020FFF7F8BF0B4B0246E4
S11304D01B788BB10A4B1B78834234BF0020012068
S11304E0084B1B783BB1084B1B7843FA02F212F01D
S11304F0010F08BF002070470120F1E70010002021
S1130500011000201C1100200210002070477047C9
S1130510012208B5074B1A700022074B1A700422F7
S1130520064B1A701F22064B1A7001F007FF054B89
S1130530186008BD001000201C11002001100020CC
S113054002100020181100200F20704708B5012167
S11305503A2000F043FBBDE80840FFF719BF012132
S11305603A2000F03BBBFEE708B500F013F8064B59
S1130570064A07498B4201D3FFF706FE52F8040BE3
S113058043F8040BF6E700BF001000203C470000CE
S113059088100020044B054A9A60D3F8882042F45E
S11305A07002C3F88820704700ED00E000000000EE
S11305B0014B1868704700BF08100020084B1B6FE0
S11305C003F00703022B04D0032B05D0012B05D025
S11305D0FEE7044B18687047034BFBE7034870477A
S11305E000800040081000200C100020002D310174
S11305F008B5FFF7E3FF054B1B6FC3F30333013368
S1130600B0FBF3F0024B186008BD00BF008000404F
S1130610041000200048704700B4C404014B18685B
S1130620704700BF0C100020054B1860054B1B6F72
S113063003F00703032B01D1FFF7DABF704700BFB4
S11306400C100020008000400020704700487047D4
S1130650002D31014FF4004070474FF47A70704719
S1130660014B1868704700BF1010002005490A6844
S11306701318054883428CBF4FF0FF320B601046BD
S1130680704700BF14100020008000202DE9FF47B0
S1130690044618B93121584800F0C3F82368574A72
S11306A093420AD0564A934200F08380472152482D
S11306B004B0BDE8F04700F0B4B82E20012100F0EA
S11306C08DFA01230A226179207901F091F901233D
S11306D00A22E179A07901F08BF909274FF001088A
S11306E0DFF82491474D267994F805A0002E62D0B6
S11306F0012E63D0022E63D0032E04D10C2323FADF
S11307000AF3DA0704D44FF47F71484600F089F8FD
S1130710302202FB065642F2100208FA0AF3B350E2
S1130720642002F011F9267994F805A0002E49D02E
S1130730012E4AD0022E4AD0032E04D10C2323FAD0
S11307400AF3DB0704D440F22B41484600F069F871
S1130750302202FB065641F2100208FA0AF3642022
S1130760B35002F0F1F8013FBDD12068234B984209
S11307702FD10323C5F890346279237943EA0243E5
S1130780C5F89434E279A37943EA0243C5F898346E
S113079040F20113ADF80030E36869460293A368A0
S11307A00193237C8DF80C3001F004FA04B0BDE809
S11307B0F0872F2082E740F2FF13A0E71F239EE774
S11307C0FF239CE740F2FF13B9E71F23B7E7FF239A
S11307D0B5E70B4B9842DBD10323C5F8A03462790B
S11307E0237943EA0243C5F8A434E279A37943EABE
S11307F00243C5F8A834CBE7104300000000014AC7
S11308000080064000C003406643000010B5044663
S113081001F026FB012800D010BD204601F0FEF9AE
S1130820F8E7FEE74FF04023D3F88420D206FBD448
S1130830D3F88400C0F381107047000038B5124B20
S11308400546D3F820310C4603F00303022B0BD0EA
S1130850032B0DD0012B0FD1FFF7AAFE052305B101
S1130860286004B1237038BDFFF7D8FE0323F6E7F0
S1130870FFF7ECFE0223F2E7044840F6BE71FFF7EF
S1130880D0FF00231846EAE700800040B24300008E
S1130890F7B50024114B0194D3F88051074605F0B5
S11308A00305012D0E4607D0022D11D041F2E201BD
S11308B00B48FFF7B6FF04E0214601A8FFF7BEFF8F
S11308C00F240FB1019B3B6006B1347003B0F0BD3F
S11308D0FFF7BCFE2C460190F3E700BF0080004008
S11308E0B243000038B5194B0546D3F824310C4601
S11308F003F00703013B052B20D8DFE803F0030FC7
S1130900171B0B13FFF754FE052305B1286004B130
S1130910237038BDFFF74CFE0623F6E7FFF77EFE93
S11309200323F2E7FFF77AFE0423EEE7FFF78EFED8
S11309300223EAE7FFF788FE0723E6E7044840F6C8
S11309404651FFF76EFF00231846DEE700800040A3
S1130950B243000038B5124B0546D3F840310C467B
S113096003F00303022B0BD0032B0DD0012B0FD16B
S1130970FFF770FE092305B1286004B1237038BD68
S1130980FFF76EFE0823F6E7FFF767FE0B23F2E797
S1130990044840F6EC71FFF744FF00231846EAE7E9
S11309A000800040B243000038B5154B0546D3F82B
S11309B000320C4603F00703013B032B18D8DFE891
S11309C003F0020A0E12FFF745FE092305B1286061
S11309D004B1237038BDFFF743FE0823F6E7FFF7A1
S11309E03CFE0B23F2E7FFF703FE0E23800AEDE73C
S11309F0044841F29811FFF714FF00231846E5E775
S1130A0000800040B243000038B5124B0546D3F8CD
S1130A1040320C4603F00303022B0BD0032B0DD002
S1130A20012B0FD1FFF716FE092305B1286004B18D
S1130A30237038BDFFF714FE0823F6E7FFF70DFE19
S1130A400B23F2E7044841F22B11FFF7EAFE0023DF
S1130A501846EAE700800040B243000038B5124B64
S1130A600546D3F860310C4603F00303022B0BD088
S1130A70032B0DD0012B0FD1FFF7ECFD092305B19A
S1130A80286004B1237038BDFFF7EAFD0823F6E7B8
S1130A90FFF7E3FD0B23F2E7044841F21A01FFF7E5
S1130AA0C0FE00231846EAE700800040B24300007D
S1130AB010B40F4C0B46D4F8204204F00304012C6C
S1130AC00ED0022C10D008B1002101600BB100221D
S1130AD01A704FF4576107485DF8044BFFF7A1BE45
S1130AE05DF8044BFFF7AABE5DF8044BFFF732BF75
S1130AF000800040B2430000B0F5207F10B534D030
S1130B0009D8B0F5007F2AD003D898B1B0F5C07FDA
S1130B1010D0002421E0B0F5607FFAD1154BD3F852
S1130B208030C3F301149B0617D5032C15D04FF462
S1130B301D710FE00F4B1C6F230B13F00E0FC4F34A
S1130B4003340AD0032C08D0072C06D00F2C04D071
S1130B504FF419710848FFF764FE601C10BD054B83
S1130B60D3F89040C4F30464F7E7024B1C6FC4F35A
S1130B708024F2E700800040B24300004FF40032CA
S1130B800F4B70B59A66064600200D46FFF7B4FF7A
S1130B9041F671320B4B7043DC690B49DA639A6896
S1130BA0884204F4803422F4401203D9012D18BF82
S1130BB042F480129A600CB10022DA6370BD00BF67
S1130BC00090004000000340005A620208B5FFF79D
S1130BD021FDBDE808400021FFF7D0BF70B54609EC
S1130BE004460D460FD140F205310D48FFF719FEBA
S1130BF0334604F01F0485B103F58053012000FA45
S1130C0004F41C6070BD012E05D0064B064A022E6A
S1130C1018BF1346EDE7054BEBE703F50053EDE78B
S1130C20B24300006880004060820040648000405D
S1130C30002330B5802885B00446029375D02BD8A4
S1130C40002878D0A0F12004A3B2412B32D8412C43
S1130C5030D8DFE804F07073707386868686737309
S1130C60903FA7653F7373732F2F2F2F2F2F8B5711
S1130C70737373B1AC732F2F2F2F2F2F2F2F2F2F71
S1130C802F2F2F702F707070862F2F2F2F2F2F2F15
S1130C902F2F2F2F2F2F7070B0F5806F61D024D895
S1130CA0B0F5007F54D00BD8B0F5807F68D0B0F594
S1130CB0C07F40D040F25A414248FFF7B2FD37E0CE
S1130CC0B0F5607F44D0F5D8B0F5207F36D0B0F5CC
S1130CD0407FEFD1FFF78CFC04464FF42070FFF700
S1130CE00BFFB4FBF0F0400821E0B0F5C06F59D021
S1130CF00DD8B0F5A06F39D0B0F5B06F3BD0B0F5DA
S1130D00906FD7D1002102A8FFF7ECFD10E0B0F5F9
S1130D10E06F4CD0B0F5F06F4ED0B0F5D06FC9D1C4
S1130D20002102A8FFF740FE02E0FFF747FC029013
S1130D30029805B030BDFFF75BFCF8E7FFF758FCFD
S1130D4004464FF42070FFF7D7FEB4FBF0F0EEE753
S1130D50FFF734FC05462046FFF7CEFEB5FBF0F066
S1130D60E5E7002102A8FFF769FDE1E7002102A8F9
S1130D70FFF79EFEDCE7002102A8FFF789FDD7E715
S1130D8003934FF0E0231B695B0705D5FFF730FCA5
S1130D900390039B0293CBE70DF1070103A8FFF730
S1130DA0D9FDF6E7002102A8FFF7D4FDC0E7002132
S1130DB002A8FFF729FEBBE7002102A8FFF74EFEB9
S1130DC0B6E700BFB243000008B58020FFF730FF4C
S1130DD0034B98429EBF4FF48032024B1A6708BD02
S1130DE0005A620200A00040002307B5B0F5807FDE
S1130DF08DF8023000F0888028D8382800F0A880C8
S1130E000CD8243883B2092B10D809280ED8DFE86F
S1130E1000F0757575750D0D6B0D378F52286DD0FB
S1130E2007D83D283CD03E2800F0988040F2365147
S1130E3056E08028FAD14C4B1B6F03F00703013BAB
S1130E40032B4BD8DFE803F048444280B0F5D06F61
S1130E506ED01BD8B0F5A06F7AD00BD8B0F5806FE8
S1130E604CD0B0F5906FE1D100200DF10201FFF7F5
S1130E7039FD3EE0B0F5B06F36D0B0F5C06FD5D1D6
S1130E8000200DF10201FFF765FD32E0B0F5006FBF
S1130E90EAD00BD8B0F5E06F60D0B0F5F06FC5D1F3
S1130EA000200DF10201FFF7D9FD22E0B0F5086F33
S1130EB0BCD12D4BD3F8003103F00303022B3DD0FA
S1130EC0032B3FD0012B41D1FFF7A8FB032300E004
S1130ED005238DF802300CE00223FAE740F28C413E
S1130EE02248FFF79EFC04E000200DF10201FFF709
S1130EF0CFFC9DF8020003B05DF804FB00200DF167
S1130F000201FFF79BFCF4E701934FF0E0231B6918
S1130F105B0707D5FFF76CFB0C238DF803309DF8B6
S1130F200330D6E70DF1030101A8FFF713FDF6E73F
S1130F3000200DF10201FFF737FDDAE7FFF790FB20
S1130F400823C6E7FFF780FB0723C2E70123C0E7B6
S1130F5000200DF10201FFF7ABFDCAE700200DF1FF
S1130F600201FFF751FDC4E700800040B2430000D6
S1130F7070B5037804460F2B04D940F621216B4841
S1130F80FFF74FFC63780F2B04D940F62421674800
S1130F90FFF747FCA3780F2B04D940F627216348B9
S1130FA0FFF73FFCE3780F2B04D940F62A215F4872
S1130FB0FFF737FC23790F2B04D940F62D215B482A
S1130FC0FFF72FFC63793F2B04D94FF42361574873
S1130FD0FFF727FCA3793F2B04D940F6332153486C
S1130FE0FFF71FFCE379032B04D940F636214F4861
S1130FF0FFF717FC237A032B04D940F639214B4819
S1131000FFF70FFC637B012B04D940F63C214748D2
S1131010FFF707FC8020FFF7E7FE03287CD04FF49E
S11310200022434B43495A6645F60E030222C1F897
S11310308030414B9A62012203F580539A628A6D93
S113104012F48032FBD1637820781B0543EA0063F5
S1131050A079257C0343E078667C43EA0043207949
S113106043EA0033607943EA80130B618B69E07AC9
S113107003F000430343E07943EA8063207A43EAC0
S11310800063607A43EA0043A07A43EA00238B6159
S1131090637B096A002B18BF0822207B21F00D0115
S11310A043EA010343EA800342EA0302214B1A6242
S11310B0A27B4FEA421230D1986AE17B20F03300E0
S11310C042EA0112024342F001029A621B4A996DFC
S11310D032EA0101FBD1022217498A621A659A6D2C
S11310E05200FCD41869A27820F4700040EA02503F
S11310F04FF000421861104B9A611DB9022203F5AA
S113110080539A6216B901220D4B9A62A37C1BB1DB
S1131110084B0C4AC3F8802070BD996A21F0330152
S113112031430A4342EA4502EFE700BFB2430000FD
S11311300090004000C0004000D000400300014087
S113114000E00040F1A7FFFF014B93F90000704756
S11311501D11002010B583780446072B04D940F6EE
S11311609F312A48FFF75DFBE378032B04D940F64F
S1131170A1312648FFF755FB2378032B04D940F609
S1131180A3312248FFF74DFB94F90130002B04DA18
S113119040F6A5311D48FFF744FB4FF480011C4A7B
S11311A0637851664FF4D151022002F5B83251628E
S11311B018494F2B48604FF0010028BF4F2301F519
S11311C0805148601169C903FCD4217843EA0123A2
S11311D05361E378A1781B0143EA012361790B434E
S11311E0217943EA41039360E379A1791B0143EA3E
S11311F04113617A0B43217A43EA41035360A37A92
S113120013B16FF4D153536210BD00BFB243000059
S11312100090004000100240014B1880704700BF4E
S1131220181000200029CCBF01210021FFF7A6BC23
S1131230B0F5207F10B565D00ED8B0F5007F4FD043
S113124003D800B3B0F5C07F1DD04FF43A71BDE8A8
S113125010403448FFF7E5BAB0F5607FF5D14C1E75
S1131260012C06D9042904D040F2CD212D48FFF7E2
S1131270D8FA2D4AD2F8803023F0300343EA04131D
S1131280C2F8803010BD102901F1FF3404D8274B77
S113129023FA01F1CB0704D440F2A3212148FFF73C
S11312A0C0FAFFF793FC00F045F84FF48031204B6F
S11312B01D4A1967136F23F4704343EA0433136719
S11312C0FFF796F90446FFF7ADFAC0F10201204694
S11312D0FFF7A8FF00F034F8BDE81040FFF774BD35
S11312E04C1E1F2C04D94FF437710E48FFF799FA9E
S11312F00D4BD3F8901021F0F85141EA0461C3F882
S11313009010BFE74C1E012C04D940F2E22105489D
S1131310FFF787FA044B196F21F4806141EA8421B5
S11313201967AFE7B24300000080004016010100D6
S11313300090004002214FF42070FFF779BF0000B5
S113134008B54FF4C070FFF773FCBDE808400449CA
S113135088428CBF022101214FF42070FFF768BF3F
S113136080F0FA02B0F5807F70B50C4600F00C8175
S11313702CD8382800F0A48111D8243883B2092B42
S113138016D8092814D8DFE810F0E400E400E400DB
S1131390E40013001300CF00130049005301522846
S11313A000F0D78007D83D2853D03E2800F09F8115
S11313B040F6250122E18028FAD18B1E052B00F28C
S11313C0A880DFE803F0A394A6AEA667B0F5D06FBB
S11313D000F02E8132D8B0F5A06F00F0718116D8DC
S11313E0B0F5806F00F0B580B0F5906FE0D1023CAD
S11313F0E4B2052C00F21581A84B195DA84AD2F875
S1131400243123F007030B43C2F824316EE0B0F516
S1131410B06F00F08980B0F5C06FC9D1083CE4B268
S1131420032C00F2F0809F4B195D9D4AD2F84031A5
S113143023F003030B43C2F8403157E0B0F5006FCB
S1131440D5D016D8B0F5E06F00F05181B0F5F06F4B
S1131450AED1083CE4B2032C00F2DC80924B195D5F
S11314608F4AD2F8603123F003030B43C2F8603192
S11314703CE0B0F5086F9BD14C1E072C00F20481B0
S1131480DFE814F00701020109010201020102016F
S11314900001F600002504260121022000F05EF977
S11314A0FFF794FBFFF746FF4FF480317F4B7C4AF4
S11314B01967136F23F0070333431367FFF798F893
S11314C00646FFF7AFF9C0F102013046FFF7AAFE66
S11314D00121002000F09AF9FFF732FFFFF774FCB6
S11314E025B9032C02D10122714B9A6270BD4FF4CD
S11314F000226E4B03265A66012203F540539D6A6F
S113150003F58053C5F340059A62C5E7002501261B
S1131510C2E7002540F277516648FFF782F92E466C
S1131520BAE700250226B7E7022C07D00F2C0ED00D
S113153040F2BC515F48FFF774F90024584AD2F8CE
S1131540803123F003031C43C2F88041CEE7012419
S1131550F4E7032C12D0052C12D0022C12D040F246
S1131560F3515448FFF75DF900224D49D1F8203179
S113157023F003031343C1F82031B7E70222F4E751
S11315800122F2E70322F0E7A1F10804082C33D882
S1131590DFE804F0050532051C32323205004FF451
S11315A080323F4B4449586E03F580535A660B6AA8
S11315B043F001030B62C1035CBF404B5A664FF01A
S11315C0E022136923F0040313618FE74FF48032A0
S11315D0334B3949586E03F580535A660B6A23F02E
S11315E001030B62C3035CBF344B5A664FF0E02225
S11315F0136943F00403E7E740F21B61BDE8704060
S11316002C48FFF70EB940F237612A48FFF709F971
S113161000210AE740F252612648FFF702F900214F
S11316201EE740F277612348FFF7FBF80021E5E667
S1131630083C062C13D8DFE804F00419190E121222
S1131640100002221649D1F8003223F00703134395
S1131650C1F800324AE70322F4E70422F2E740F239
S113166097611448FFF7DDF80022EBE70122E9E770
S113167002220B49D1F8003123F003031343C1F8CC
S1131680003133E70322F4E740F2D3610948FFF75E
S1131690C8F80022EDE70122EBE700BF0144000097
S11316A000800040FD430000FD4300000090004026
S11316B000E00040B243000000C0074000A000402A
S11316C00F2C10D0102C10D040F219711348FFF7D2
S11316D0A8F800221249D1F8203223F0030313435F
S11316E0C1F8203202E70122F4E70222F2E7083CC3
S11316F0E4B2032C0AD80B4B195D094AD2F84032E4
S113170023F003030B43C2F84032EFE640F2737157
S11317100248FFF786F80021EFE700BFB24300005C
S113172000800040FD430000EFF3108072B6704764
S113173000B962B67047EFF31180302383F3118848
S1131740704780F3118870474FF04022D36E0179BF
S113175023F030030B43D366704770472DE9F04103
S11317604FF040230446D3F88420D006FBD4D3F8AA
S11317708430C3F381139C423FD0FEF71FFF012C3A
S113178005460BD11E4B984204D940F2F9611D481D
S1131790FFF747F801212846FFF744FDFFF7C4FF90
S11317A04FF00072184B07465A662046FFF7D5FFE4
S11317B04FF480634FF04026621E9340DFF844806C
S11317C03367736E9A0103D4D6F884309B060AD526
S11317D03846FFF7ADFF022C0FD12846BDE8F04193
S11317E00021FFF71FBDD6F884309906E9D540F2F1
S11317F007714046FFF715F8E3E7BDE8F08100BF45
S1131800005A6202074400000060004007B518B99E
S11318100191FEF7D3FE0199064B1B7843B1064BA9
S1131820984205D8012003B05DF804EBFFF796BF9A
S11318300220F8E71E110020005A62024FF0004215
S113184010B501244AF6CD31144B5A66144A03F5F7
S11318500B2354605A6C1964224078B9996811F0CA
S1131860010F104903D08C60D86AC007FCD501234E
S11318704B6012B10C4B0D4A1A6410BDD96A0907AA
S1131880FCD42021074B59620121A3F580539960B0
S113189005494B6A9B06FCD5EBE700BF009000406E
S11318A00050094000600940004009403254FFFFE5
S11318B04FF0004238B5184B184C5A66012203F514
S11318C00C235A604AF6CD33656C23644378154083
S11318D0934013434FF04022D363A368827823F0EC
S11318E0740343EA0213C278002A14BF04220022BC
S11318F01343A3600279837943EA02232361427983
S1131900C37943EA022363610078FFF797FF0DB1BF
S1131910034B2364012038BD00900040004009407F
S11319203254FFFF38B50D460446D8B101281CD007
S113193002281CD0032803D10C23EB40DB0704D47A
S113194040F22B410B48FEF76CFF3020012141F29D
S11319501003444304F1804401FA05F504F570349E
S1131960E55038BD40F2FF13E7E71F23E5E7FF2307
S1131970E3E700BF6643000038B50D460446D8B11E
S113198001281CD002281CD0032803D10C23EB40CF
S1131990DB0704D44FF47F710B48FEF742FF30207D
S11319A0012142F21003444304F1804401FA05F595
S11319B004F57034E55038BD40F2FF13E7E71F2308
S11319C0E5E7FF23E3E700BF6643000070B5054683
S11319D014460E46FFF7A8FE296881EA040202EACB
S11319E006044C402C60BDE87040FFF7A1BE000027
S11319F0F8B50D4616461F46044658B301282CD0A8
S1131A0002282CD0032803D10C22EA40D30704D4A3
S1131A104FF4B0711B48FEF704FF26B12946204657
S1131A20FFB1FFF77FFF3023072D4FF00F0104FBB9
S1131A3003F319D8A80006FA00F2814012481844AA
S1131A40FFF7C4FFE6B929462046AFB1BDE8F84028
S1131A50FFF768BF40F2FF12D7E71F22D5E7FF2246
S1131A60D3E7FFF789FFDEE7A5F10800800006FA57
S1131A7000F281400548E2E7BDE8F840FFF77CBF8B
S1131A80F8BD00BF5244000004C003400CC0034032
S1131A90F8B506460C4615469ABB40F20F11BDE850
S1131AA0F8402F48FEF7BDBE2E4B9E4201D12F2099
S1131AB03DE040F229112A48FEF7B3FE3AE0032F35
S1131AC042D0294B3CE06FEAC50505442C44B4FBE5
S1131AD0F0F4013C0AD540F275112148FEF7A1FE4D
S1131AE04FF4BB711E48FEF79CFE02E0B4F5007F84
S1131AF0F6D2B3689B0702D5002C08BF0124B46159
S1131B00F8BD03F00307836823F440738360FFF791
S1131B100BFEB26882EA072303F440735340B360B8
S1131B20FFF706FE34B9114B9E42BDD12E20FFF7BC
S1131B307FF80446B3689A07C1D5032F04D00C4B31
S1131B4053F827309C4204D84FF4AF710448FEF791
S1131B5068FE084BD85D6843B5D140F26F119EE72B
S1131B609E44000000800640F84400000000014A42
S1131B70EC4400000445000038B50B4B0446984281
S1131B800D4607D0094B984204D040F28F11084803
S1131B90FEF747FE043425B104F580540123236085
S1131BA038BD04F50054F9E70000014A00800640FE
S1131BB09E44000038B5154B044698420D4607D0A4
S1131BC0134B984204D04FF4D2711248FEF729FE09
S1131BD00023114A236404F50053DA636A7804F19C
S1131BE008037AB903F5805302221A602046D5E926
S1131BF001122B7BFFF74CFF20462978BDE83840C3
S1131C00FFF7BABF03F50053EEE700BF0000014A37
S1131C10008006409E440000FFFF1F002DE9F843AA
S1131C20894B98420BD0894B984226D0884840F281
S1131C30FB11FEF7F6FD6FF00300BDE8F883854B5A
S1131C40402505264FF000084FF0030C996800F575
S1131C500054C26B12F4C06F15D097050FD5FD2246
S1131C605A7009221A700022026493F901100129A2
S1131C7000D15A7093F90100DFE7774BE0E756058E
S1131C80EFD5FE22ECE71F78082F00F2D880DFE8BA
S1131C9017F009001F0041004C0069007400960011
S1131CA09E00CD004C880A88E5060AD5120A02F087
S1131CB0060242F0F002012119704263C160012062
S1131CC0BBE702F0FE02A10748BF42F00102F2E7BF
S1131CD0170607D5802100F50052D1634FF608722C
S1131CE01A8062E05206EAD54A88E563D70604D52D
S1131CF002221A700B784363E1E7920765D5072245
S1131D001A701B7901EBC3010B89012BD7D108236E
S1131D10C360D4E71706DDD45206D0D54A88E563FC
S1131D20970752D583F800C093E74C880A88E506E4
S1131D3043BF120A02F0060242F0F00202F0FE0271
S1131D40640709D51C7942F0010201EBC401098939
S1131D50012904BF0821C160042119700123C36053
S1131D604263ACE71706B5D45706A8D54A88E5639D
S1131D7052072AD507221A70A1E71A795F8801EB66
S1131D80C20EBEF80890B94511D80132D2B21A7108
S1131D904F88A3F8028017F0040FC3D1FF0702D4C1
S1131DA0012A7FF656AF08221A700223B0E7DEF844
S1131DB00420791C5980D25D42630622DBE71706B2
S1131DC088D457067FF57BAFE5631E7041E7940620
S1131DD07FF575AF456A214C46691A793440B4F5EC
S1131DE0003F04BF466A4FF4005601EBC20100F500
S1131DF000540A8908BFE6632026E6635C88A24291
S1131E0081BF4968661C5E800D5559888A42CAD9CB
S1131E100424012AC46004D9013A914201D1082260
S1131E20C2601A78092A3FF41EAF48E7D2057FF54D
S1131E3046AF4FF4807100F50052D16311E74FF6BD
S1131E4009321A800FE700BF0000014A00800640F3
S1131E509E440000201100202C11002020000200CC
S1131E6038B5284B044698420D4644D0264B984238
S1131E703ED040F25E312548FEF7D3FC002D3DD123
S1131E8040F25F312148FEF7CCFC1E4B9C4228D126
S1131E901F4B2269D00744BF2022E2606A88910761
S1131EA001D5298951B3520701D52A8A32B34FF497
S1131EB080721A6000229D601A71C023E360636916
S1131EC0DB0513D4202204F50053DA63114A2046BB
S1131ED0DA63236C43F4FC632364BDE83840FFF702
S1131EE09DBE094B9C4209D10B4BD2E7636AE6E7DE
S1131EF00029F9D1C4E70029CAD1C1E76FF0030072
S1131F0038BD00BF0000014A008006409E44000026
S1131F1020110020FFFF1F002C1100202DE9F041AB
S1131F2080460E461F46154622B94FF4A17131482A
S1131F30FEF777FC26B94FF42070FEF779FE0646CB
S1131F40402F2AD009D8A7B1202F1CD040F28911E4
S1131F50BDE8F0412748FEF764BC602FF6D1B5EB2D
S1131F60960F04D940F283112248FEF75AFC042448
S1131F701DE0B5EB161F04D94FF4BA711D48FEF7E6
S1131F8050FC102413E0B5EBD60F04D940F27911BC
S1131F901848FEF746FC082409E00624B6FBF4F3CF
S1131FA0AB4204D24FF4BF711248FEF73AFC6C43C3
S1131FB0610801EB4616B6FBF4F40F4E203CB6EB79
S1131FC0C40F4FEAC40504D24FF4D0710948FEF798
S1131FD028FCD8F80830354023F06003C8F80830EE
S1131FE0D8F808301F43C8F80870C8F81C50BDE87A
S1131FF0F08100BF08450000F8FF7F0038B50E4BA4
S1132000044698420D4608D003F58043984204D014
S113201040F2BE210948FEF704FC012204F5805376
S11320205A60EB43934003F00A036361656115B999
S113203004F50054626038BD00C005400845000046
S1132040194B10B59842044608D003F580439842D2
S113205004D040F234411548FEF7E3FB012204F5B5
S113206080535A6040F6AA6341F20502636100237B
S11320700F49A360E365E26004F500522361E36164
S1132080E36491640849A3658C4202D00948844200
S113209007D18C42236502D0064B9C4201D1002318
S11320A063650123536010BD00C00540084500006E
S11320B0FFFF010000000640444B70B598420446FF
S11320C00D4608D003F58043984204D040F2EF2136
S11320D03F48FEF7A6FB2046FFF7B2FF012304F5B5
S11320E080567360AB7C1BB1A36843F08043A3604C
S11320F0EB7C5BB1354A2B7D944245D1A2F510327D
S1132100C2F88C31E36D43F08003E3652A8A6B7B6C
S113211020461343EA891343E3602B7BD5E901127C
S1132120FFF7FCFE6B7D1BB1A36843F48033A3600F
S1132130AB7D1BB1A36843F40043A360EB7D2A7E0F
S11321401B07120502F4E00203F0E0431343A36506
S1132150697E1E4A8B1E012B1E4B1FD894421BD036
S113216002F5804294420CBF01224FF0FF3203EB90
S11321704213022041F21C620329985020D1042307
S1132180F3652B78636170BD134A944204BFA2F5D2
S11321902032C2F89C31B5E70022E8E794420DD022
S11321A00D4A94420CBF01224FF0FF3203EB42135D
S11321B0022042F21C6201299850DFE70022F5E771
S11321C0042204F50053DA65DBE700BF00C00540D4
S11321D00845000000C003400000064083691B0658
S11321E0FCD5406AC0B2704783695B06FCD5C16305
S11321F07047000007B56B46054A1068516803C371
S11322006846FFF755FB002003B05DF804FB00BFF0
S1132210554500004FF0402213B50024536F684623
S113222043F00103536700948DF80440FFF78CFAE0
S1132230204602B010BD000070B586B001AA154654
S1132240184B03F11006144618685968083303C480
S1132250B3422246F7D119889B782180A370124B90
S1132260D3F84C21120314D4D3F85041E4B28DF8BE
S11322700E40FEF769FF204480F308008DF80D003E
S11322800A48FEF7D1F92846FEF772FE002006B090
S113229070BD074B1C884FF6FF739C4208BF8C240B
S11322A0E5E700BF5D4500000080E00F00F0490253
S11322B00001E00F1FB50B4A01AB1068516803C35E
S11322C01189927A19809A70192301A88DF8053022
S11322D0FEF740FF6420FEF79FFF002005B05DF885
S11322E004FB00BF704500006FF00402502110B5DC
S11322F00A480B4C12F0800FD3B21BBF03F00F033C
S1132300043BA3181B1802F101020CBF83F800134D
S11323101976402AEED1002010BD00BF00ED00E088
S113232000E100E010B50446FFF7FEF9024B1C6023
S1132330FFF7FEF9002010BD3811002010B5FFF79B
S1132340F3F9034B1C68FFF7F3F9204610BD00BFF7
S11323503811002007B530B9CDE90012FFF7EEFFC0
S1132360DDE9001230B1436823B1006803B05DF8C1
S113237004EB1847232003B05DF804FB30B51C467A
S113238085B058B9CDE90012FFF7D8FFDDE9001296
S113239004B903AC20B9232005B030BD03B903ACA4
S11323A08568002DF7D023460068A847F4E70EB4EB
S11323B077B507AB53F8046B05460193B0B9FFF743
S11323C0BDFF044605463046019900F0DFFFAC42EC
S11323D0064602D02046FFF7A5FF002ED4BF3720C3
S11323E0002003B0BDE8704003B07047FFF7A6FFBC
S11323F085420446E7D02846FFF794FFE3E7002030
S11324007047FEE74FF4005300204B6070470120F3
S113241070470020704707B5002001AB0190FFF71B
S1132420ADFF0198002808BF4FF0FF3003B05DF8FE
S113243004FB000010B500201446FFF78BFF18B111
S1132440BF210248FEF7EDF9204610BD7B45000090
S1132450034B0222186800238068194600F0D2BE9C
S11324601C10002080F82410704790F82400704756
S113247070B504460568FFF761FF844202D100206D
S1132480FFF750FF95F92830002B11DB012203F0F0
S11324901F015B099B0003F160438A4003F561431C
S11324A0C3F88021C3F88020BFF34F8FBFF36F8F31
S11324B000232846C4E90033C4E90433A360EB686D
S11324C0BDE87040184790F8243070B505460C46B6
S11324D08E18E3B9A6420AD095F82630002BF9D01D
S11324E028462B6814F8011B98470028F2D070BDC9
S11324F095F826305BB123780A2B03D10D212846A9
S11325002B68984728462B6814F8011B9847A64265
S1132510EED1ECE72DE9F7434FF00009044690466D
S11325201E46C3F800904F1E3368434505D2FFF79B
S113253002F9A269C2B9FFF704F994F827305BB92C
S11325401123012220460DF107018DF80730FFF712
S1132550BAFF012384F827303368002B0CBF1B20FB
S1132560002003B0BDE8F083E16922698A5C07F8C2
S1132570012F2569226A0135954208BF4D46A2699B
S11325802561013AA261FFF7DCF8A3682046984769
S1132590336801333360C7E708B5FFF794FF0020C1
S11325A008BD0000F8B51F46536805460C4616469C
S11325B0002B3ED09368002B3DD02C2200212046D6
S11325C000F018FE73681D4AE361B3682362337B2D
S11325D084F82430B37B276084F8253040F201135B
S11325E0E384069B6360079BA360089BE36096F902
S11325F0003084F828306A60114A002BAA60114A1E
S11326002C602A61104A6A61104AEA600CDB0122DC
S113261003F01F015B099B0003F160438A4003F54B
S11326206143C3F880211A602846FFF77BFE00202F
S1132630F8BD2220FCE72120FAE700BF992500001D
S113264015250000652400006B240000712400009F
S113265010B50446FFF76FF8A269236A9A4203D2C1
S1132660FFF76FF8012010BDFFF76BF80020FAE7C1
S113267073B504460D46FFF75EF894F82530064618
S11326806BB1132D07D1002384F8263002B0BDE8C6
S11326907040FFF756B8112D01D10123F4E7A26968
S11326A0236A9A4204D34FF4B2711348FEF7B9F87F
S11326B06369E2693046D554A26963690132A26153
S11326C0226A01339342636104BF00236361FFF70D
S11326D038F8A269236A9A420BD1132301222046B7
S11326E00DF107018DF80730FFF7EDFE002384F8A4
S11326F0273002B070BD00BFE5450000C26AD36C4C
S113270043F00403D364704710B50446C26A936966
S11327105906FCD5002394F833101A4694F8320075
S1132720FFF766F9002394F835101A4694F834003C
S1132730FFF75EF994F83A30DA0707D5002394F8E6
S113274037101A4694F83600FFF752F994F83A30E5
S11327509B0707D5002394F839101A4694F83800DB
S1132760FFF746F9E06A0021FFF748FC208E0021BC
S1132770FEF734FA002010BD08B5C06AFFF734FD37
S1132780002008BD2DE9F0411C46574B86B002934A
S1132790564B0127019300230C9D00939046CDE9ED
S11327A003770A46524B2946FFF7FCFE06460028EB
S11327B074D123683946EB62A3883A202B86E379E7
S11327C085F83330A37985F83230637A85F835306B
S11327D0237A85F83430E37A85F83730A37A85F89C
S11327E03630637B85F83930237B85F83830FEF743
S11327F0F5F93B460422E179A079FFF7F9F83B4665
S11328000222617A207AFFF7F3F83946A088FEF7AE
S1132810E5F988F8006041462068FFF74DFC142272
S1132820A37B5B0103F1804303F57033C3F81C26DB
S1132830E179A27942EA0142C3F83426617A227A24
S113284042EA0142C3F82C2685F83A6098F8193018
S1132850032B46D8DFE803F01A022640012385F84B
S11328603A30002500230222E17AA07AFFF7C0F86B
S1132870E37AA27AA17B42EA03421E4B49015A50F1
S11328800422236803F58053DA6575B920680521AD
S1132890C36C43F00403C364FFF7B0FB304606B0D7
S11328A0BDE8F081022385F83A3000230422617BDD
S11328B0207BFFF79DF8022541F21C61A27B0E4BA1
S11328C003EB42104550607B217BB13241EA004169
S11328D003EB42139960D9E7032385F83A300125C5
S11328E0C0E72326DAE700BF09270000FD26000021
S11328F07927000024D6034000C00340C36A10B502
S11329009B6904461B0610D5FFF7A2FE40B1E06A9E
S1132910FFF764FC01462046BDE81040FFF7A8BE5F
S1132920E26AD36C23F00403D36410BD08B5FDF749
S113293053FDFDF781FDFDF780FDFDF787FDBDE843
S11329400840FDF784BD000010B50446FDF750FEB5
S11329504FF47A729042B0FBF2F105D23621BDE811
S113296010400C48FDF75DBF0B4BB3FBF1F30B4973
S1132970884201D93C21F2E702FB04F0B0FBF3F0FA
S1132980022806D9BDE810400323B0FBF3F000F0A1
S113299007B810BD4546000040420F00E7CD9A3B02
S11329A0013800D0FCE7704781F0004102E000BF2D
S11329B083F0004330B54FEA41044FEA430594EAFB
S11329C0050F08BF90EA020F1FBF54EA000C55EA36
S11329D0020C7FEA645C7FEA655C00F0E2804FEA07
S11329E05454D4EB5555B8BF6D420CDD2C4480EAE9
S11329F0020281EA030382EA000083EA010180EA19
S1132A00020281EA0303362D88BF30BD11F0004F66
S1132A104FEA01314FF4801C4CEA113102D040429C
S1132A2061EB410113F0004F4FEA03334CEA1333D7
S1132A3002D0524263EB430394EA050F00F0A780EF
S1132A40A4F10104D5F1200E0DDB02FA0EFC22FAEA
S1132A5005F2801841F1000103FA0EF2801843FADE
S1132A6005F359410EE0A5F120050EF1200E012ACF
S1132A7003FA0EFC28BF4CF0020C43FA05F3C0180D
S1132A8051EBE37101F0004507D54FF0000EDCF186
S1132A90000C7EEB00006EEB0101B1F5801F1BD32F
S1132AA0B1F5001F0CD349085FEA30004FEA3C0C33
S1132AB004F101044FEA445212F5800F80F09A8029
S1132AC0BCF1004F08BF5FEA500C50F1000041EB2D
S1132AD0045141EA050130BD5FEA4C0C404141EB31
S1132AE00101013C28BFB1F5801FE9D291F0000F2C
S1132AF004BF01460020B1FA81F308BF2033A3F1DB
S1132B000B03B3F120020CDA0C3208DD02F1140CD1
S1132B10C2F10C0201FA0CF021FA02F10CE002F10C
S1132B201402D8BFC2F1200C01FA02F120FA0CFC05
S1132B30DCBF41EA0C019040E41AA2BF01EB04514E
S1132B40294330BD6FEA04041F3C1CDA0C340EDC4C
S1132B5004F11404C4F1200220FA04F001FA02F38F
S1132B6040EA030021FA04F345EA030130BDC4F14D
S1132B700C04C4F1200220FA02F001FA04F340EA42
S1132B800300294630BD21FA04F0294630BD94F0F3
S1132B90000F83F4801306BF81F480110134013DDA
S1132BA04EE77FEA645C18BF7FEA655C29D094EA4B
S1132BB0050F08BF90EA020F05D054EA000C04BFC9
S1132BC01946104630BD91EA030F1EBF00210020B4
S1132BD030BD5FEA545C05D14000494128BF41F053
S1132BE0004130BD14F580043CBF01F5801130BDB7
S1132BF001F0004545F0FE4141F470014FF0000042
S1132C0030BD7FEA645C1ABF194610467FEA655CF2
S1132C101CBF0B46024650EA013406BF52EA033594
S1132C2091EA030F41F4002130BD00BF90F0000F82
S1132C3004BF0021704730B54FF4806404F13204BE
S1132C404FF000054FF0000150E700BF90F0000F77
S1132C5004BF0021704730B54FF4806404F132049E
S1132C6010F0004548BF40424FF000013EE700BF6E
S1132C7042004FEAE2014FEA31014FEA02701FBFFE
S1132C8012F07F4393F07F4F81F06051704732F030
S1132C907F4208BF704793F07F4F04BF41F4002187
S1132CA0704730B54FF4607401F0004521F00041E5
S1132CB01CE700BF50EA010208BF704730B54FF06F
S1132CC000050AE050EA010208BF704730B511F070
S1132CD0004502D5404261EB41014FF4806404F1A8
S1132CE032045FEA915C3FF4D8AE4FF003025FEA2E
S1132CF0DC0C18BF03325FEADC0C18BF033202EBB2
S1132D00DC02C2F1200300FA03FC20FA02F001FA0B
S1132D1003FE40EA0E0021FA02F11444BDE600BFAE
S1132D2070B54FF0FF0C4CF4E06C1CEA11541DBF5D
S1132D301CEA135594EA0C0F95EA0C0F00F0DEF828
S1132D402C4481EA030621EA4C5123EA4C5350EA0D
S1132D50013518BF52EA033541F4801143F480135E
S1132D6038D0A0FB02CE4FF00005E1FB02E506F0EF
S1132D700042E0FB03E54FF00006E1FB03569CF044
S1132D80000F18BF4EF0010EA4F1FF04B6F5007F4A
S1132D9064F5407404D25FEA4E0E6D4146EB0606BC
S1132DA042EAC62141EA55514FEAC52040EA5E5045
S1132DB04FEACE2EB4F1FD0C88BFBCF5E06F1ED8EF
S1132DC0BEF1004F08BF5FEA500E50F1000041EB26
S1132DD0045170BD06F0004646EA010140EA0200D3
S1132DE081EA0301B4EB5C04C2BFD4EB0C0541EAF5
S1132DF0045170BD41F480114FF0000E013C00F30A
S1132E00AB8014F1360FDEBF002001F0004170BD2D
S1132E10C4F10004203C35DA0C341BDC04F1140446
S1132E20C4F1200500FA05F320FA04F001FA05F2D2
S1132E3040EA020001F0004221F0004110EBD3709F
S1132E4021FA04F642EB06015EEA430E08BF20EACB
S1132E50D37070BDC4F10C04C4F1200500FA04F36E
S1132E6020FA05F001FA04F240EA020001F0004100
S1132E7010EBD37041F100015EEA430E08BF20EA73
S1132E80D37070BDC4F1200500FA05F24EEA020EBB
S1132E9020FA04F301FA05F243EA020321FA04F0EA
S1132EA001F0004121FA04F220EA020000EBD370A1
S1132EB05EEA430E08BF20EAD37070BD94F0000FA1
S1132EC00FD101F00046400041EB010111F4801FD5
S1132ED008BF013CF7D041EA060195F0000F18BF86
S1132EE0704703F00046520043EB030313F4801FC2
S1132EF008BF013DF7D043EA0603704794EA0C0F7C
S1132F000CEA135518BF95EA0C0F0CD050EA410691
S1132F1018BF52EA4306D1D181EA030101F000410E
S1132F204FF0000070BD50EA410606BF1046194636
S1132F3052EA430619D094EA0C0F02D150EA013642
S1132F4013D195EA0C0F05D152EA03361CBF104683
S1132F5019460AD181EA030101F0004141F0FE4122
S1132F6041F470014FF0000070BD41F0FE4141F4A6
S1132F70780170BD70B54FF0FF0C4CF4E06C1CEAA6
S1132F8011541DBF1CEA135594EA0C0F95EA0C0F5B
S1132F9000F0A7F8A4EB050481EA030E52EA033516
S1132FA04FEA013100F088804FEA03334FF0805537
S1132FB045EA131343EA12634FEA022245EA111564
S1132FC045EA10654FEA00260EF000419D4208BF15
S1132FD0964244F1FD0404F5407402D25B084FEAC2
S1132FE03202B61A65EB03055B084FEA32024FF46E
S1132FF080104FF4002CB6EB020E75EB030E22BFCB
S1133000B61A754640EA0C005B084FEA3202B6EB8A
S1133010020E75EB030E22BFB61A754640EA5C0039
S11330205B084FEA3202B6EB020E75EB030E22BFC9
S1133030B61A754640EA9C005B084FEA3202B6EBCA
S1133040020E75EB030E22BFB61A754640EADC0089
S113305055EA060E18D04FEA051545EA16754FEAEB
S113306006164FEAC30343EA52734FEAC2025FEA09
S11330701C1CC0D111F4801F0BD141EA00014FF098
S113308000004FF0004CB6E711F4801F04BF014369
S11330900020B4F1FD0C88BFBCF5E06F3FF6AFAE85
S11330A0B5EB030C04BFB6EB020C5FEA500C50F115
S11330B0000041EB045170BD0EF0004E4EEA113198
S11330C014EB5C04C2BFD4EB0C0541EA045170BD9F
S11330D041F480114FF0000E013C90E645EA060EE3
S11330E08DE60CEA135594EA0C0F08BF95EA0C0F11
S11330F03FF43BAF94EA0C0F0AD150EA01347FF459
S113310034AF95EA0C0F7FF425AF104619462CE72F
S113311095EA0C0F06D152EA03353FF4FDAE104692
S1133120194622E750EA410618BF52EA43067FF4E3
S1133130C5AE50EA41047FF40DAF52EA43057FF473
S1133140EBAE12E74A0011D212F5001211D20DD5DE
S11331506FF47873B3EB62520ED44FEAC12343F099
S1133160004343EA505323FA02F070474FF0000043
S1133170704750EA013002D14FF0FF3070474FF0F2
S11331800000704708B5074B044613B1002100E066
S113319000BF054B1868836A03B198472046FFF7C0
S11331A030F900BF000000009C46000070B50D4DD2
S11331B000260D4C641BA410A64209D10B4D002619
S11331C00B4C01F04DF8641BA410A64205D170BD50
S11331D055F8043B01369847EEE755F8043B0136B1
S11331E09847F2E780100020801000208010002013
S11331F08410002002440346934200D1704703F830
S1133200011BF9E72DE9F7431D465C4B04460E46C6
S11332101F68904627B1BB6913B9384600F0E6F938
S1133220574B9C4267D17C68B8F1020F06D0B8F1C5
S1133230010F00F29E80002DC0F29B80636EDB07BD
S113324005D4A389980502D4A06D00F06DFA214637
S1133250384600F037F9616B41B104F144039942F7
S113326002D0384600F0D0FA002363630023A36140
S11332706360A389190603D52169384600F0C4FAAE
S1133280A389B8F1020F23F44A6323F00303A38153
S11332906BD001AB6A462146384600F047FAA38951
S11332A01843A081002D30D1009D284600F0A4FAD7
S11332B00646002854D1DDF80090A94549D14FF0C5
S11332C0FF350022B4F90C30A26004F1470243F048
S11332D00203226022610122A3816261626ED2072D
S11332E005D413F4007F02D1A06D00F01EFA284625
S11332F003B0BDE8F083234B9C4201D1BC6893E743
S1133300214B9C4208BFFC688EE7002ECDD0BB69E0
S113331013B9384600F06AF9B8F1010F266002BF0C
S1133320A38943F00103A381A28912F00803C4E92D
S113333004651CD0D30745BF00236D42A560A3607C
S113334048BFA561656E15F0010515D112F4007F23
S1133350C9E7484600F050FA06460028AFD04D466B
S1133360A38943F08003A381D1E70025A9E7A360E3
S1133370E8E74FF0FF35BAE70025B8E71C10002056
S1133380C0460000E0460000A046000013B50B460E
S1133390094902460C6844B1A16931B9CDE9000379
S11333A0204600F023F9DDE90023A168204602B09D
S11333B0BDE8104000F0F8BA1C1000208A892DE9FD
S11333C0F041054610070C4658D44B68002B05DC29
S11333D00B6C002B02DC0020BDE8F081E66A002EB5
S11333E0F9D0002312F480522F682B6032D0606D24
S11333F0A3895A0705D56368C01A636B0BB1236CA4
S1133400C01A00230246E66A2846216AB047431CD4
S1133410A38906D129681D292CD8294ACA40D60770
S113342028D50022D90462602269226004D5421C96
S113343001D12B6803B96065616B2F600029CAD084
S113344004F14403994202D0284600F0DDF900203B
S11334506063C1E7216A01232846B047411CC7D1F4
S11334602B68002BC4D01D2B01D0162B01D12F604B
S1133470B1E7A38943F04003A381ADE70F69002FAF
S1133480A9D093070E680F600CBF4B690023A6EB0D
S113349007088B60B8F1000F9DDD43463A46216A68
S11334A02846A66AB047002806DCA3894FF0FF30FF
S11334B043F04003A3818FE70744A8EB0008E9E742
S11334C00100402038B50B6905460C4613B90025A8
S11334D0284638BD18B183690BB900F087F8144B3E
S11334E09C421BD16C68B4F90C30002BEFD0626E97
S11334F0D00704D4990502D4A06D00F015F928462C
S11335002146FFF75BFF636E0546DA07E0D4A38923
S11335109B05DDD4A06D00F008F9D9E7054B9C426A
S113352001D1AC68DFE7044B9C4208BFEC68DAE7E2
S1133530C0460000E0460000A0460000002310B58D
S113354004468360818119464366C28108228361EF
S1133550C0E90033C0E904335C30FFF74BFE054B90
S113356024626362044BA362044BE362044B23634F
S113357010BD00BF553F0000773F0000AF3F000083
S1133580D33F0000014900F0AFB800BFC5340000CC
S113359070B568224D1E0E46554305F1740100F0C6
S11335A07FF9044640B1002105F16802C0E9001624
S11335B00C30A060FFF71EFE204670BD014800F0ED
S11335C0B3B800BF3D110020014800F0AEB800BF01
S11335D03D110020014800F0A7B800BF3E110020B3
S11335E0014800F0A2B800BF3E11002010B5044607
S11335F0FFF7F0FFA3691BB1BDE81040FFF7F0BF70
S1133600C4E9123323652046124B134A1B68A26295
S1133610A34204BF0123A36100F020F860602046A8
S113362000F01CF8A060204600F018F800220421E5
S1133630E0606068FFF782FF01220921A068FFF7BC
S11336407DFF02221221E068FFF778FF0123A361C6
S1133650D2E700BF9C46000085350000F8B5074658
S1133660FFF7ACFF1E4B1E68B36913B93046FFF772
S1133670BDFF4836D6E90134013B03D533680BB3AB
S11336803668F7E7B4F90C50D5B9164B04F1580075
S11336906566E36000F047F8FFF796FF08222946C5
S11336A004F15C002560A561C4E90155C4E9045531
S11336B0FFF7A0FDC4E90D55C4E912552046F8BD35
S11336C06834D9E704213846FFF762FF04463060C6
S11336D00028D5D1FFF778FF0C233B60EEE700BF4D
S11336E09C4600000100FFFF2DE9F843064688468A
S11336F000F148040027D4E90195B9F1010905D581
S11337002468002CF7D13846BDE8F883AB89012B37
S113371007D9B5F90E30013303D029463046C047E6
S113372007436835E9E770477047704770B50E4640
S1133730B1F90E1096B0144600291D4608DAB6F900
S11337400C3000222A601A0610D44FF480630EE075
S11337506A4600F025FD0028F1DB019A02F470426C
S1133760A2F500535A425A412A60EEE74023002052
S1133770236016B070BD00008B8973B59D070646A3
S11337800C4607D504F147032360236101236361D9
S113379002B070BD01AB6A46FFF7C8FF0099054649
S11337A0304600F07DF848B9B4F90C309A05EFD4EE
S11337B023F0030343F00203A381E3E70D4BB36259
S11337C0A389206043F080032061A381009B63618F
S11337D0019B5BB1B4F90E10304600F0F3FC28B144
S11337E0A38923F0030343F00103A381A0890543C4
S11337F0A581CDE785350000024B0146186800F02D
S11338004FB800BF1C10002037B5002943D051F831
S1133810043C0C1F0190002BB8BFE41800F002FD1B
S11338201E4A0198136833B96360146003B0BDE89D
S1133830304000F0FDBCA34208D9256861198B42D1
S113384001BF19685B6849192160EDE71A465B6896
S11338500BB1A342FAD911685518A5420BD12468BB
S1133860214454181160A342E0D11C685B682144D0
S113387053601160DAE702D90C230360D6E72568A8
S113388061198B4202BF19685B684919636008BFFC
S113389021605460CAE703B030BD00BF401100206E
S11338A0F8B5CD1C064625F0030508350C2D38BFA8
S11338B00C25002D01DBA94203D90C233360002021
S11338C0F8BD00F0AFFC21490A6814469CB9204FAA
S11338D03B6823B92146304600F02CFB386029466A
S11338E0304600F027FB431C23D10C2330463360C1
S11338F000F09EFCE3E723685B1B17D40B2B03D972
S113390023601C44256004E06368A2420CBF0B6082
S11339105360304600F08CFC04F10B00231D20F0B2
S11339200700C21ACCD01B1AA350C9E72246646808
S1133930CCE7C41C24F00304A042E3D0211A30468F
S113394000F0F8FA0130DDD1CFE700BF40110020CC
S1133950441100209368013B002B936010B408DAF3
S11339609469A34201DB0A2903D15DF8044B00F0FA
S113397035BB1368581C1060084619705DF8044B79
S11339807047F8B506460F461446D518AC4201D127
S1133990002007E03A4614F8011B3046FFF7DAFF2F
S11339A0431CF3D1F8BD00002DE9F04F0D469DB046
S11339B014469846064618B183690BB9FFF716FEFC
S11339C0894B9D421BD175686B6ED90705D4AB89B1
S11339D09A0502D4A86DFFF7A7FEAB891B0701D592
S11339E02B69EBB92946304600F05CFBC0B16B6E25
S11339F0DC070ED54FF0FF301DB0BDE8F08F7B4BD8
S1133A009D4201D1B568DFE7794B9D4208BFF56857
S1133A10DAE7AB899805EDD4A86DFFF786FEE9E7F0
S1133A200023CDF80C804FF00109DFF8C881099319
S1133A3020238DF8293030238DF82A3023469A46E6
S1133A4013F8012B0AB1252AF9D1BAEB040B0BD0D8
S1133A505B46224629463046FFF793FF013000F0CB
S1133A60AA80099A5A4409929AF80030002B00F06F
S1133A70A28000234FF0FF320AF1010A0493079356
S1133A808DF853301A93CDE905235446052259483D
S1133A9014F8011B00F0B8FB049AD8B9D10644BF4E
S1133AA020238DF85330130744BF2B238DF8533054
S1133AB09AF800302A2B15D0079A544600204FF06C
S1133AC00A0C214611F8013B303B092B4ED9B0B109
S1133AD0079214E0A0EB0803A24609FA03F3134388
S1133AE00493D2E7039B191D1B68002B0391BBBFF2
S1133AF05B4242F0020207930793B8BF0492237813
S1133B002E2B0CD163782A2B35D1039B02341A1D3A
S1133B101B68002B0392B8BF4FF0FF330593DFF807
S1133B20E4A003222178504600F06EFB40B140230C
S1133B30A0EB0A00013403FA00F0049B034304934E
S1133B4014F8011B06222C488DF8281000F05CFBA9
S1133B5000283FD0294B1BBB039B073323F00703EB
S1133B6008330393099B3B44099367E70CFB023238
S1133B700C460120A5E7002301344FF00A0C194636
S1133B800593204610F8012B303A092A03D9002B5B
S1133B90C5D00591C3E70CFB012104460123F0E7DE
S1133BA003AB2A4604A930460093154B00E000BF3E
S1133BB00746781CD6D16B6ED90705D4AB899A0514
S1133BC002D4A86DFFF7B1FDAB895B063FF512AFD8
S1133BD0099811E703AB2A4604A930460093084B21
S1133BE000F082F8E4E700BFC0460000E0460000B1
S1133BF0A0460000004700000A4700000000000043
S1133C0083390000064700002DE9F047164699461F
S1133C108A6807460B690C46DDF820809342B8BFDA
S1133C201346336091F843200AB1013333602368AB
S1133C30990642BF336802333360256815F00605E0
S1133C4006D104F1190AE36832689B1AAB4229DCF5
S1133C5094F84320131E226818BF012392062ED421
S1133C6004F1430249463846C047013021D0236855
S1133C701A3454F80E5C03F0060332680026042B51
S1133C8054F8123C08BFAD1A54F80A2C14BF00258E
S1133C9025EAE5759342C4BF9B1AED18B5421AD1C3
S1133CA0002008E00123524649463846C047013007
S1133CB003D14FF0FF30BDE8F0870135C3E7E118C9
S1133CC05A1C30200233224481F8430094F84510F2
S1133CD082F84310C4E70123224649463846C047C8
S1133CE00130E6D00136D9E72DE9FF470F7E914632
S1133CF080460C46782F9A460C9D01F1430207D862
S1133D00622F0AD8002F00F0D880582F00F0A3802B
S1133D1004F1420584F842703AE0A7F16303152BDD
S1133D20F6D801A151F823F0813D0000953D000033
S1133D30113D0000113D0000113D0000113D000047
S1133D40953D0000113D0000113D0000113D0000B3
S1133D50113D0000A13E0000C53D0000833E00006F
S1133D60113D0000113D0000C33E0000113D000064
S1133D70C53D0000113D0000113D00008B3E0000D8
S1133D802B681A1D1B682A6004F1420584F842302E
S1133D900123A3E020682968060601F104030AD57B
S1133DA00E682B60002E03DA2D23764284F843300C
S1133DB05E480A2319E00E6810F0400F2B6018BF0C
S1133DC036B2EFE72B682068191D2960010601D57A
S1133DD01E6802E04606FBD51E886F2F53480CBFB1
S1133DE008230A23002184F843106568002DA56088
S1133DF0A2BF216821F0040121600EB9002D4DD02D
S1133E001546B6FBF3F103FB1167C75D05F8017DA9
S1133E1037460E46BB42F4D9082B0BD12368DE0784
S1133E2008D5236961689942DEBF302305F8013C57
S1133E3005F1FF35521B22614B4603AA2146404639
S1133E40CDF800A0FFF7E0FE01304CD14FF0FF3079
S1133E5004B0BDE8F087354881F8457029682368C7
S1133E6051F8046B29601D0614D5DF0744BF43F0E5
S1133E70200323601EB9236823F02003236010234A
S1133E80B0E7236843F0200323607823284884F8AC
S1133E904530E3E7590648BFB6B2E6E71546BBE747
S1133EA02B682668181D6169286035061B6801D5D2
S1133EB0196002E07006FBD51980002315462361C2
S1133EC0BAE72B6800211A1D2A601D68626828461B
S1133ED000F09AF908B1401B606063682361002315
S1133EE084F84330A8E723692A4649464046D04728
S1133EF00130ABD023689B0713D4E068039B98423E
S1133F00B8BF1846A4E70123324649464046D04785
S1133F1001309BD00135E36803995B1AAB42F2DCB4
S1133F20EBE7002504F11906F5E700BF114700008F
S1133F302247000038B50023054D044608462B608F
S1133F40FCF794FB431C02D12B6803B1236038BDFA
S1133F504811002010B50C46B1F90E1000F06EF9AE
S1133F600028ABBF636DA3891B1823F48053ACBF37
S1133F706365A38110BD2DE9F0411F468B89054679
S1133F800C46DB05164605D502230022B1F90E10B6
S1133F9000F028F9A3893246B4F90E10284623F418
S1133FA08053A3813B46BDE8F04100F069B810B5E9
S1133FB00C46B1F90E1000F015F9431CA38915BF86
S1133FC0606523F4805343F48053A38118BFA38115
S1133FD010BDB1F90E1000F0D3B80000F8B50E46CC
S1133FE01446054618B183690BB9FFF7FFFA214B54
S1133FF09C422BD16C68A369A360A3891A072FD5AF
S113400023696BB32369F6B220683746C01A636923
S1134010834204DC21462846FFF754FA30BBA368E8
S11340200130013BA36023685A1C22601E7063693F
S1134030834204D0A389DB0706D50A2E04D1214686
S11340402846FFF73FFA88B93846F8BD0A4B9C4228
S113405001D1AC68CFE7094B9C4208BFEC68CAE7C2
S11340602146284600F01EF80028CBD04FF0FF3739
S1134070EAE700BFC0460000E0460000A04600009A
S113408038B50446064D0846114600222A601A46F1
S1134090FEF7D0F9431C02D12B6803B1236038BD6D
S11340A048110020324B70B51D6806460C4625B1F8
S11340B0AB6913B92846FFF799FA2E4B9C420FD1EE
S11340C06C68A389B4F90C2019072CD4DD0611D42B
S11340D00923336042F040034FF0FF30A3813EE0F8
S11340E0254B9C4201D1AC68EBE7244B9C4208BFB2
S11340F0EC68E6E7580712D5616B41B104F144035B
S1134100994202D03046FFF77FFB00236363A38903
S113411023F02403A3810023636023692360A3891C
S113412043F00803A38123694BB9A38903F42073E3
S1134130B3F5007F03D021463046FFF71DFBA0896D
S1134140B4F90C2010F001030AD00023A3606369C2
S11341505B42A361236943B910F08000BAD170BDFA
S1134160810758BF6369A360F4E70020F7E700BF45
S11341701C100020C0460000E0460000A0460000DD
S113418038B50023054D044608462B60FEF737F981
S1134190431C02D12B6803B1236038BD48110020B1
S11341A038B50023064D0446084611462B60FEF739
S11341B029F9431C02D12B6803B1236038BD00BF29
S11341C04811002038B50023054D044608462B60ED
S11341D0FEF71DF9431C02D12B6803B1236038BDDF
S11341E04811002038B50446064D08461146002201
S11341F02A601A46FEF70DF9431C02D12B6803B15D
S1134200236038BD48110020C9B2024410B5904261
S1134210034601D1002303E01C7801308C42F6D11F
S1134220184610BD0148FFF77FBA00BF3C110020BB
S11342300148FFF77ABA00BF3C11002038B50446A4
S1134240064D0846114600222A601A46FEF7E3F896
S1134250431C02D12B6803B1236038BD48110020F0
S1134260F8B500BFF8BC08BC9E467047F8B500BF5F
S1134270F8BC08BC9E4670475B495D2000537461DE
S113428074757320636865636B3A2025640A004C77
S11342906967687420696E74656E736974793A200D
S11342A025640A002E2E2F6175746F67656E2F7357
S11342B06C5F696F73747265616D5F696E69745F59
S11342C075736172745F696E7374616E6365732E66
S11342D063000000050000000000000000C20100AF
S11342E000050000001000000000000000000000B5
S11342F00000064029000005000600080007010030
S11343000F100000E0100020200000000001000059
S1134310433A2F55736572732F41646D696E2F5341
S1134320696D706C696369747953747564696F2F0E
S113433053444B732F6765636B6F5F73646B2F70AC
S11343406C6174666F726D2F6472697665722F6921
S1134350326373706D2F7372632F736C5F69326392
S113436073706D2E6300633A5C75736572735C6180
S1134370646D696E5C73696D706C6963697479737B
S1134380747564696F5C73646B735C6765636B6F8E
S11343905F73646B5C706C6174666F726D5C656D89
S11343A06C69625C696E635C656D5F6770696F2ED2
S11343B06800433A2F55736572732F41646D696EBB
S11343C02F53696D706C696369747953747564698A
S11343D06F2F53444B732F6765636B6F5F73646B0D
S11343E02F706C6174666F726D2F656D6C69622FCE
S11343F07372632F656D5F636D752E630002010137
S113440003030206010504433A2F55736572732FA3
S113441041646D696E2F53696D706C696369747959
S113442053747564696F2F53444B732F6765636BC3
S11344306F5F73646B2F706C6174666F726D2F6540
S11344406D6C69622F7372632F656D5F656D752E78
S11344506300433A2F55736572732F41646D696E1F
S11344602F53696D706C69636974795374756469E9
S11344706F2F53444B732F6765636B6F5F73646B6C
S11344802F706C6174666F726D2F656D6C69622F2D
S11344907372632F656D5F6770696F2E6300433AB3
S11344A02F55736572732F41646D696E2F53696D57
S11344B0706C696369747953747564696F2F5344BC
S11344C04B732F6765636B6F5F73646B2F706C61E5
S11344D074666F726D2F656D6C69622F7372632FD2
S11344E0656D5F6932632E630000000080841E00E6
S11344F0404B4C00809FD50080841E0040548900AE
S1134500002D310108091108433A2F557365727360
S11345102F41646D696E2F53696D706C69636974A2
S11345207953747564696F2F53444B732F676563B4
S11345306B6F5F73646B2F706C6174666F726D2F39
S1134540656D6C69622F7372632F656D5F7573613E
S113455072742E630001030401010109030B0B02B1
S11345600000202000038C8C3C00000000000000B0
S11345700126040000010000000000433A2F557397
S11345806572732F41646D696E2F53696D706C6928
S11345906369747953747564696F2F53444B732F33
S11345A06765636B6F5F73646B2F706C6174666FA8
S11345B0726D2F736572766963652F696F73747298
S11345C065616D2F7372632F736C5F696F7374729F
S11345D065616D5F72657461726765745F7374643D
S11345E0696F2E6300433A2F55736572732F4164CC
S11345F06D696E2F53696D706C6963697479537456
S11346007564696F2F53444B732F6765636B6F5FDA
S113461073646B2F706C6174666F726D2F73657247
S1134620766963652F696F73747265616D2F737238
S1134630632F736C5F696F73747265616D5F75610D
S113464072742E6300433A2F55736572732F41645D
S11346506D696E2F53696D706C69636974795374F5
S11346607564696F2F53444B732F6765636B6F5F7A
S113467073646B2F706C6174666F726D2F736572E7
S1134680766963652F7564656C61792F7372632F26
S1134690736C5F7564656C61792E63002010002073
S11346A00000000000000000000000000000000006
S11346B000000000000000000000000000000000F6
S11346C000000000000000000000000000000000E6
S11346D000000000000000000000000000000000D6
S11346E000000000000000000000000000000000C6
S11346F000000000000000000000000000000000B6
S1134700232D302B2000686C4C00656667454647B6
S11347100030313233343536373839414243444539
S113472046003031323334353637383961626364A8
S107473065660000B6
S10B47344CBAFF7F01000000F4
S113473C01041F00C0EA2101C0EA210100F0490272
S113474C0080000050110020FFFF0000201000200A
S113475C00000000C0460000E0460000A046000037
S113476C0000000000000000000000000000000039
S113477C0000000000000000000000000000000029
S113478C0000000000000000000000000000000019
S113479C0000000000000000000000000000000009
S11347AC00000000000000000000000000000000F9
S10B47BC650100004101000049
S90305698E
