S00E0000656D7074795F322E73333726
S1130000001000208905000085050000850500001A
S113001085050000850500008505000085050000B4
S11300208505000085050000850500009125000078
S1130030850500008505000021250000231B000024
S11300408505000085050000850500008505000084
S11300508505000085050000850500008505000074
S11300608505000085050000850500008505000064
S11300708505000085050000850500007505000064
S11300808105000085050000850500008505000048
S11300908505000085050000850500008505000034
S11300A08505000085050000850500008505000024
S11300B08505000085050000850500008505000014
S11300C08505000085050000850500008505000004
S11300D085050000850500008505000085050000F4
S11300E085050000850500008505000085050000E4
S11300F085050000850500008505000085050000D4
S1130100851A0000850500008505000085050000AE
S113011085050000850500008505000085050000B3
S113012085050000850500008505000085050000A3
S1130130850500008505000001020000850500001A
S113014010B5054C237833B9044B13B1044800E0CF
S113015000BF0123237010BDB41000200000000074
S1130160E02B000008B5034B1BB10349034800E032
S113017000BF08BD00000000B8100020E02B000004
S1130180A3F5803A704700BF174B002B08BF134BF1
S11301909D46FFF7F5FF00218B460F461348144A8E
S11301A0121A02F054FA0E4B002B00D098470D4B54
S11301B0002B00D098470020002104000D000D48BA
S11301C0002802D00C4800E000BF02F007FA20002B
S11301D0290000F0BBF902F0EDF900BF00000800AF
S11301E0000000000000000000100020B4100020F7
S11301F014160020000000000000000070470000FA
S113020070B509211D481E4C01F062F81B48266890
S113021001F08EF81B4D2368A855EB5C742B03D1B9
S11302203021164801F08AF82368EB5C662B03D171
S11302303121124801F082F82368EB5C542B03D17E
S113024030210E4801F07AF82368EB5C462B03D189
S113025031210A4801F072F80521084801F038F804
S11302602368EA5C0A2A07D04F2B05D801330422FD
S11302702360054B5A6470BD0023F8E70000034A6D
S113028020110020D01000200020034AF8B50446B5
S113029018201D460F46164602F0C4F9069BC0E915
S11302A00076C360079B856003610023206043617F
S11302B0F8BD2DE9F04104460F4616461D46A046FA
S11302C06469002CFBD1182002F0ACF9069BC0E94C
S11302D00076C360079B8560C0E90434C8F8140045
S11302E0BDE8F0814FF0FF32034610B5114491424E
S11302F05C6902DC62695A6110BD23460132F6E78B
S11303000023C0E90033C0E9023303610A23143037
S113031001B9704791FBF3F203FB121140F8041D7D
S11303201146F5E72DE9F0430E460546144687B01D
S11303300021142201A802F08AF9002EACBF314634
S1130340714201A8FFF7DCFF019B029A30332B5561
S113035030322B195A70039A271D30329A70049A3E
S1130360002E02F13002DA70059B03F13003EB55E5
S113037003DA2D210F4800F0E1FF2646DFF8349020
S113038004F10308B0450CDAE95D0A4800F0D6FF31
S1130390142C03D02F21074800F0D0FF07B0BDE88C
S11303A0F083A95D302902D0484600F0C7FF01362A
S11303B0E8E700BF0000034AF0B5234B8BB01A886E
S11303C09B78ADF8082003AA14468DF80A301F4B19
S11303D0456903F11807164618685968083303C6B7
S11303E0BB423246F7D11B78194F337002AE16F870
S11303F0012B1ABB73211648019200F09FFF20467F
S1130400019A2968FFF78EFF204669680522FFF7E5
S113041089FF2046A9680A22FFF784FF2046E9687D
S11304200F22FFF77FFF142220462969FFF77AFF86
S11304307021074800F082FF0BB0F0BD114638462A
S113044000F07CFFD3E700BF682700006B270000A3
S11304500000034A7FB5002403A823462246214610
S1130460CDE90044FFF712FF42F210750B4E013440
S1130470304601F059FA2346224621460398CDE935
S11304800044FFF716FF0398FFF796FF0021039837
S1130490FFF728FFAC42EAD104B070BD80F0FA0245
S11304A008B501213A2000F0CDFA012304221946AF
S11304B0184601F017F9012200231046022101F029
S11304C011F90222054BC3F8C0204FF00112C3F802
S11304D0D02002F58032C3F8CC2008BD00C403400C
S11304E030B589B06C460F21382000F051FC144D12
S11304F001214FF4806000F0A5FA0121382000F0BA
S1130500A1FA0FCD0FC495E80F0084E80F004FF453
S113051016530C4C69462046029301F055F84FF0EF
S11305208042094B04F58054C3F884215A604FF08B
S11305300042C3F884215A600423A36409B030BD87
S1130540842700000000034A00E100E008B5FFF73B
S113055055FEFFF7A5FFFFF7C3FFFFF77BFFFCE79F
S1130560034B1A6890420CBF18460020704700BF26
S113057000100020014B186801F0BAB924110020C2
S1130580FFF7F8BFFEE7000008B500F013F8064BCC
S1130590064A07498B4201D3FFF7F6FD52F8040BD4
S11305A043F8040BF6E700BF00100020E82B00001E
S11305B0B4100020044B054A9A60D3F8882042F412
S11305C07002C3F88820704700ED00E000000000CE
S11305D0014B1868704700BF34100020084B1B6F94
S11305E003F00703022B04D0032B05D0012B05D005
S11305F0FEE7044B18687047034BFBE7034870475A
S1130600008000403410002038100020002D3101FB
S113061008B5FFF7E3FF054B1B6FC3F30333013347
S1130620B0FBF3F0024B186008BD00BF008000402F
S1130630301000200048704700B4C404014B18680F
S1130640704700BF381000200020704700487047F2
S1130650002D31014FF4004070474FF47A70704719
S1130660014B1868704700BF3C10002005490A6818
S11306701318054883428CBF4FF0FF320B601046BD
S1130680704700BF4010002000800020FEE74FF0BC
S11306904023D3F88420D206FBD4D3F88400C0F3DB
S11306A08110704738B5124B0546D3F820310C46FB
S11306B003F00303022B0BD0032B0DD0012B0FD11E
S11306C0FFF786FF052305B1286004B1237038BD08
S11306D0FFF7B4FF0323F6E7FFF7B8FF0223F2E7BF
S11306E0044840F6BE71FFF7D1FF00231846EAE73D
S11306F000800040A4270000F7B50024114B0194AA
S1130700D3F88051074605F00305012D0E4607D0A6
S1130710022D11D041F2E2010B48FFF7B7FF04E0CC
S1130720214601A8FFF7BEFF0F240FB1019B3B60D8
S113073006B1347003B0F0BDFFF788FF2C4601907A
S1130740F3E700BF00800040A427000038B5194B30
S11307500546D3F824310C4603F00703013B052B6F
S113076020D8DFE803F0030F171B0B13FFF730FF4C
S1130770052305B1286004B1237038BDFFF728FFB5
S11307800623F6E7FFF75AFF0323F2E7FFF756FFC6
S11307900423EEE7FFF75AFF0223EAE7FFF754FFCB
S11307A00723E6E7044840F64651FFF76FFF0023AE
S11307B01846DEE700800040A427000038B5124B3D
S11307C00546D3F840310C4603F00303022B0BD04B
S11307D0032B0DD0012B0FD1FFF73CFF092305B1EB
S11307E0286004B1237038BDFFF73AFF0823F6E709
S11307F0FFF733FF0B23F2E7044840F6EC71FFF7F1
S113080045FF00231846EAE700800040A4270000C3
S113081038B5154B0546D3F800320C4603F00703F0
S1130820013B032B18D8DFE803F0020A0E12FFF78E
S113083011FF092305B1286004B1237038BDFFF707
S11308400FFF0823F6E7FFF708FF0B23F2E7FFF794
S1130850DFFE0E23800AEDE7044841F29811FFF70A
S113086015FF00231846E5E700800040A427000098
S113087038B5124B0546D3F840320C4603F0030357
S1130880022B0BD0032B0DD0012B0FD1FFF7E2FE6F
S1130890092305B1286004B1237038BDFFF7E0FED9
S11308A00823F6E7FFF7D9FE0B23F2E7044841F2E9
S11308B02B11FFF7EBFE00231846EAE70080004007
S11308C0A427000038B5124B0546D3F860310C4616
S11308D003F00303022B0BD0032B0DD0012B0FD1FC
S11308E0FFF7B8FE092305B1286004B1237038BDB1
S11308F0FFF7B6FE0823F6E7FFF7AFFE0B23F2E798
S1130900044841F21A01FFF7C1FE00231846EAE742
S113091000800040A427000010B40F4C0B46D4F80C
S1130920204204F00304012C0ED0022C10D008B194
S1130930002101600BB100221A704FF4576107487F
S11309405DF8044BFFF7A2BE5DF8044BFFF7AABEA7
S11309505DF8044BFFF732BF00800040A42700007D
S1130960B0F5207F10B534D009D8B0F5007F2AD077
S113097003D898B1B0F5C07F10D0002421E0B0F5C1
S1130980607FFAD1154BD3F88030C3F301149B0672
S113099017D5032C15D04FF41D710FE00F4B1C6FAE
S11309A0230B13F00E0FC4F303340AD0032C08D026
S11309B0072C06D00F2C04D04FF419710848FFF708
S11309C065FE601C10BD054BD3F89040C4F304646D
S11309D0F7E7024B1C6FC4F38024F2E70080004069
S11309E0A42700004FF400320F4B70B59A660646F8
S11309F000200D46FFF7B4FF41F671320B4B7043F4
S1130A00DC690B49DA639A68884204F4803422F47E
S1130A10401203D9012D18BF42F480129A600CB120
S1130A200022DA6370BD00BF009000400000034064
S1130A30005A620208B5FFF7FDFDBDE80840002139
S1130A40FFF7D0BF70B5460904460D460FD140F2FA
S1130A5005310D48FFF71AFE334604F01F0485B133
S1130A6003F58053012000FA04F41C6070BD012ECC
S1130A7005D0064B064A022E18BF1346EDE7054B78
S1130A80EBE703F50053EDE7A4270000688000407E
S1130A906082004064800040002330B5802885B027
S1130AA00446029375D02BD8002878D0A0F12004F6
S1130AB0A3B2412B32D8412C30D8DFE804F0707354
S1130AC07073868686867373903FA7653F737373CE
S1130AD02F2F2F2F2F2F8B57737373B1AC732F2F8F
S1130AE02F2F2F2F2F2F2F2F2F2F2F702F7070700E
S1130AF0862F2F2F2F2F2F2F2F2F2F2F2F2F707029
S1130B00B0F5806F61D024D8B0F5007F54D00BD8F5
S1130B10B0F5807F68D0B0F5C07F40D040F25A4134
S1130B204248FFF7B3FD37E0B0F5607F44D0F5D815
S1130B30B0F5207F36D0B0F5407FEFD1FFF768FDE8
S1130B4004464FF42070FFF70BFFB4FBF0F04008AD
S1130B5021E0B0F5C06F59D00DD8B0F5A06F39D0F1
S1130B60B0F5B06F3BD0B0F5906FD7D1002102A89B
S1130B70FFF7ECFD10E0B0F5E06F4CD0B0F5F06F8E
S1130B804ED0B0F5D06FC9D1002102A8FFF740FEC6
S1130B9002E0FFF723FD0290029805B030BDFFF795
S1130BA037FDF8E7FFF734FD04464FF42070FFF7F4
S1130BB0D7FEB4FBF0F0EEE7FFF710FD0546204644
S1130BC0FFF7CEFEB5FBF0F0E5E7002102A8FFF742
S1130BD069FDE1E7002102A8FFF79EFEDCE70021A2
S1130BE002A8FFF789FDD7E703934FF0E0231B69C1
S1130BF05B0705D5FFF70CFD0390039B0293CBE73E
S1130C000DF1070103A8FFF7D9FDF6E7002102A8BB
S1130C10FFF7D4FDC0E7002102A8FFF729FEBBE7D8
S1130C20002102A8FFF74EFEB6E700BFA42700008C
S1130C3008B58020FFF730FF034B98429EBF4FF466
S1130C408032024B1A6708BD005A620200A00040BD
S1130C500029CCBF01210021FFF7C4BEB0F5207FDD
S1130C6010B565D00ED8B0F5007F4FD003D800B3CF
S1130C70B0F5C07F1DD04FF43A71BDE81040344840
S1130C80FFF704BDB0F5607FF5D14C1E012C06D9E9
S1130C90042904D040F2CD212D48FFF7F7FC2D4A5A
S1130CA0D2F8803023F0300343EA0413C2F88030D2
S1130CB010BD102901F1FF3404D8274B23FA01F1A8
S1130CC0CB0704D440F2A3212148FFF7DFFCFFF750
S1130CD0B1FE00F045F84FF48031204B1D4A1967EE
S1130CE0136F23F4704343EA04331367FFF790FC54
S1130CF00446FFF7CCFCC0F102012046FFF7A8FF31
S1130D0000F034F8BDE81040FFF792BF4C1E1F2CD2
S1130D1004D94FF437710E48FFF7B8FC0D4BD3F8E4
S1130D20901021F0F85141EA0461C3F89010BFE734
S1130D304C1E012C04D940F2E2210548FFF7A6FC21
S1130D40044B196F21F4806141EA84211967AFE7EC
S1130D50A42700000080004016010100009000401C
S1130D6002214FF42070FFF779BF000008B54FF45B
S1130D70C070FFF791FEBDE80840044988428CBF6B
S1130D80022101214FF42070FFF768BF80F0FA02BE
S1130D90B0F5807F70B50C4600F00C812CD8382853
S1130DA000F0A48111D8243883B2092B16D809285D
S1130DB014D8DFE810F0E400E400E400E4001300D9
S1130DC01300CF00130049005301522800F0D780CC
S1130DD007D83D2853D03E2800F09F8140F62501D6
S1130DE022E18028FAD18B1E052B00F2A880DFE8CF
S1130DF003F0A394A6AEA667B0F5D06F00F02E81E1
S1130E0032D8B0F5A06F00F0718116D8B0F5806FBC
S1130E1000F0B580B0F5906FE0D1023CE4B2052C4F
S1130E2000F21581A84B195DA84AD2F8243123F0A9
S1130E3007030B43C2F824316EE0B0F5B06F00F045
S1130E408980B0F5C06FC9D1083CE4B2032C00F22C
S1130E50F0809F4B195D9D4AD2F8403123F0030383
S1130E600B43C2F8403157E0B0F5006FD5D016D827
S1130E70B0F5E06F00F05181B0F5F06FAED1083CF1
S1130E80E4B2032C00F2DC80924B195D8F4AD2F855
S1130E90603123F003030B43C2F860313CE0B0F54A
S1130EA0086F9BD14C1E072C00F20481DFE814F07C
S1130EB00701020109010201020102010001F60019
S1130EC0002504260121022000F056F9FFF7B2FDA7
S1130ED0FFF746FF4FF480317F4B7C4A1967136F4D
S1130EE023F0070333431367FFF792FB0646FFF72C
S1130EF0CEFBC0F102013046FFF7AAFE012100201B
S1130F0000F092F9FFF732FFFFF792FE25B9032CA8
S1130F1002D10122714B9A6270BD4FF400226E4BD4
S1130F2003265A66012203F540539D6A03F5805354
S1130F30C5F340059A62C5E700250126C2E70025EE
S1130F4040F277516648FFF7A1FB2E46BAE7002529
S1130F500226B7E7022C07D00F2C0ED040F2BC516A
S1130F605F48FFF793FB0024584AD2F8803123F0FE
S1130F7003031C43C2F88041CEE70124F4E7032CA9
S1130F8012D0052C12D0022C12D040F2F351544846
S1130F90FFF77CFB00224D49D1F8203123F00303F5
S1130FA01343C1F82031B7E70222F4E70122F2E744
S1130FB00322F0E7A1F10804082C33D8DFE804F099
S1130FC0050532051C32323205004FF480323F4BA6
S1130FD04449586E03F580535A660B6A43F0010383
S1130FE00B62C1035CBF404B5A664FF0E0221369A9
S1130FF023F0040313618FE74FF48032334B3949F4
S1131000586E03F580535A660B6A23F001030B6292
S1131010C3035CBF344B5A664FF0E022136943F0BC
S11310200403E7E740F21B61BDE870402C48FFF77A
S11310302DBB40F237612A48FFF728FB00210AE75D
S113104040F252612648FFF721FB00211EE740F2DF
S113105077612348FFF71AFB0021E5E6083C062CDC
S113106013D8DFE804F00419190E1212100002223A
S11310701649D1F8003223F007031343C1F80032B4
S11310804AE70322F4E70422F2E740F297611448A6
S1131090FFF7FCFA0022EBE70122E9E702220B4901
S11310A0D1F8003123F003031343C1F8003133E7CF
S11310B00322F4E740F2D3610948FFF7E7FA00227C
S11310C0EDE70122EBE700BFF427000000800040B9
S11310D0F0270000F02700000090004000E00040EE
S11310E0A427000000C0074000A000400F2C10D02F
S11310F0102C10D040F219711348FFF7C7FA0022E0
S11311001249D1F8203223F003031343C1F82032EB
S113111002E70122F4E70222F2E7083CE4B2032CDE
S11311200AD80B4B195D094AD2F8403223F0030365
S11311300B43C2F84032EFE640F273710248FFF706
S1131140A5FA0021EFE700BFA427000000800040BB
S1131150F0270000EFF3108072B6704700B962B652
S11311607047EFF31180302383F31188704780F3C5
S113117011887047704700002DE9F0414FF040237B
S11311800446D3F88420D006FBD4D3F88430C3F3C8
S113119081139C423FD0FFF721FA012C05460BD165
S11311A01E4B984204D940F2F9611D48FFF76EFACC
S11311B001212846FFF74CFDFFF7CCFF4FF00072EA
S11311C0184B07465A662046FFF7D4FF4FF4806356
S11311D04FF04026621E9340DFF844803367736EFD
S11311E09A0103D4D6F884309B060AD53846FFF713
S11311F0B5FF022C0FD12846BDE8F0410021FFF7CE
S113120027BDD6F884309906E9D540F207714046E7
S1131210FFF73CFAE3E7BDE8F08100BF005A620241
S1131220FA2700000060004007B518B90191FFF7E4
S1131230D5F90199064B1B7843B1064B984205D862
S1131240012003B05DF804EBFFF796BF0220F8E736
S113125044110020005A6202C36C0B42FCD1704757
S113126008B543680246DB0714D50A2350210363FB
S1131270FFF7F2FF136C9907FCD1936A0121104622
S11312809362FFF7E9FF136C1B0604D4012302F5F4
S11312900052536008BD536BF5E7000010B50446D7
S11312A0FFF7DEFF002341F202020849E360A36076
S11312B0226104F50052E3616361A3612362636206
S11312C0E362A3645164A36210BD00BF7F370C01C5
S11312D038B5154B044698420D4604D040F25D11D2
S11312E01248FFF7D3F925B92046BDE83840FFF787
S11312F0B7BF012204F580535A6040F2FF712046C3
S113130005F00F02FFF7A8FF22637821FFF7A4FF7F
S113131005F001036A0748BF43F00203226C02F0A0
S113132003029A42FAD138BD0000034A462800005D
S1131330036C1B06FCD5406BC0B27047036C5B06A4
S1131340FCD5C16370470000F8B506460C46174645
S113135022B940F202214148FFF798F9404B9E42DE
S113136078D040F205213D48FFF790F944B93B4855
S11313704FF45571FFF78AF92046FFF78DFB0446B9
S11313807368012B04D040F237213448FFF77EF90B
S1131390B16801F0E001402946D009D8B9B120294B
S11313A038D040F27921BDE8F8402C48FFF76EB9F7
S11313B0602945D08029F4D107EB4703A34204D91F
S11313C040F273212548FFF761F9012308E0B7EBE8
S11313D0141F04D940F25F212048FFF757F9102366
S11313E07B436401B4FBF3F31E4D203BB5EBC30F09
S11313F04FEAC30404D24FF421711848FFF746F9A9
S113140030462C400121FFF727FFB462BDE8F840C5
S1131410FFF722BFB7EBD40F04D94FF419710F486B
S1131420FFF734F90823DBE70625B4FBF5F3BB42E9
S113143004D240F269210948FFF728F92B46CFE787
S1131440B7EB940F04D940F26E210448FFF71EF95C
S11314500423C5E7002C93D138208EE746280000EA
S11314600000034AF8FF7F00436870B504460D4648
S113147016461BB140F2FF71FFF7EEFE2046FFF760
S11314800DFFE9896B7B22690B43298A22F44C52B4
S11314900B4322F0030213432361A2682B7B297EB2
S11314A022F0804222F0E2020B4313436A691343A1
S11314B0A360AB681BB9A36843F00043A360EB6966
S11314C0002B52D0A268197A42EA8152A260A26823
S11314D0997A42EA4142A2609A88A16802F4C04221
S11314E00A43A260A268597842EA8102A260A26813
S11314F0597B42EAC102A260A268997B42EA0112C6
S1131500A260A268997842EA8122A260DA79997984
S1131510520242EA8122E2601A7802F0FD010129B6
S113152008BFE168A2F1020204BF41F00401E160D6
S1131530012A4FF0010294BF20492149C1F8C0207B
S11315405A7A04F580510A621AB1E26842F40062E0
S1131550E260DA7A4AB1E26842F40042E2601B7B5C
S1131560184A03F00F03C2F8803036B196F82030E1
S113157004F58051ABB101238B6105212046FFF7AF
S1131580A7FEAA681AB120466968FFF7DDFE204667
S11315902978FFF79DFE236CDB4313F4405FFAD1F7
S11315A070BD626996F8223096F8210022F0090293
S11315B00343134343F001034B61DEE700D40340CC
S11315C000E403400090034038B5114B05469842AF
S11315D00C4603D070210F48FFF758F81CB972214C
S11315E00C48FFF753F8237B802B03D1762109485D
S11315F0FFF74CF8637B032B03D979210548FFF7E8
S113160045F821462846BDE838400022FFF72CBFA4
S11316100000034A4628000038B50D460446D8B1F8
S113162001281CD002281CD0032803D10C23EB4032
S1131630DB0704D440F22B410B48FFF727F8302096
S1131640012141F21003444304F1804401FA05F5F9
S113165004F57034E55038BD40F2FF13E7E71F236B
S1131660E5E7FF23E3E700BF9528000038B50D4602
S11316700446D8B101281CD002281CD0032803D169
S11316800C23EB40DB0704D44FF47F710B48FEF7C7
S1131690FDFF3020012142F21003444304F1804451
S11316A001FA05F504F57034E55038BD40F2FF1336
S11316B0E7E71F23E5E7FF23E3E700BF95280000E2
S11316C070B5054614460E46FFF744FD296881EAC5
S11316D0040202EA06044C402C60BDE87040FFF7A7
S11316E03DBD0000F8B50D4616461F46044658B3E6
S11316F001282CD002282CD0032803D10C22EA4044
S1131700D30704D44FF4B0711B48FEF7BFFF26B1D2
S113171029462046FFB1FFF77FFF3023072D4FF006
S11317200F0104FB03F319D8A80006FA00F2814064
S113173012481844FFF7C4FFE6B929462046AFB162
S1131740BDE8F840FFF768BF40F2FF12D7E71F2259
S1131750D5E7FF22D3E7FFF789FFDEE7A5F108000D
S1131760800006FA00F281400548E2E7BDE8F8404F
S1131770FFF77CBFF8BD00BFE228000004C00340AF
S11317800CC00340022A10B54FF0000405D9033AF7
S1131790022A0CD90360047110BD11F4000218BFB1
S11317A04FF07F4221F07F4313430C0EF2E721F008
S11317B0FF03CCB2EEE708B5D1F88020D1F884104D
S11317C002F00702FFF7DEFF08BD83691B06FCD5A4
S11317D0406AC0B27047FEE790F8243070B5054601
S11317E00C468E18E3B9A6420AD095F82630002B91
S11317F0F9D028462B6814F8011B98470028F2D02A
S113180070BD95F826305BB123780A2B03D10D21E6
S113181028462B68984728462B6814F8011B9847DC
S1131820A642EED1ECE710B50446FFF79AFCA26994
S1131830236A9A4203D2FFF79AFC012010BDFFF7F6
S113184096FC0020FAE7000073B504460D46FFF746
S113185088FC94F8253006466BB1132D07D100237C
S113186084F8263002B0BDE87040FFF780BC112D2B
S113187001D10123F4E7A269236A9A4204D34FF405
S1131880B2711A48FEF702FF6369E2693046D55423
S1131890A26963690132A261226A013393426361DE
S11318A004BF00236361FFF762FC00F047F90238CC
S11318B0012809D8D4F8800000F050F920B14FF481
S11318C0B8710A48FEF7E2FEA269236A9A420BD174
S11318D01323012220460DF107018DF80730FFF78D
S11318E07BFF002384F8273002B070BD2F2900004D
S11318F0D0F8283110B59B6904461B0612D5FFF7B2
S113190092FF48B1D4F82801FFF75FFF0146204653
S1131910BDE81040FFF798BFD4F82821D36C23F01A
S11319200403D36410BD000010B50446FEF770FE36
S11319304FF47A729042B0FBF2F105D23621BDE841
S113194010400C48FEF7A2BE0B4BB3FBF1F30B495E
S1131950884201D93C21F2E702FB04F0B0FBF3F02A
S1131960022806D9BDE810400323B0FBF3F000F0D1
S113197007B810BD9029000040420F00E7CD9A3B04
S1131980013800D0FCE7704710B50C46FFF7E9FBBF
S113199004F0F003B02B24D005D8A02B14D0FFF70B
S11319A0E6FB002010BD04F0E003C02BF7D1134B7D
S11319B014F0010FD3F8282314BF22F4803222F04C
S11319C00102C3F82823EAE70C4B14F0010FD3F803
S11319D0202314BF22F4803222F00102C3F8202312
S11319E0DDE7064B14F0010FD3F8242314BF22F4CF
S11319F0803222F00102C3F82423D0E700C0034060
S1131A0010B50446FFF7ADFB08226369DA60FFF7FF
S1131A10AEFB002010BD73B50D460646FFF7A1FBD3
S1131A20044671696846FFF7C6FE009B20462B807A
S1131A30FFF79DFB002002B070BD10B50446FFF710
S1131A4090FB4FF48072636903F500539A6294F932
S1131A501C30002B11DB012203F01F015B099B00EA
S1131A6003F160438A4003F56143C3F88021C3F85E
S1131A708020BFF34F8FBFF36F8FFFF778FB0020F9
S1131A8010BD000038B54FF0FF35084C013528462D
S1131A90FEF766FD4369A342F8D1284600F00AF830
S1131AA0034B04F50054636238BD00BF0040004A94
S1131AB08F330F80002373B5ADF80630FEF750FD69
S1131AC00446D0E908560DF10601FFF7A4FFA06A09
S1131AD048B91DB131460DF10600A8472046FFF76D
S1131AE08FFF02B070BD94F82D30BDF8061020F8B9
S1131AF0131094F82C20013A934203D0013384F854
S1131B002D30EBE70DB13146A8472046FFF795FF8E
S1131B102046E17FFFF738FF002384F82D30A377B8
S1131B20DFE708B54FF0E0231B6900F019FC01283A
S1131B3003D0BDE8084000F095BC08BD08B500F02E
S1131B400FFC38B1022804D0034B1868431E5842D6
S1131B50584108BD0320FCE74811002013B550B3D9
S1131B60EFF305834BB1002401A9019400F066F959
S1131B70012814D06FF0020014E0EFF3108313B9BE
S1131B80EFF311831BB10D4B1B68022BEBD0002329
S1131B901A46194600F0BCF8012802D0EAE7019B76
S1131BA013B9002002B010BD4FF0E0234FF0805273
S1131BB0C3F8042DF5E76FF00300F3E748110020A4
S1131BC040F674110148FEF761BD00BFE82900002A
S1131BD043689A684B608A609A68516099600368A8
S1131BE0086101330360704730B50C68631C0AD187
S1131BF003695A684A6091608B60596003680861A0
S1131C000133036030BD00F10802134652681568C1
S1131C10A542FAD9EDE70369D0E901128A6051605F
S1131C205968814208BF5A60002202611A68013A69
S1131C301A6018687047F8B51546026C0446866B3E
S1131C4052B9076847BB806800F09AFB0546A76055
S1131C5001362846A663F8BD65B9406800F0EAFC81
S1131C606368226C1344A26863609342F0D32368D0
S1131C706360EDE7C06800F0DDFC226CE36851426C
S1131C809B1A2268E36093423EBFA3685B18E3603B
S1131C90022D01D116B1013E0025D9E73546D7E71B
S1131CA070B5044600F0B8FB94F8455004F12406DE
S1131CB06DB2002D14DCFF2384F8453000F0BAFB2C
S1131CC000F0AAFB94F8445004F110066DB2002D04
S1131CD012DCFF2384F84430BDE8704000F0AABB56
S1131CE0636A002BE7D0304600F0B0FA08B100F088
S1131CF031FB013D6DB2DCE72369002BE9D03046AE
S1131D0000F0A4FA08B100F025FB013D6DB2DEE756
S1131D102DE9F04385B00F461E460446019220B9D2
S1131D2040F219314448FEF7B1FC37B9236C23B1B2
S1131D3040F21A314048FEF7A9FC022E07D1E36BAA
S1131D40012B04D040F21B313B48FEF79FFC00F00E
S1131D5007FB30B9019B23B140F21E313648FEF730
S1131D6095FC4FF00008C14600F056FBA26BE36BF4
S1131D709A4201D3022E13D1324639462046FFF748
S1131D805AFF636A1BB104F1240000F05FFA08B142
S1131D9000F036FB00F04EFB012005B0BDE8F083F7
S1131DA0019D1DB900F046FB0020F6E7B8F1000FD5
S1131DB002D102A800F08CFA00F03CFB00F0D2F84B
S1131DC000F02AFB94F84430FF2B08BF84F84490B9
S1131DD094F84530FF2B08BF84F8459000F02AFBA7
S1131DE001A902A800F080FAF8B900F015FBA26B73
S1131DF0E36B9A420FD100F01DFB019904F110002E
S1131E0000F00AFA2046FFF74BFF00F047F948B903
S1131E1000F0F6FA06E000F00DFB2046FFF740FF65
S1131E2000F03CF94FF001089EE72046FFF738FF29
S1131E3000F034F9B8E700BF4B2A0000F8B50E46AD
S1131E40044620B94FF493612048FEF71FFC236C2D
S1131E5023B140F29C411D48FEF718FC236833B9B6
S1131E60A36823B140F2A1411848FEF70FFC00F02B
S1131E7041FBA36BE26B07469A4225D994F84520AF
S1131E800133FF2A55B2A36312D1636A0BB901244B
S1131E9009E004F1240000F0D9F90028F7D0002E5D
S1131EA0F5D001243460384600F02FFB2046F8BDFD
S1131EB07F2D04D14FF4A4610448FEF7E7FB0135FC
S1131EC06DB284F84550E2E70024ECE74B2A0000A9
S1131ED0F8B50446144B154E1D6830680F4604309F
S1131EE0FFF799FE631C07D137B1316810480431FC
S1131EF0BDE8F840FFF76CBE33682C195C6007D36B
S1131F000C4B18683168BDE8F8400431FFF76CBE2B
S1131F10094B186831680431FFF766FE074B1A68ED
S1131F20A24288BF1C60F8BDFC1500204C110020A3
S1131F30E81500205411002050110020C415002081
S1131F40064A13681968064B19B94FF0FF321A6034
S1131F5070471268D2681268F9E700BF5011002078
S1131F60C4150020024A136801331360704700BF90
S1131F70BC1500203D4B2DE9F74F1B68002B6ED19B
S1131F803B4B1D6801351D609DB93A4C23681B68A5
S1131F9023B140F6C9213848FEF778FB374B226855
S1131FA0196821601A60364A136801331360FFF719
S1131FB0C7FF344E00243368334F9D42DFF8D4808A
S1131FC011D21422D8F80030DB6A5343FB58022B99
S1131FD02E4B28BF01241B68002B18BF0124204668
S1131FE003B0BDE8F08FDFF88C90DFF8ACA0D9F82F
S1131FF000301B681BB94FF0FF333360E1E7D9F8B9
S11320000030DB68D3F80CB0DBF80420954201D231
S11320103260D6E70BF1040108460191FFF7FBFD9E
S1132020DBF82820019922B10BF11800FFF7F3FD2A
S113203001991423DBF82C00DAF80020904288BFC1
S1132040CAF8000003FB0070FFF7C2FDD8F80010C7
S1132050DBF82C20CB6A9A4228BF0124C7E70C4A3C
S11320600024136801331360B9E700BFBC150020D6
S1132070FC15002050110020A42A00005411002057
S1132080C8150020C4150020581100200016002097
S1132090CC1500204C110020C0150020F7B52B4CA6
S11320A0236823B940F6B6012948FEF7EFFA00F099
S11320B0B3F92368013B236024682CB1002400F0A9
S11320C0B9F9204603B0F0BD224B1B68002BF5D0B4
S11320D0214D224E224F1EE0EB68DC6804F118000B
S11320E0FFF799FD211D08460191FFF794FD142087
S11320F0E36A326800FB03709342019988BF33603E
S1132100FFF766FD174BE26A1B68DB6A9A4202D34B
S11321100122154B1A602B68002BDDD10CB1FFF79F
S11321200FFF124D2C6844B101270F4EFFF722FF19
S113213000B13760013CF9D12C600B4B1B68002BBC
S1132140BCD000F05DF90124B9E700BFBC15002044
S1132150A42A0000B8150020D0150020C0150020C6
S1132160581100204C11002000160020CC1500202E
S1132170234B2DE9F0411A68224B1AB101221A604F
S1132180BDE8F081204E1A6033681B6B1A68B2F107
S1132190A53F0BD15A68B2F1A53F07D19A68B2F1B5
S11321A0A53F03D1DB68B3F1A53F04D030683168A3
S11321B03431FFF705FD154F154D3C68DFF85480A9
S11321C014236343E958EA1889B15168083349680C
S11321D02B44994208BF4B68516008BF53601423D5
S11321E003FB04556B68DB6833603C60C8E724B9C3
S11321F040F604414046FEF749FA013CE0E700BFDF
S1132200BC150020001600204C110020C015002031
S113221058110020A42A000038B50D46044620B900
S113222040F61E410748FEF731FA074B204619686D
S11322301831FFF7D9FC2846BDE838400121FFF7E3
S113224047BE00BFA42A00004C110020C36813B588
S1132250DC6824B940F67D411648FEF717FA04F10C
S1132260180108460191FFF7D6FC134B01991B682E
S1132270F3B9211D08460191FFF7CDFC0F4AE36A2B
S11322801068019983424FF0140088BF13600C4A10
S113229000FB0320FFF79CFC0A4BE26A1B68DB6A25
S11322A09A4289BF01200020074B186002B010BD7C
S11322B00648EFE7A42A0000BC150020C015002042
S11322C0581100204C11002000160020D0150020C9
S11322D0034B1B680360034B1B684360704700BFDC
S11322E0C8150020FC15002070B50D46044620B921
S11322F040F6F8411448FEF7C9F925B940F6F9410A
S11323001148FEF7C3F900F087F8104B19682B68E1
S11323105A1C17D00E48266800686268864208D0A6
S11323208A4206D8002301242B6000F083F820465B
S113233070BD881A8342F5D95B1A134420462B607A
S1132340FFF7C6FF0024F0E7A42A0000FC150020D4
S1132350C81500200122014B1A60704700160020A6
S1132360054B1B6833B1054B1B68002B0CBF0220C7
S11323700020704701207047E4150020BC150020A0
S113238013B5044610B9002002B010BD184B1B68E9
S1132390834204D041F24A011648FEF777F9E36C10
S11323A023B941F24B011348FEF770F9E36CE16A7B
S11323B0A26C013B9142E364E5D0002BE3D1211DE3
S11323C008460191FFF727FCA36C0199C3F1380279
S11323D0A261094AE362106883424FF0140088BF87
S11323E01360064A00FB0320FFF7F2FB0120CBE752
S11323F04C110020A42A0000C01500205811002010
S11324004FF0E0234FF08052C3F8042DBFF34F8FF9
S1132410BFF36F8F7047000008B500F06BF8044AF3
S1132420136801331360BFF34F8FBFF36F8F08BD81
S11324304410002010B5094C236823B940F2ED2163
S11324400748FEF723F92368013B2360206818B985
S1132450BDE8104000F059B810BD00BF4410002082
S1132460FD2A000010B500F045F80446FFF782FD90
S113247028B14FF0E0234FF08052C3F8042D2046DA
S1132480BDE8104000F041B8836913F8023C022B08
S11324900FD14FF0E023D3F8882D42F47002C3F833
S11324A0882DD3F8342F42F04042C3F8342F00F083
S11324B007B840F277310148FEF7E8B8FD2A00007A
S11324C00B4A1168086806C881F30B88022181F35E
S11324D01488203080F30988BFF36F8F4FF0000019
S11324E080F31188104700BFAFF30080AFF3008082
S11324F04C110020EFF311804FF0300181F311886B
S1132500BFF34F8FBFF36F8F704780F31188BFF312
S11325104F8FBFF36F8F7047000000000000000072
S1132520EFF309801EF0100F08BF20ED108AEFF3BF
S11325300B82734620E9FC0F114A116808604FF0C2
S1132540300080F31188BFF34F8FBFF36F8FFFF715
S11325500FFE4FF0000080F31188094A11680868E3
S1132560B0E8FC0F13F0100F08BFB0EC108A82F330
S11325700B8880F309881847AFF30080AFF300801D
S11325804C110020000000000000000000000000CA
S11325901EF0040F0CBFEFF30880EFF30980044929
S11325A0084700BFAFF30080AFF30080AFF30080B3
S11325B08924000008B5074B044613B1002100E04C
S11325C000BF054B1868836A03B198472046FFF79C
S11325D002F900BF000000007C2B000070B50D4D17
S11325E000260D4C641BA410A64209D10B4D0026F5
S11325F00B4C00F0ADF8641BA410A64205D170BDCD
S113260055F8043B01369847EEE755F8043B01368C
S11326109847F2E7AC100020AC100020AC1000206A
S1132620B0100020024B0146186800F019B800BF32
S1132630481000200A44431E914200D1704710B54F
S113264011F8014B914203F8014FF9D110BD024436
S11326500346934200D1704703F8011BF9E70000D9
S1132660F8B5CD1C064625F0030508350C2D38BFFA
S11326700C25002D01DBA94203D90C233360002073
S1132680F8BD00F059F821490A6814469CB9204F56
S11326903B6823B92146304600F03CF838602946AF
S11326A0304600F037F8431C23D10C233046336006
S11326B000F048F8E3E723685B1B17D40B2B03D91E
S11326C023601C44256004E06368A2420CBF0B60D5
S11326D05360304600F036F804F10B00231D20F05F
S11326E00700C21ACCD01B1AA350C9E7224664685B
S11326F0CCE7C41C24F00304A042E3D0211A3046E2
S113270000F008F80130DDD1CFE700BF0416002047
S11327100816002038B50023054D044608462B60F2
S1132720FDF7A4FF431C02D12B6803B1236038BD1D
S113273010160020704770470148FFF7FBBF00BF29
S11327400C1600200148FFF7F6BF00BF0C1600204E
S1132750F8B500BFF8BC08BC9E467047F8B500BF8A
S1132760F8BC08BC9E4670477631003030303030BB
S11327703030303030303030303030303030303055
S113278030303000050000000000000000C20100ED
S11327900002000000100000000000000000000023
S11327A000000000433A2F55736572732F64756EF1
S11327B067632F53696D706C6963697479537475B9
S11327C064696F2F53444B732F6765636B6F5F733B
S11327D0646B312F706C6174666F726D2F656D6CF4
S11327E069622F7372632F656D5F636D752E63006D
S11327F002010103030206010504433A2F557365E0
S113280072732F64756E67632F53696D706C69639F
S113281069747953747564696F2F53444B732F67CC
S113282065636B6F5F73646B312F706C6174666F7B
S1132830726D2F656D6C69622F7372632F656D5FA6
S1132840656D752E6300433A2F55736572732F645B
S1132850756E67632F53696D706C6963697479531E
S1132860747564696F2F53444B732F6765636B6F83
S11328705F73646B312F706C6174666F726D2F655A
S11328806D6C69622F7372632F656D5F657573611B
S113289072742E6300633A5C75736572735C64755D
S11328A06E67635C73696D706C6963697479737462
S11328B07564696F5C73646B735C6765636B6F5F8E
S11328C073646B315C706C6174666F726D5C656DA2
S11328D06C69625C696E635C656D5F6770696F2EBD
S11328E06800433A2F55736572732F64756E67637E
S11328F02F53696D706C6963697479537475646975
S11329006F2F53444B732F6765636B6F5F73646BF7
S1132910312F706C6174666F726D2F656D6C6962B6
S11329202F7372632F656D5F6770696F2E63004349
S11329303A2F55736572732F64756E67632F5369ED
S11329406D706C696369747953747564696F2F531E
S1132950444B732F6765636B6F5F73646B312F70C8
S11329606C6174666F726D2F736572766963652F1F
S1132970696F73747265616D2F7372632F736C5F0B
S1132980696F73747265616D5F756172742E630033
S1132990433A2F55736572732F64756E67632F53B3
S11329A0696D706C696369747953747564696F2FA8
S11329B053444B732F6765636B6F5F73646B312F85
S11329C0706C6174666F726D2F736572766963657E
S11329D02F7564656C61792F7372632F736C5F75E7
S11329E064656C61792E6300433A2F557365727385
S11329F02F64756E67632F53696D706C69636974B6
S1132A007953747564696F2F53444B732F676563EF
S1132A106B6F5F73646B312F7574696C2F746869A5
S1132A2072645F70617274792F6672656572746F17
S1132A30732F636D7369732F536F757263652F639F
S1132A406D7369735F6F73322E6300433A2F55734E
S1132A506572732F64756E67632F53696D706C694B
S1132A606369747953747564696F2F53444B732F7E
S1132A706765636B6F5F73646B312F7574696C2F5B
S1132A8074686972645F70617274792F66726565C7
S1132A9072746F732F6B65726E656C2F71756575CB
S1132AA0652E6300433A2F55736572732F64756EF8
S1132AB067632F53696D706C6963697479537475B6
S1132AC064696F2F53444B732F6765636B6F5F7338
S1132AD0646B312F7574696C2F74686972645F70EC
S1132AE0617274792F6672656572746F732F6B658A
S1132AF0726E656C2F7461736B732E6300433A2F8F
S1132B0055736572732F64756E67632F53696D70A7
S1132B106C696369747953747564696F2F53444B9A
S1132B20732F6765636B6F5F73646B312F757469A3
S1132B306C2F74686972645F70617274792F667245
S1132B40656572746F732F6B65726E656C2F706F31
S1132B50727461626C652F4743432F41524D5F434A
S1132B604D33335F4E545A2F6E6F6E5F73656375CA
S1132B7072652F706F72742E630000004C10002079
S1132B800000000000000000000000000000000041
S1132B900000000000000000000000000000000031
S1132BA00000000000000000000000000000000021
S1132BB00000000000000000000000000000000011
S1132BC00000000000000000000000000000000001
S1132BD000000000000000000000000000000000F1
S10B2BE0A0D5FF7F01000000F5
S1132BE800000000040000000C00000000000000C9
S1132BF8000000000040004A00002A0030000000E5
S1132C0800000000000000000000000000000000B8
S1132C18C0EA2101C0EA210100F049020080000055
S1132C2818160020AAAAAAAA4C1000200000000026
S1132C38A02B0000C02B0000802B00000000000027
S1132C480000000000000000000000000000000078
S1132C580000000000000000000000000000000068
S1132C680000000000000000000000000000000058
S1132C780000000000000000000000000000000048
S1132C8800000000000000000000000065010000D2
S1072C9841010000F2
S90305896E
