:100000000010002075060000730600007306000053
:1000100073060000730600007306000073060000FC
:1000200073060000730600007306000073060000EC
:1000300073060000730600007306000073060000DC
:1000400073060000730600007306000073060000CC
:1000500073060000730600007306000073060000BC
:1000600073060000730600007306000073060000AC
:10007000153000007306000073060000C90500007B
:10008000D50500007306000073060000730600002B
:10009000730600007306000073060000730600007C
:1000A00073060000510800002D08000073060000D0
:1000B000730600007306000073060000730600005C
:1000C000730600007306000073060000730600004C
:1000D000730600007306000073060000730600003C
:1000E000730600007306000073060000730600002C
:1000F000730600007306000073060000730600001C
:10010000650300007306000073060000730600001C
:1001100073060000730600007306000073060000FB
:1001200073060000730600007306000073060000EB
:1001300073060000730600007306000073060000DB
:1001400010B5054C237833B9044B13B1044800E0D3
:1001500000BF0123237010BD981000200000000094
:100160007C4E000008B5034B1BB10349034800E077
:1001700000BF08BD000000009C1000207C4E000065
:10018000A3F5803A704700BF174B002B08BF134BF5
:100190009D46FFF7F5FF00218B460F461348144A92
:1001A000121A03F045FB0E4B002B00D098470D4B65
:1001B000002B00D098470020002104000D000D48BE
:1001C000002802D00C4800E000BF03F00DFB200027
:1001D000290000F0E9F803F0F3FA00BF000008007E
:1001E0000000000000000000001000209810002017
:1001F00060160020000000000000000070477047FB
:10020000F0B5514DA7B008AC0FCD0FC40FCD0FC442
:1002100095E803000026032784E803000124502208
:10022000314612A8CDE9056607968DF80C608DF869
:100230000D608DF80E708DF80F608DF810608DF8E0
:1002400011608DF8126003F0F3FA21462A208DF830
:1002500048408DF84D408DF852408DF857408DF84C
:100260005C408DF861408DF866408DF86B408DF8EC
:1002700070408DF875408DF87A408DF87F408DF88C
:1002800084408DF889408DF88E408DF8934000F0C1
:10029000CDFC21463A2000F0C9FC02214FF4B060A9
:1002A00001F088F80223294D3246284628498DF866
:1002B000173001F0E7FC40F6E44332468DF81900B0
:1002C0000B9300903346284622498DF823708DF811
:1002D000216001F005FD90238DF8493091230A90AB
:1002E00008AA284605A98DF84E308DF80E708DF8B5
:1002F0000D408DF848408DF84C408DF84D408DF8FC
:10030000514001F029FD12AA284603A901F024FC5E
:10031000114BD3F824232243C3F82423D3F82423F6
:1003200042F48032C3F824230C4A05F500535A6284
:100330004FF48032AB6A43F48073AB62084BC3F86E
:1003400084215A6027B0F0BDD04800000040004A28
:10035000002D31018096980000C003408F330F803C
:1003600000E100E073B50D4D0D4ED5F888305B0708
:1003700005D14FF480720B4B5A6202B070BD294612
:10038000684601F071FE009802F0E8FF9DF8044015
:1003900006EBC404C4E90001E7E700BF0040004ADF
:1003A000B81000200060004A2DE9704302F056FEAC
:1003B000FFF724FF1C4B1B68C3F30743012B0ED12F
:1003C0001A4B04205A6E4FF480231949520358BF28
:1003D000184A4B6601F51041086258BF5366FFF793
:1003E0000FFF154D154E164CFFF709FF082303208C
:1003F000EB60D6E9028900F0EFF880B1114920687E
:1004000002F047F900F008F900F007F949464046C4
:1004100003F01EF80C490246206802F03AF90B4836
:1004200002F02AFEE0E700BF0080E00F00800040FD
:100430000090004000A000400040004AB81000209A
:100440001C140020B4480000B948000040420F00CE
:100450007047000030B50A4C0A4B22680A4D1A60FA
:100460000A4B85B02B600A4B019302F0D9F82B6838
:10047000029001A92068039302F008F805B030BD8E
:100480000C1000202C160020281600200010002040
:10049000F848000008B50321802000F08BFF0321FD
:1004A0004FF4806000F086FF03214FF4906000F06D
:1004B00081FF08214FF4C06000F07CFF08214FF459
:1004C000F06000F077FF08213E2000F073FF082164
:1004D0002D2000F06FFF002008BD000008B5134B71
:1004E0001B68C3F30743012B0ED1114B04205A6E36
:1004F0004FF480230F49520358BF0F4A4B6601F552
:100500001041086258BF536602F060F800F0ADF881
:1005100001F0E2FF02F002F802F03EF8FFF7BAFF46
:1005200001F0EAFFBDE8084000F096B80080E00F57
:10053000008000400090004000A0004000F05EB944
:1005400008B500F087F802F0EBFB02F0F3F800F0DA
:1005500039F8BDE80840FFF77DBF704700F05EB88E
:1005600070B5144C92B00BAD0FCC0FC594E80700DA
:10057000032385E8070003AE8DF8453007AD04F18D
:100580000C031C340FCB86E80F0094E80F0085E8BD
:100590000F00094B29460093084833460BAA02F086
:1005A00063FA044618B18721054800F063F9204634
:1005B00012B070BD3C490000A813002004140020B4
:1005C0000B490000FFF7CCBF014B186802F008BBD5
:1005D00004140020FFF7F8BF0B4B02461B788BB1C9
:1005E0000A4B1B78834234BF00200120084B1B7844
:1005F0003BB1084B1B7843FA02F212F0010F08BF1F
:10060000002070470120F1E7101000201110002099
:10061000201400201210002070477047012208B5F6
:10062000074B1A700022074B1A700422064B1A70EF
:100630001F22064B1A7001F0F3FF054B186008BD2E
:100640001010002020140020111000201210002093
:100650001C1400200F20704708B501213A2000F03B
:10066000E5FABDE80840FFF7F3BE01213A2000F0AB
:10067000DDBAFEE708B500F013F8064B064A074955
:100680008B4201D3FFF780FD52F8040B43F8040BB3
:10069000F6E700BF00100020844E000098100020F4
:1006A000044B054A9A60D3F8882042F47002C3F8DC
:1006B0008820704700ED00E000000000014B186842
:1006C000704700BF18100020084B1B6F03F0070392
:1006D000022B04D0032B05D0012B05D0FEE7044BE1
:1006E00018687047034BFBE70348704700800040E1
:1006F000181000201C100020002D310108B5FFF754
:10070000E3FF054B1B6FC3F303330133B0FBF3F07F
:10071000024B186008BD00BF00800040141000208C
:100720000048704700B4C404014B1868704700BF0C
:100730001C100020054B1860054B1B6F03F00703CE
:10074000032B01D1FFF7DABF704700BF1C10002058
:10075000008000400020704700487047002D3101A4
:100760004FF4004070474FF47A707047014B18689F
:10077000704700BF20100020002303607047000076
:1007800038B504460D4601B118B93721034800F0C9
:1007900071F823682B60256038BD00BF78490000E0
:1007A00005490A681318054883428CBF4FF0FF3291
:1007B0000B601046704700BF24100020008000200E
:1007C00070B5044601250C4E04B970BD94FAA4F32B
:1007D000B3FA83F305FA03F206EB031124EA0204E9
:1007E0004A68002AF0D0D8B20B7B13B189689047D1
:1007F000EAE79047E8E700BF2414002008B5192075
:1008000000F0CAFF28B14FF00072074BC3F88021F7
:100810001A601A2000F0C0FF28B14FF08062024B2E
:10082000C3F880211A6008BD00E100E0074BD3F84F
:100830002404D3F8202403F50053104000F0553071
:1008400020F05020C3F82004FFF7BABF00C00340D7
:10085000074BD3F82404D3F8202403F500531040A9
:1008600000F0AA3020F0A020C3F82004FFF7A8BFB2
:1008700000C00340FEE74FF04023D3F88420D206A7
:10088000FBD4D3F88400C0F38110704738B5124B05
:100890000546D3F820310C4603F00303022B0BD09E
:1008A000032B0DD0012B0FD1FFF708FF052305B156
:1008B000286004B1237038BDFFF736FF0323F6E745
:1008C000FFF74AFF0223F2E7044840F6BE71FFF744
:1008D000D1FF00231846EAE700800040C649000027
:1008E000F7B50024114B0194D3F88051074605F069
:1008F0000305012D0E4607D0022D11D041F2E20171
:100900000B48FFF7B7FF04E0214601A8FFF7BEFF41
:100910000F240FB1019B3B6006B1347003B0F0BDF2
:10092000FFF71AFF2C460190F3E700BF008000405C
:10093000C649000038B5194B0546D3F824310C469A
:1009400003F00703013B052B20D8DFE803F0030F7A
:10095000171B0B13FFF7B2FE052305B1286004B186
:10096000237038BDFFF7AAFE0623F6E7FFF7DCFE8B
:100970000323F2E7FFF7D8FE0423EEE7FFF7ECFED0
:100980000223EAE7FFF7E6FE0723E6E7044840F61E
:100990004651FFF76FFF00231846DEE70080004056
:1009A000C649000038B5124B0546D3F840310C4615
:1009B00003F00303022B0BD0032B0DD0012B0FD11F
:1009C000FFF7CEFE092305B1286004B1237038BDBE
:1009D000FFF7CCFE0823F6E7FFF7C5FE0B23F2E78F
:1009E000044840F6EC71FFF745FF00231846EAE79C
:1009F00000800040C649000038B5154B0546D3F8C5
:100A000000320C4603F00703013B032B18D8DFE844
:100A100003F0020A0E12FFF7A3FE092305B12860B6
:100A200004B1237038BDFFF7A1FE0823F6E7FFF7F6
:100A30009AFE0B23F2E7FFF761FE0E23800AEDE733
:100A4000044841F29811FFF715FF00231846E5E727
:100A500000800040C649000038B5124B0546D3F867
:100A600040320C4603F00303022B0BD0032B0DD0B6
:100A7000012B0FD1FFF774FE092305B1286004B1E3
:100A8000237038BDFFF772FE0823F6E7FFF76BFE11
:100A90000B23F2E7044841F22B11FFF7EBFE002392
:100AA0001846EAE700800040C649000038B5124BFE
:100AB0000546D3F860310C4603F00303022B0BD03C
:100AC000032B0DD0012B0FD1FFF74AFE092305B1EF
:100AD000286004B1237038BDFFF748FE0823F6E70D
:100AE000FFF741FE0B23F2E7044841F21A01FFF73A
:100AF000C1FE00231846EAE700800040C649000016
:100B000010B40F4C0B46D4F8204204F00304012C1F
:100B10000ED0022C10D008B1002101600BB10022D0
:100B20001A704FF4576107485DF8044BFFF7A2BEF7
:100B30005DF8044BFFF7AABE5DF8044BFFF732BF28
:100B400000800040C6490000B0F5207F10B534D0C9
:100B500009D8B0F5007F2AD003D898B1B0F5C07F8E
:100B600010D0002421E0B0F5607FFAD1154BD3F806
:100B70008030C3F301149B0617D5032C15D04FF416
:100B80001D710FE00F4B1C6F230B13F00E0FC4F3FE
:100B900003340AD0032C08D0072C06D00F2C04D025
:100BA0004FF419710848FFF765FE601C10BD054B36
:100BB000D3F89040C4F30464F7E7024B1C6FC4F30E
:100BC0008024F2E700800040C64900004FF4003264
:100BD0000F4B70B59A66064600200D46FFF7B4FF2E
:100BE00041F671320B4B7043DC690B49DA639A684A
:100BF000884204F4803422F4401203D9012D18BF36
:100C000042F480129A600CB10022DA6370BD00BF1A
:100C10000090004000000340005A620208B5FFF750
:100C20007FFDBDE808400021FFF7D0BF70B5460941
:100C300004460D460FD140F205310D48FFF71AFE6C
:100C4000334604F01F0485B103F58053012000FAF8
:100C500004F41C6070BD012E05D0064B064A022E1E
:100C600018BF1346EDE7054BEBE703F50053EDE73F
:100C7000C6490000688000406082004064800040F7
:100C8000002330B5802885B00446029375D02BD858
:100C9000002878D0A0F12004A3B2412B32D8412CF7
:100CA00030D8DFE804F070737073868686867373BD
:100CB000903FA7653F7373732F2F2F2F2F2F8B57C5
:100CC000737373B1AC732F2F2F2F2F2F2F2F2F2F25
:100CD0002F2F2F702F707070862F2F2F2F2F2F2FC9
:100CE0002F2F2F2F2F2F7070B0F5806F61D024D849
:100CF000B0F5007F54D00BD8B0F5807F68D0B0F548
:100D0000C07F40D040F25A414248FFF7B3FD37E080
:100D1000B0F5607F44D0F5D8B0F5207F36D0B0F57F
:100D2000407FEFD1FFF7EAFC04464FF42070FFF755
:100D30000BFFB4FBF0F0400821E0B0F5C06F59D0D4
:100D40000DD8B0F5A06F39D0B0F5B06F3BD0B0F58D
:100D5000906FD7D1002102A8FFF7ECFD10E0B0F5AD
:100D6000E06F4CD0B0F5F06F4ED0B0F5D06FC9D178
:100D7000002102A8FFF740FE02E0FFF7A5FC029069
:100D8000029805B030BDFFF7B9FCF8E7FFF7B6FCF5
:100D900004464FF42070FFF7D7FEB4FBF0F0EEE707
:100DA000FFF792FC05462046FFF7CEFEB5FBF0F0BC
:100DB000E5E7002102A8FFF769FDE1E7002102A8AD
:100DC000FFF79EFEDCE7002102A8FFF789FDD7E7C9
:100DD00003934FF0E0231B695B0705D5FFF78EFCFB
:100DE0000390039B0293CBE70DF1070103A8FFF7E4
:100DF000D9FDF6E7002102A8FFF7D4FDC0E70021E6
:100E000002A8FFF729FEBBE7002102A8FFF74EFE6C
:100E1000B6E700BFC649000008B58020FFF730FFE5
:100E2000034B98429EBF4FF48032024B1A6708BDB5
:100E3000005A620200A00040002307B5B0F5807F91
:100E40008DF8023000F0888028D8382800F0A8807B
:100E50000CD8243883B2092B10D809280ED8DFE823
:100E600000F0757575750D0D6B0D378F52286DD0AF
:100E700007D83D283CD03E2800F0988040F23651FB
:100E800056E08028FAD14C4B1B6F03F00703013B5F
:100E9000032B4BD8DFE803F048444280B0F5D06F15
:100EA0006ED01BD8B0F5A06F7AD00BD8B0F5806F9C
:100EB0004CD0B0F5906FE1D100200DF10201FFF7A9
:100EC00039FD3EE0B0F5B06F36D0B0F5C06FD5D18A
:100ED00000200DF10201FFF765FD32E0B0F5006F73
:100EE000EAD00BD8B0F5E06F60D0B0F5F06FC5D1A7
:100EF00000200DF10201FFF7D9FD22E0B0F5086FE7
:100F0000BCD12D4BD3F8003103F00303022B3DD0AD
:100F1000032B3FD0012B41D1FFF706FC032300E058
:100F200005238DF802300CE00223FAE740F28C41F1
:100F30002248FFF79FFC04E000200DF10201FFF7BB
:100F4000CFFC9DF8020003B05DF804FB00200DF11A
:100F50000201FFF79BFCF4E701934FF0E0231B69CC
:100F60005B0707D5FFF7CAFB0C238DF803309DF80C
:100F70000330D6E70DF1030101A8FFF713FDF6E7F3
:100F800000200DF10201FFF737FDDAE7FFF7EEFB76
:100F90000823C6E7FFF7DEFB0723C2E70123C0E70C
:100FA00000200DF10201FFF7ABFDCAE700200DF1B3
:100FB0000201FFF751FDC4E700800040C649000070
:100FC00070B5037804460F2B04D940F621216B48F5
:100FD000FFF750FC63780F2B04D940F624216748B3
:100FE000FFF748FCA3780F2B04D940F6272163486C
:100FF000FFF740FCE3780F2B04D940F62A215F4825
:10100000FFF738FC23790F2B04D940F62D215B48DC
:10101000FFF730FC63793F2B04D94FF42361574825
:10102000FFF728FCA3793F2B04D940F6332153481E
:10103000FFF720FCE379032B04D940F636214F4813
:10104000FFF718FC237A032B04D940F639214B48CB
:10105000FFF710FC637B012B04D940F63C21474885
:10106000FFF708FC8020FFF7E7FE03287CD04FF451
:101070000022434B43495A6645F60E030222C1F84B
:101080008030414B9A62012203F580539A628A6D47
:1010900012F48032FBD1637820781B0543EA0063A9
:1010A000A079257C0343E078667C43EA00432079FD
:1010B00043EA0033607943EA80130B618B69E07A7D
:1010C00003F000430343E07943EA8063207A43EA74
:1010D0000063607A43EA0043A07A43EA00238B610D
:1010E000637B096A002B18BF0822207B21F00D01C9
:1010F00043EA010343EA800342EA0302214B1A62F6
:10110000A27B4FEA421230D1986AE17B20F0330093
:1011100042EA0112024342F001029A621B4A996DAF
:1011200032EA0101FBD1022217498A621A659A6DDF
:101130005200FCD41869A27820F4700040EA0250F2
:101140004FF000421861104B9A611DB9022203F55D
:1011500080539A6216B901220D4B9A62A37C1BB18F
:10116000084B0C4AC3F8802070BD996A21F0330106
:1011700031430A4342EA4502EFE700BFC649000097
:101180000090004000C0004000D00040030001403B
:1011900000E00040F1A7FFFF014B93F9000070470A
:1011A0002416002010B583780446072B04D940F696
:1011B0009F312A48FFF75EFBE378032B04D940F602
:1011C000A1312648FFF756FB2378032B04D940F6BC
:1011D000A3312248FFF74EFB94F90130002B04DACB
:1011E00040F6A5311D48FFF745FB4FF480011C4A2E
:1011F000637851664FF4D151022002F5B832516242
:1012000018494F2B48604FF0010028BF4F2301F5CC
:10121000805148601169C903FCD4217843EA012355
:101220005361E378A1781B0143EA012361790B4301
:10123000217943EA41039360E379A1791B0143EAF1
:101240004113617A0B43217A43EA41035360A37A45
:1012500013B16FF4D153536210BD00BFC6490000F3
:101260000090004000100240014B1880704700BF02
:10127000281000200029CCBF01210021FFF7A6BCC7
:10128000B0F5207F10B565D00ED8B0F5007F4FD0F7
:1012900003D800B3B0F5C07F1DD04FF43A71BDE85C
:1012A00010403448FFF7E6BAB0F5607FF5D14C1E28
:1012B000012C06D9042904D040F2CD212D48FFF796
:1012C000D9FA2D4AD2F8803023F0300343EA0413D0
:1012D000C2F8803010BD102901F1FF3404D8274B2B
:1012E00023FA01F1CB0704D440F2A3212148FFF7F0
:1012F000C1FAFFF793FC00F045F84FF48031204B22
:101300001D4A1967136F23F4704343EA04331367CC
:10131000FFF7F4F90446FFF7AEFAC0F102012046E8
:10132000FFF7A8FF00F034F8BDE81040FFF774BDE8
:101330004C1E1F2C04D94FF437710E48FFF79AFA50
:101340000D4BD3F8901021F0F85141EA0461C3F835
:101350009010BFE74C1E012C04D940F2E221054851
:10136000FFF788FA044B196F21F4806141EA842168
:101370001967AFE7C6490000008000401601010070
:101380000090004002214FF42070FFF779BF000069
:1013900008B54FF4C070FFF773FCBDE8084004497E
:1013A00088428CBF022101214FF42070FFF768BFF3
:1013B00080F0FA02B0F5807F70B50C4600F00C8129
:1013C0002CD8382800F0A48111D8243883B2092BF6
:1013D00016D8092814D8DFE810F0E400E400E4008F
:1013E000E40013001300CF001300490053015228FA
:1013F00000F0D78007D83D2853D03E2800F09F81C9
:1014000040F6250122E18028FAD18B1E052B00F23F
:10141000A880DFE803F0A394A6AEA667B0F5D06F6E
:1014200000F02E8132D8B0F5A06F00F0718116D88F
:10143000B0F5806F00F0B580B0F5906FE0D1023C60
:10144000E4B2052C00F21581A84B195DA84AD2F828
:10145000243123F007030B43C2F824316EE0B0F5CA
:10146000B06F00F08980B0F5C06FC9D1083CE4B21C
:10147000032C00F2F0809F4B195D9D4AD2F8403159
:1014800023F003030B43C2F8403157E0B0F5006F7F
:10149000D5D016D8B0F5E06F00F05181B0F5F06FFF
:1014A000AED1083CE4B2032C00F2DC80924B195D13
:1014B0008F4AD2F8603123F003030B43C2F8603146
:1014C0003CE0B0F5086F9BD14C1E072C00F2048164
:1014D000DFE814F007010201090102010201020123
:1014E0000001F600002504260121022000F078F911
:1014F000FFF794FBFFF746FF4FF480317F4B7C4AA8
:101500001967136F23F0070333431367FFF7F6F8E8
:101510000646FFF7B0F9C0F102013046FFF7AAFE18
:101520000121002000F0B4F9FFF732FFFFF774FC4F
:1015300025B9032C02D10122714B9A6270BD4FF480
:1015400000226E4B03265A66012203F540539D6A22
:1015500003F58053C5F340059A62C5E700250126CF
:10156000C2E7002540F277516648FFF783F92E461F
:10157000BAE700250226B7E7022C07D00F2C0ED0C1
:1015800040F2BC515F48FFF775F90024584AD2F881
:10159000803123F003031C43C2F88041CEE70124CD
:1015A000F4E7032C12D0052C12D0022C12D040F2FA
:1015B000F3515448FFF75EF900224D49D1F820312C
:1015C00023F003031343C1F82031B7E70222F4E705
:1015D0000122F2E70322F0E7A1F10804082C33D836
:1015E000DFE804F0050532051C32323205004FF405
:1015F00080323F4B4449586E03F580535A660B6A5C
:1016000043F001030B62C1035CBF404B5A664FF0CD
:10161000E022136923F0040313618FE74FF4803253
:10162000334B3949586E03F580535A660B6A23F0E1
:1016300001030B62C3035CBF344B5A664FF0E022D8
:10164000136943F00403E7E740F21B61BDE8704013
:101650002C48FFF70FB940F237612A48FFF70AF923
:1016600000210AE740F252612648FFF703F9002102
:101670001EE740F277612348FFF7FCF80021E5E61A
:10168000083C062C13D8DFE804F00419190E1212D6
:10169000100002221649D1F8003223F00703134349
:1016A000C1F800324AE70322F4E70422F2E740F2ED
:1016B00097611448FFF7DEF80022EBE70122E9E723
:1016C00002220B49D1F8003123F003031343C1F880
:1016D000003133E70322F4E740F2D3610948FFF712
:1016E000C9F80022EDE70122EBE700BF154A000030
:1016F00000800040114A0000114A000000900040A4
:1017000000E00040C649000000C0074000A00040C3
:101710000F2C10D0102C10D040F219711348FFF785
:10172000A9F800221249D1F8203223F00303134311
:10173000C1F8203202E70122F4E70222F2E7083C76
:10174000E4B2032C0AD80B4B195D094AD2F8403297
:1017500023F003030B43C2F84032EFE640F273710B
:101760000248FFF787F80021EFE700BFC6490000F5
:1017700000800040114A0000EFF3108072B67047FD
:1017800000B962B67047EFF31180302383F31188FC
:10179000704780F31188704738B5C5B23F2D0446B5
:1017A00004D940F21F310748FFF764F8064B64097B
:1017B00053F8240005F01F05E840C04300F0010085
:1017C00038BD00BF1B4A000000E100E04FF040229E
:1017D000D36E017923F030030B43D3667047704713
:1017E0002DE9F0414FF040230446D3F88420D00681
:1017F000FBD4D3F88430C3F381139C423FD0FEF76F
:1018000063FF012C05460BD11E4B984204D940F2D0
:10181000F9611D48FFF72EF801212846FFF72AFD40
:10182000FFF7AAFF4FF00072184B07465A66204692
:10183000FFF7D5FF4FF480634FF04026621E9340C0
:10184000DFF844803367736E9A0103D4D6F884308E
:101850009B060AD53846FFF793FF022C0FD1284686
:10186000BDE8F0410021FFF705BDD6F884309906A8
:10187000E9D540F207714046FEF7FCFFE3E7BDE81B
:10188000F08100BF005A6202674A00000060004019
:1018900007B518B90191FEF717FF0199064B1B78A0
:1018A00043B1064B984205D8012003B05DF804EB24
:1018B000FFF796BF0220F8E725160020005A6202C3
:1018C0004FF0004210B501244AF6CD31144B5A6650
:1018D000144A03F50B2354605A6C1964224078B9FA
:1018E000996811F0010F104903D08C60D86AC007C5
:1018F000FCD501234B6012B10C4B0D4A1A6410BD8C
:10190000D96A0907FCD42021074B59620121A3F5AC
:101910008053996005494B6A9B06FCD5EBE700BFF5
:10192000009000400050094000600940004009401C
:101930003254FFFF4FF0004238B5184B184C5A662E
:10194000012203F50C235A604AF6CD33656C2364FB
:1019500043781540934013434FF04022D363A3686C
:10196000827823F0740343EA0213C278002A14BF7A
:10197000042200221343A3600279837943EA0223FD
:1019800023614279C37943EA022363610078FFF758
:1019900097FF0DB1034B2364012038BD0090004038
:1019A000004009403254FFFF38B50D460446D8B117
:1019B00001281CD002281CD0032803D10C23EB40A3
:1019C000DB0704D440F22B410B48FEF753FF3020D5
:1019D000012141F21003444304F1804401FA05F56A
:1019E00004F57034E55038BD40F2FF13E7E71F23DC
:1019F000E5E7FF23E3E700BFB24A000038B50D4634
:101A00000446D8B101281CD002281CD0032803D1D9
:101A10000C23EB40DB0704D44FF47F710B48FEF737
:101A200029FF3020012142F21003444304F1804495
:101A300001FA05F504F57034E55038BD40F2FF13A6
:101A4000E7E71F23E5E7FF23E3E700BFB24A000013
:101A500070B5054614460E46FFF78EFE296881EAEA
:101A6000040202EA06044C402C60BDE87040FFF717
:101A700087BE0000F8B50D4616461F46044658B30B
:101A800001282CD002282CD0032803D10C22EA40B4
:101A9000D30704D44FF4B0711B48FEF7EBFE26B118
:101AA00029462046FFB1FFF77FFF3023072D4FF077
:101AB0000F0104FB03F319D8A80006FA00F28140D5
:101AC00012481844FFF7C4FFE6B929462046AFB1D3
:101AD000BDE8F840FFF768BF40F2FF12D7E71F22CA
:101AE000D5E7FF22D3E7FFF789FFDEE7A5F108007E
:101AF000800006FA00F281400548E2E7BDE8F840C0
:101B0000FFF77CBFF8BD00BFFE4A000004C00340E1
:101B10000CC003404369DB01FCD4012300F50050F5
:101B200043607047022A10B54FF0000405D9033A0C
:101B3000022A0CD90360047110BD11F4000218BF11
:101B40004FF07F4221F07F4313430C0EF2E721F068
:101B5000FF03CCB2EEE70000F8B5354B04469842DF
:101B60000E46154604D04FF404713248FEF782FE4B
:101B70002046FFF7CFFF33782D4803F00702737834
:101B8000002BB37818BF08214FEA031303F030038A
:101B900043EA0203F27808BF0021002A14BF4FF481
:101BA000807200220B431343C4F880307379E26AD9
:101BB0001B0122F0170203F01003134332790021B6
:101BC00002F0070213432A46E362844224D110291B
:101BD0000ED10122002004F580535A6003460435DB
:101BE0008B421BD1B379A0610BB10823E360F8BD30
:101BF000937817881B0403F480333B43D77805326E
:101C0000002F14BF4FF4003700273B4301F1280792
:101C100044F827300131D8E70021DAE703EB8307E6
:101C2000EF5D17B102FA03F738430133D8E700BF7D
:101C30000040004A4A4B00000F4B10B598420C463A
:101C400004D04FF45A710D48FEF714FE34B92A201F
:101C5000FFF716F8012838BF01200446084804F5AC
:101C6000742404F23F24B4FBF0F4601E7F2828BFE4
:101C70007F20C0B210BD00BF0040004A4A4B0000A8
:101C800040420F0038B5134B0C469842154604D01D
:101C900040F29B311048FEF7EDFD24B94FF4677117
:101CA0000D48FEF7E7FD0D498C4228BF0C461DB9D3
:101CB0002A20FEF7E5FF0546621E1544B5FBF4F049
:101CC000A54228BF00F1FF30032828BF0320C0B27F
:101CD00038BD00BF0040004A4A4B0000005A620273
:101CE000F8B51F46184B0E469842144604D040F2F1
:101CF000D5311648FEF7BEFD26B940F2D63113485D
:101D0000FEF7B8FD124A134D002F08BF1546B54225
:101D100028BF35461CB92A20FEF7B2FF04469DF8BD
:101D2000182040F2FF330132B4FBF2F46A1E14446F
:101D3000B4FBF5F0AC4228BF00F1FF30984228BF59
:101D40001846C0B2F8BD00BF0040004A4A4B000030
:101D500080969800404B4C002DE9F04FB64B04465E
:101D600098420E46154685B003D0D321B348FEF7FE
:101D700081FDB34900222046FFF784FF7379984222
:101D800038BF18465FFA80F82046FFF7C3FE317966
:101D900019B92046FFF750FF0146F3784FEA087261
:101DA0001B0102F0E04203F03003134308043278D1
:101DB00000F4FE0003430AB143F0020372780AB153
:101DC00043F00403B2780AB143F008030027A3608C
:101DD000F388328923617389DFF85C9243EA024316
:101DE000DFF880B223624C4501D1022F06D10123D6
:101DF00004F58054636005B0BDE8F08F00222B78B5
:101E000090489149AE68934218BF0146CDF80080D2
:101E100089480393FFF764FFF2B2824238BF02465B
:101E200004EB0710039B1646826C03F0030C02EAD6
:101E30000B024CEA020295F801C039014FEA8C0C02
:101E40000CF01C0C42EA0C0295F802C04FEA0C3C64
:101E50000CF4E04C42EA0C0295F803C04FEA0C4C3B
:101E60000CF4E02C42EA0C0295F810C04FEA4C5CEE
:101E70000CF4600C42EA0C0295F804C04FEA0C7CAA
:101E80000CF0405C42EA0C028264826C6F48C2F340
:101E90000232013A042A00F28980DFE802F08787E3
:101EA00087030300D0F8842107F1050A002B40F0D6
:101EB000BC8009EB0103986CC0F30230431E012B78
:101EC000624B76D8DFED627AD3F8800180B2494464
:101ED000896C20F4C043C1F3820E01210EF1010C84
:101EE00001FA0CF107EE101A02044FEA8343B8EE30
:101EF000C76AF6EE006A554A48BF43F00043BEF198
:101F0000000F74D1D2F88C1109B207EE101AB8EE96
:101F1000C77A77EE877A95ED037A9FED4E5AB8EE41
:101F2000477AC7EE055AB7EE045A85EE257ADFEDFB
:101F30004A5A67EE277A85EE867A9FED486A27EE41
:101F4000067AB1EE006AB3F1004F07EE867A0BD045
:101F50009FED436A07EE900A77EE065AFAEEE87AAA
:101F6000B0EE467A17EEA57AB5EEC07AF1EE10FA29
:101F7000CABFB1EE477A36EEC77A37EE667AFDEE23
:101F8000C77A17EE901AB1F5003F45DB6FEA53436D
:101F90006FEA43434FEA0A1149F80130C6F30906D4
:101FA00009EB0A125660013714351CE7D0F880217E
:101FB0007AE703280AD1D3F88001D3F88C31000CDA
:101FC0001B1407EE903AF8EEE77A80E70428D3F87E
:101FD00084010BBFD3F88C31D3F88C311B141B1444
:101FE00007BF80B25B00000C03EB4303E9E7D2F8C4
:101FF000901166EE265A09B207EE101AB8EEC77AAB
:1020000077EE677AD2F8881187EEA57A0AB207EEE2
:10201000902AF8EEE77A7CE711F5003FAABFC1F3FA
:10202000110143F400330B43B4E74FF4F571034857
:10203000FEF720FCB2E700BF0040004A4A4B000018
:10204000005A6202404B4C00809698000080E00FDE
:102050000000000000007A4400008043000020449B
:1020600000000049E08F18CF08B5D1F88020D1F8E2
:10207000841002F00702FFF755FD08BD4FF09043B2
:102080005A6812B19A6A002AFAD17047022838B504
:1020900005460C4603D94C210C48FEF7EBFBE378D0
:1020A000627821785B0143EA820322790B4343EA99
:1020B00002130C226A4302F190421363012902BF0A
:1020C000A278034B43F8252038BD00BF964B000093
:1020D000E880034008B54FF090435A6802B960B1F8
:1020E0005B680BB1FFF7CAFF4FF0904130B10120A0
:1020F000074B5860FFF7C2FFC86008BDFFF7BEFF7F
:102100000223CB60FFF7BAFF0122024B5A60F4E7CB
:1021100000100048002000484FF090435B6870B505
:102120000BB1FFF7ABFF0121104B45785960837865
:102130000679002BC37814BF02240024002B14BF9F
:10214000042200224379DB0043EA06132B43234396
:1021500013434FF090429360054B59600378002B76
:1021600014BF0B460223D36070BD00BF002000489F
:10217000001000482DE9F04180460E461F461546E6
:1021800022B94FF4A1713148FEF774FB26B94FF420
:102190002070FEF775FD0646402F2AD009D8A7B15A
:1021A000202F1CD040F28911BDE8F0412748FEF7EE
:1021B00061BB602FF6D1B5EB960F04D940F28311C5
:1021C0002248FEF757FB04241DE0B5EB161F04D987
:1021D0004FF4BA711D48FEF74DFB102413E0B5EB28
:1021E000D60F04D940F279111848FEF743FB0824B2
:1021F00009E00624B6FBF4F3AB4204D24FF4BF71FE
:102200001248FEF737FB6C43610801EB4616B6FB3C
:10221000F4F40F4E203CB6EBC40F4FEAC40504D2D1
:102220004FF4D0710948FEF725FBD8F80830354047
:1022300023F06003C8F80830D8F808301F43C8F806
:102240000870C8F81C50BDE8F08100BFE24B0000E8
:10225000F8FF7F0038B50E4B044698420D4608D073
:1022600003F58043984204D040F2BE210948FEF7AE
:1022700001FB012204F580535A60EB43934003F0C5
:102280000A036361656115B904F50054626038BDE5
:1022900000C00540E24B0000194B10B598420446BF
:1022A00008D003F58043984204D040F234411548E9
:1022B000FEF7E0FA012204F580535A6040F6AA6363
:1022C00041F20502636100230F49A360E365E26008
:1022D00004F500522361E361E36491640849A36556
:1022E0008C4202D00948844207D18C42236502D037
:1022F000064B9C4201D1002363650123536010BD4E
:1023000000C00540E24B0000FFFF01000000064056
:10231000444B70B5984204460D4608D003F58043FF
:10232000984204D040F2EF213F48FEF7A3FA20463E
:10233000FFF7B2FF012304F580567360AB7C1BB13D
:10234000A36843F08043A360EB7C5BB1354A2B7DEF
:10235000944245D1A2F51032C2F88C31E36D43F0BE
:102360008003E3652A8A6B7B20461343EA89134383
:10237000E3602B7BD5E90112FFF7FCFE6B7D1BB1FF
:10238000A36843F48033A360AB7D1BB1A36843F41F
:102390000043A360EB7D2A7E1B07120502F4E002D6
:1023A00003F0E0431343A365697E1E4A8B1E012B95
:1023B0001E4B1FD894421BD002F5804294420CBFA2
:1023C00001224FF0FF3203EB4213022041F21C6264
:1023D0000329985020D10423F3652B78636170BDE5
:1023E000134A944204BFA2F52032C2F89C31B5E7EB
:1023F0000022E8E794420DD00D4A94420CBF01221E
:102400004FF0FF3203EB4213022042F21C6201291B
:102410009850DFE70022F5E7042204F50053DA655F
:10242000DBE700BF00C00540E24B000000C00340F6
:102430000000064083691B06FCD5406AC0B27047A5
:1024400083695B06FCD5C1637047002070470000BC
:1024500010B54FF437720021044601F0E9F900236A
:102460008022C4E92323084AC4F894306260012220
:1024700084F898302272C4F8AC3204F19C00BDE8B4
:102480001040FEF779B900BF2F4C000038B50D465B
:102490000446FFF7DDFF6B682046C4F8B032A96838
:1024A00000F00CF84FF0FF332046C4F8B832FFF7C5
:1024B000CCFF10B9012384F8B43238BD10B541B156
:1024C0000A7932B901249C300C71FEF759F9204683
:1024D00010BD0020FCE7000007B56B46054A1068F8
:1024E000516803C36846FFF725FA002003B05DF882
:1024F00004FB00BF324C00004FF0402213B5002413
:10250000536F684643F00103536700948DF804400D
:10251000FFF75CF9204602B010BD000070B586B030
:1025200001AA1546184B03F110061446186859689D
:10253000083303C4B3422246F7D119889B7821801F
:10254000A370124BD3F84C21120314D4D3F850418A
:10255000E4B28DF80E40FEF71FFE204480F3080021
:102560008DF80D000A48FEF7E5F82846FEF728FD2D
:10257000002006B070BD074B1C884FF6FF739C42CD
:1025800008BF8C24E5E700BF3A4C00000080E00F54
:1025900000F049020001E00F1FB50B4A01AB1068C3
:1025A000516803C31189927A19809A70192301A87E
:1025B0008DF80530FEF7F6FD6420FEF755FE00208D
:1025C00005B05DF804FB00BF4D4C00006FF0040245
:1025D000502110B50A480B4C12F0800FD3B21BBF2C
:1025E00003F00F03043BA3181B1802F101020CBFF8
:1025F00083F800131976402AEED1002010BD00BFE9
:1026000000ED00E000E100E010B50446FFF7B4F88B
:10261000024B1C60FFF7B4F8002010BD30160020FC
:1026200010B5FFF7A9F8034B1C68FFF7A9F820467F
:1026300010BD00BF3016002007B530B9CDE900123B
:10264000FFF7EEFFDDE9001230B1436823B1006807
:1026500003B05DF804EB1847232003B05DF804FBDA
:1026600030B51C4685B058B9CDE90012FFF7D8FF48
:10267000DDE9001204B903AC20B9232005B030BD58
:1026800003B903AC8568002DF7D023460068A8473E
:10269000F4E70EB477B507AB53F8046B0546019326
:1026A000B0B9FFF7BDFF044605463046019901F079
:1026B0008BF9AC42064602D02046FFF7A5FF002E5C
:1026C000D4BF3720002003B0BDE8704003B070478E
:1026D000FFF7A6FF85420446E7D02846FFF794FFA0
:1026E000E3E700207047FEE74FF4005300204B6003
:1026F0007047012070470020704707B5002001ABEC
:102700000190FFF7ADFF0198002808BF4FF0FF30A0
:1027100003B05DF804FB000010B500201446FFF77D
:102720008BFF18B1BF210248FEF7A4F8204610BD68
:10273000584C0000034B0222186800238068194699
:1027400001F07EB82C10002080F82410704790F81B
:102750002400704770B504460568FFF761FF8442A6
:1027600002D10020FFF750FF95F92830002B11DB34
:10277000012203F01F015B099B0003F160438A40C3
:1027800003F56143C3F88021C3F88020BFF34F8F66
:10279000BFF36F8F00232846C4E90033C4E9043334
:1027A000A360EB68BDE87040184790F8243070B51E
:1027B00005460C468E18E3B9A6420AD095F8263095
:1027C000002BF9D028462B6814F8011B98470028E5
:1027D000F2D070BD95F826305BB123780A2B03D177
:1027E0000D2128462B68984728462B6814F8011BB2
:1027F0009847A642EED1ECE72DE9F7434FF00009E8
:10280000044690461E46C3F800904F1E3368434569
:1028100005D2FEF7B8FFA269C2B9FEF7BAFF94F875
:1028200027305BB91123012220460DF107018DF8F5
:102830000730FFF7BAFF012384F827303368002BF5
:102840000CBF1B20002003B0BDE8F083E1692269C2
:102850008A5C07F8012F2569226A0135954208BF75
:102860004D46A2692561013AA261FEF792FFA36875
:1028700020469847336801333360C7E708B5FFF750
:1028800094FF002008BD0000F8B51F4653680546B8
:102890000C461646002B3ED09368002B3DD02C22D0
:1028A0000021204600F0C4FF73681D4AE361B3684D
:1028B0002362337B84F82430B37B276084F825308F
:1028C00040F20113E384069B6360079BA360089BAF
:1028D000E36096F9003084F828306A60114A002BD2
:1028E000AA60114A2C602A61104A6A61104AEA60A3
:1028F0000CDB012203F01F015B099B0003F1604325
:102900008A4003F56143C3F880211A602846FFF727
:102910007BFE0020F8BD2220FCE72120FAE700BF63
:102920007D280000F9270000492700004F270000FC
:102930005527000010B50446FEF725FFA269236A5B
:102940009A4203D2FEF725FF012010BDFEF721FFBA
:102950000020FAE773B504460D46FEF714FF94F81D
:10296000253006466BB1132D07D1002384F826309D
:1029700002B0BDE87040FEF70CBF112D01D101235C
:10298000F4E7A269236A9A4204D34FF4B271134860
:10299000FDF770FF6369E2693046D554A269636947
:1029A0000132A261226A01339342636104BF0023B2
:1029B0006361FEF7EEFEA269236A9A420BD11323EC
:1029C000012220460DF107018DF80730FFF7EDFEDB
:1029D000002384F8273002B070BD00BFC24C000055
:1029E000C26AD36C43F00403D364704710B5044645
:1029F000C26A93695906FCD5002394F833101A462D
:102A000094F83200FFF736F8002394F835101A4690
:102A100094F83400FFF72EF894F83A30DA0707D527
:102A2000002394F837101A4694F83600FFF722F87E
:102A300094F83A309B0707D5002394F839101A46CA
:102A400094F83800FFF716F8E06A0021FFF702FC5F
:102A5000208E0021FEF7EAF8002010BD08B5C06AFC
:102A6000FFF7EEFC002008BD2DE9F0411C46574B56
:102A700086B00293564B0127019300230C9D0093CF
:102A80009046CDE903770A46524B2946FFF7FCFEF4
:102A90000646002874D123683946EB62A3883A20A1
:102AA0002B86E37985F83330A37985F83230637A61
:102AB00085F83530237A85F83430E37A85F8373075
:102AC000A37A85F83630637B85F83930237B85F827
:102AD0003830FEF7ABF83B460422E179A079FEF7E7
:102AE000C9FF3B460222617A207AFEF7C3FF3946CE
:102AF000A088FEF79BF888F8006041462068FFF741
:102B000007FC1422A37B5B0103F1804303F57033C0
:102B1000C3F81C26E179A27942EA0142C3F83426BF
:102B2000617A227A42EA0142C3F82C2685F83A609B
:102B300098F81930032B46D8DFE803F01A02264034
:102B4000012385F83A30002500230222E17AA07A99
:102B5000FEF790FFE37AA27AA17B42EA03421E4B82
:102B600049015A500422236803F58053DA6575B988
:102B700020680521C36C43F00403C364FFF76AFBBC
:102B8000304606B0BDE8F081022385F83A300023D4
:102B90000422617B207BFEF76DFF022541F21C6160
:102BA000A27B0E4B03EB42104550607B217BB13280
:102BB00041EA004103EB42139960D9E7032385F80A
:102BC0003A300125C0E72326DAE700BFED290000EF
:102BD000E12900005D2A000024D6034000C0034024
:102BE000C36A10B59B6904461B0610D5FFF7A2FE09
:102BF00040B1E06AFFF71EFC01462046BDE81040E8
:102C0000FFF7A8BEE26AD36C23F00403D36410BDBF
:102C100030B50F4C41612368ABB92060836011E08F
:102C2000891A9A681D4641612AB113465A698A4237
:102C3000F6D955B11A461346A860836013B15A6994
:102C4000511A596130BD0025F0E72060F5E700BF5B
:102C50004C16002010B500F07DF90A4C0A4B19689B
:102C60002368C31A01B10BB9206010BD4A699A42AA
:102C70003ABF9B1A0022D21A4A6128BF00238968F2
:102C8000F0E700BF381600204C16002038B5134D71
:102C90002B685B6993B1124A022014681C4400F04F
:102CA0008DF9204600F05EF900230E492A680B706A
:102CB000D088800709D501230B7038BD022000F0B1
:102CC0007DF9022000F09EF9EEE79268002AF4D028
:102CD00050690344012BEBD9EFE700BF4C160020ED
:102CE000381600204016002000220C490B687BB1EA
:102CF00083420AD183687AB1936083681BB15A69B1
:102D000041690A445A61002070471A469B68EEE701
:102D10000028EFD0022070470B60EEE74C16002031
:102D200070B5FEF730FD144E05463478FCB9134BF0
:102D30001C60134B1C60134B1C8000F0C7F8012073
:102D400000F03CF900F080F90F4B0246186020B902
:102D50002846FEF71EFD232070BD234640F2E731D2
:102D60000A4800F09DFB0A4B186001233370284687
:102D7000FEF70FFD0020EFE7341600204C16002070
:102D800038160020421600204816002018FCFFFFCD
:102D90003C160020C2072DE9F84F04460BD5464AE1
:102DA000138801339BB21380FFF754FF434B1B681A
:102DB0000BB1FFF76BFFA3077CD5FEF7E4FC4FF0E8
:102DC000000A05465646FFF745FFD0463B4FDFF861
:102DD000F4903C680CB163698BB10022384B012E32
:102DE0001A7003D1BAF1020F08BF1E70002C51D027
:102DF000FFF74CFF2846BDE8F84FFEF7CABC234654
:102E00001A792179914288BF1C469B6813B15A698F
:102E1000002AF5D02846FEF7BCFCD4F810A0BAF181
:102E2000000F3BD000F096F8A269851AEB17AA456F
:102E300078EB030333DA236913440122A361236986
:102E4000D3B1CAB9EB17BAEB050563EB4303002B0B
:102E500004DA40F202414846FDF70CFDFEF793FC10
:102E6000824629462046FFF7D3FEA36922695046D1
:102E70001344A361FEF78DFCE368B4F806A00136A5
:102E800013B1204621689847FEF77DFC0546FFF701
:102E9000E1FE9EE7022000F09DF8ABE75546FEF705
:102EA00072FC83462046FFF71FFF5846FEF771FC71
:102EB0000022C4E7BDE8F88F421600204C1600201F
:102EC00044160020224D0000002070471FB500244A
:102ED0001D4B012118689A880290D3F806009B7A4E
:102EE00000903E20ADF80C208DF80430FDF79EFEDA
:102EF0008DF80840FFF7E8FF8DF80C0002A8FFF7F7
:102F00000BF9694601208DF80040FFF7BFF84FF03C
:102F1000904240F2FF31936923F47F7323F003035F
:102F200093610A4B5961936A13F00803FBD1136252
:102F30000120FFF7CFF84FF48052054BC3F88021F2
:102F40001A6004B010BD00BF814D00000020004891
:102F500000E100E04FF090439A6A1207FCD4186A2F
:102F6000704700004FF09042936A1907FCD4136A2F
:102F7000116C5269520604D4CA1A032A01D88B4232
:102F80000ED1C21A022A98BFD81CB0F1FF3F38BF39
:102F900001384FF0904318649A6942F040029A61F8
:102FA000054A13783BB14FF09041CB6B43F00203DD
:102FB000CB630023137070472A10002082074FF064
:102FC000904200F00103916948BF43F040030B4376
:102FD00093617047820700F001030AD50121084A76
:102FE00043F0400311704FF09041CA6B22F003028E
:102FF000CA634FF090418A6922EA03038B617047EC
:103000002A100020830742BF4022014B5A617047BB
:103010000010004810B5FEF7B6FB4FF09043044691
:103020005B695A06074A03F0010003F0510348BFE9
:1030300040F002005361FFF7ADFE2046BDE81040AE
:10304000FEF7A7BB0020004808B53E20FDF718FE9C
:103050000346FFF739FF23FA00F008BD08B5FDF776
:103060003DFAFDF76BFAFDF76BFAFDF776FABDE86E
:103070000840FDF773BA000010B50446FDF73EFBAB
:103080004FF47A729042B0FBF2F105D23621BDE8DE
:1030900010400C48FDF7EEBB0B4BB3FBF1F30B49B3
:1030A000884201D93C21F2E702FB04F0B0FBF3F0C7
:1030B000022806D9BDE810400323B0FBF3F000F06E
:1030C00007B810BD8C4D000040420F00E7CD9A3B81
:1030D000013800D0FCE7704781F0004102E000BFFA
:1030E00083F0004330B54FEA41044FEA430594EAC8
:1030F000050F08BF90EA020F1FBF54EA000C55EA03
:10310000020C7FEA645C7FEA655C00F0E2804FEAD3
:103110005454D4EB5555B8BF6D420CDD2C4480EAB5
:10312000020281EA030382EA000083EA010180EAE5
:10313000020281EA0303362D88BF30BD11F0004F33
:103140004FEA01314FF4801C4CEA113102D0404269
:1031500061EB410113F0004F4FEA03334CEA1333A4
:1031600002D0524263EB430394EA050F00F0A780BC
:10317000A4F10104D5F1200E0DDB02FA0EFC22FAB7
:1031800005F2801841F1000103FA0EF2801843FAAB
:1031900005F359410EE0A5F120050EF1200E012A9C
:1031A00003FA0EFC28BF4CF0020C43FA05F3C018DA
:1031B00051EBE37101F0004507D54FF0000EDCF153
:1031C000000C7EEB00006EEB0101B1F5801F1BD3FC
:1031D000B1F5001F0CD349085FEA30004FEA3C0C00
:1031E00004F101044FEA445212F5800F80F09A80F6
:1031F000BCF1004F08BF5FEA500C50F1000041EBFA
:10320000045141EA050130BD5FEA4C0C404141EBFD
:103210000101013C28BFB1F5801FE9D291F0000FF8
:1032200004BF01460020B1FA81F308BF2033A3F1A7
:103230000B03B3F120020CDA0C3208DD02F1140C9E
:10324000C2F10C0201FA0CF021FA02F10CE002F1D9
:103250001402D8BFC2F1200C01FA02F120FA0CFCD2
:10326000DCBF41EA0C019040E41AA2BF01EB04511B
:10327000294330BD6FEA04041F3C1CDA0C340EDC19
:1032800004F11404C4F1200220FA04F001FA02F35C
:1032900040EA030021FA04F345EA030130BDC4F11A
:1032A0000C04C4F1200220FA02F001FA04F340EA0F
:1032B0000300294630BD21FA04F0294630BD94F0C0
:1032C000000F83F4801306BF81F480110134013DA7
:1032D0004EE77FEA645C18BF7FEA655C29D094EA18
:1032E000050F08BF90EA020F05D054EA000C04BF96
:1032F0001946104630BD91EA030F1EBF0021002081
:1033000030BD5FEA545C05D14000494128BF41F01F
:10331000004130BD14F580043CBF01F5801130BD83
:1033200001F0004545F0FE4141F470014FF000000E
:1033300030BD7FEA645C1ABF194610467FEA655CBF
:103340001CBF0B46024650EA013406BF52EA033561
:1033500091EA030F41F4002130BD00BF90F0000F4F
:1033600004BF0021704730B54FF4806404F132048B
:103370004FF000054FF0000150E700BF90F0000F44
:1033800004BF0021704730B54FF4806404F132046B
:1033900010F0004548BF40424FF000013EE700BF3B
:1033A00042004FEAE2014FEA31014FEA02701FBFCB
:1033B00012F07F4393F07F4F81F06051704732F0FD
:1033C0007F4208BF704793F07F4F04BF41F4002154
:1033D000704730B54FF4607401F0004521F00041B2
:1033E0001CE700BF50EA010208BF704730B54FF03C
:1033F00000050AE050EA010208BF704730B511F03D
:10340000004502D5404261EB41014FF4806404F174
:1034100032045FEA915C3FF4D8AE4FF003025FEAFA
:10342000DC0C18BF03325FEADC0C18BF033202EB7E
:10343000DC02C2F1200300FA03FC20FA02F001FAD8
:1034400003FE40EA0E0021FA02F11444BDE600BF7B
:103450004FEA410212F5001215D211D56FF47873BC
:10346000B3EB625212D94FEAC12343F0004343EA5F
:10347000505311F0004F23FA02F018BF404270473A
:103480004FF00000704750EA013005D111F00040C4
:1034900008BF6FF0004070474FF00000704700BF5A
:1034A00053B94AB9002908BF00281CBF4FF0FF31AB
:1034B0004FF0FF3000F082B9ADF1080C6DE904CE99
:1034C00000F006F8DDF804E0DDE9022304B07047FF
:1034D0002DE9F04F099D04460F46002B48D18A4242
:1034E000944661D9B2FA82F343B1C3F120019F40FF
:1034F00002FA03FC9C4020FA01F10F434FEA1C4101
:103500001FFA8CFE220CB7FBF1F601FB167706FBC7
:103510000EF042EA0742904208D91CEB020206F183
:10352000FF3702D2904200F237813E46121AA4B20F
:10353000B2FBF1F001FB102200FB0EFE44EA024454
:10354000A64508D91CEB040400F1FF3202D2A645BF
:1035500000F21C81104640EA0640A4EB0E0400264F
:103560001DB1DC400023C5E900433146BDE8F08FC2
:103570008B4209D9002D00F0FD800026C5E900012D
:1035800030463146BDE8F08FB3FA83F6002E4BD1BA
:103590008B42C0F0F280824240F2EF803046002D34
:1035A000E3D0C5E90047E0E702B9FFDEB2FA82F3F3
:1035B000002B40F09D80891A4FEA124E97B20126E7
:1035C000200CB1FBFEF20EFB121140EA014107FB99
:1035D00002F088420FD91CEB010102F1FF382CBF29
:1035E0004FF001094FF00009884203D9B9F1000FEB
:1035F00000F0CF804246091AA4B2B1FBFEF00EFBE8
:10360000101100FB07F744EA0144A74208D91CEB5C
:10361000040400F1FF3102D2A74200F2B480084650
:10362000E41B40EA02409BE7C6F12007B34001FAE1
:1036300006F422FA07FCF940B2404CEA030C20FAE7
:1036400007F34FEA1C491C431FFA8CFE00FA06F3ED
:10365000200CB1FBF9F809FB181140EA014108FB05
:103660000EF088420FD91CEB010108F1FF3A2CBF84
:103670004FF0010B4FF0000B884203D9BBF1000F54
:1036800000F08D80D046091AA4B2B1FBF9F009FB15
:10369000101100FB0EFE44EA01418E4507D91CEBD8
:1036A000010100F1FF3401D28E457FD8204640EA67
:1036B0000840A1EB0E01A0FB029841454C46C646CE
:1036C00002D306D14B4504D20138B9EB020468EBB2
:1036D0000C0E002D70D01A1B61EB0E0122FA06F3BE
:1036E00001FA07F7F14000261F43C5E900713CE7E6
:1036F00002FA03FCC3F1200001FA03F221FA00F6FA
:103700004FEA1C4E24FA00F11FFA8CF79C4011433B
:10371000B6FBFEF00A0C0EFB106642EA064200FB06
:1037200007F696420ED91CEB020200F1FF382CBFBF
:103730004FF001094FF00009964202D9B9F1000F8C
:1037400031D04046921B89B2B2FBFEF60EFB162228
:1037500041EA024106FB07F28A4207D91CEB01014C
:1037600006F1FF3801D28A4223D84646891A46EA32
:10377000004625E72E462846F7E6841A61EB030348
:1037800001201F460BE76444023849E764440238CD
:10379000E1E6023A61442EE7023E6244C6E6A8F141
:1037A000020861446FE702386244CBE702386144A3
:1037B0007DE7023E6144D9E72E46D6E6704700BF5A
:1037C00008B5074B044613B1002100E000BF054BCC
:1037D0001868836A03B198472046FEF784FF00BF4C
:1037E00000000000E44D000070B50D4D00260D4CAA
:1037F000641BA410A64209D10B4D00260B4C01F00E
:103800004DF8641BA410A64205D170BD55F8043BC9
:1038100001369847EEE755F8043B01369847F2E742
:103820009010002090100020901000209410002094
:1038300002440346934200D1704703F8011BF9E7A5
:103840002DE9F7431D465C4B04460E461F68904623
:1038500027B1BB6913B9384600F0E6F9574B9C42D3
:1038600067D17C68B8F1020F06D0B8F1010F00F201
:103870009E80002DC0F29B80636EDB0705D4A38978
:10388000980502D4A06D00F06DFA2146384600F08C
:1038900037F9616B41B104F14403994202D03846D3
:1038A00000F0D0FA002363630023A3616360A3895F
:1038B000190603D52169384600F0C4FAA389B8F186
:1038C000020F23F44A6323F00303A3816BD001ABFF
:1038D0006A462146384600F047FAA3891843A0817A
:1038E000002D30D1009D284600F0A4FA064600289D
:1038F00054D1DDF80090A94549D14FF0FF350022A1
:10390000B4F90C30A26004F1470243F002032260D4
:1039100022610122A3816261626ED20705D413F491
:10392000007F02D1A06D00F01EFA284603B0BDE86A
:10393000F083234B9C4201D1BC6893E7214B9C420E
:1039400008BFFC688EE7002ECDD0BB6913B938469E
:1039500000F06AF9B8F1010F266002BFA38943F0B5
:103960000103A381A28912F00803C4E904651CD0F5
:10397000D30745BF00236D42A560A36048BFA56182
:10398000656E15F0010515D112F4007FC9E74846B0
:1039900000F050FA06460028AFD04D46A38943F008
:1039A0008003A381D1E70025A9E7A360E8E74FF0F2
:1039B000FF35BAE70025B8E72C100020084E0000BC
:1039C000284E0000E84D000013B50B460949024699
:1039D0000C6844B1A16931B9CDE90003204600F07B
:1039E00023F9DDE90023A168204602B0BDE81040BC
:1039F00000F0F8BA2C1000208A892DE9F041054624
:103A000010070C4658D44B68002B05DC0B6C002BC0
:103A100002DC0020BDE8F081E66A002EF9D0002328
:103A200012F480522F682B6032D0606DA3895A0740
:103A300005D56368C01A636B0BB1236CC01A0023F1
:103A40000246E66A2846216AB047431CA38906D18C
:103A500029681D292CD8294ACA40D60728D5002212
:103A6000D90462602269226004D5421C01D12B680E
:103A700003B96065616B2F600029CAD004F144036B
:103A8000994202D0284600F0DDF900206063C1E7CA
:103A9000216A01232846B047411CC7D12B68002B5F
:103AA000C4D01D2B01D0162B01D12F60B1E7A38903
:103AB00043F04003A381ADE70F69002FA9D093071E
:103AC0000E680F600CBF4B690023A6EB07088B60E4
:103AD000B8F1000F9DDD43463A46216A2846A66AA2
:103AE000B047002806DCA3894FF0FF3043F04003C5
:103AF000A3818FE70744A8EB0008E9E70100402015
:103B000038B50B6905460C4613B90025284638BD63
:103B100018B183690BB900F087F8144B9C421BD194
:103B20006C68B4F90C30002BEFD0626ED00704D46F
:103B3000990502D4A06D00F015F928462146FFF73B
:103B40005BFF636E0546DA07E0D4A3899B05DDD4ED
:103B5000A06D00F008F9D9E7054B9C4201D1AC6893
:103B6000DFE7044B9C4208BFEC68DAE7084E000030
:103B7000284E0000E84D0000002310B50446836085
:103B8000818119464366C28108228361C0E90033FE
:103B9000C0E904335C30FFF74BFE054B24626362DF
:103BA000044BA362044BE362044B236310BD00BFCC
:103BB00091450000B3450000EB4500000F460000B2
:103BC000014900F0AFB800BF013B000070B56822AA
:103BD0004D1E0E46554305F1740100F07FF9044671
:103BE00040B1002105F16802C0E900160C30A06068
:103BF000FFF71EFE204670BD014800F0B3B800BFBD
:103C000051160020014800F0AEB800BF5116002048
:103C1000014800F0A7B800BF52160020014800F08C
:103C2000A2B800BF5216002010B50446FFF7F0FFFF
:103C3000A3691BB1BDE81040FFF7F0BFC4E9123320
:103C400023652046124B134A1B68A262A34204BF9D
:103C50000123A36100F020F86060204600F01CF80A
:103C6000A060204600F018F800220421E06060689F
:103C7000FFF782FF01220921A068FFF77DFF0222E2
:103C80001221E068FFF778FF0123A361D2E700BFAC
:103C9000E44D0000C13B0000F8B50746FFF7ACFF5C
:103CA0001E4B1E68B36913B93046FFF7BDFF483697
:103CB000D6E90134013B03D533680BB33668F7E727
:103CC000B4F90C50D5B9164B04F158006566E360A1
:103CD00000F047F8FFF796FF0822294604F15C0040
:103CE0002560A561C4E90155C4E90455FFF7A0FDAD
:103CF000C4E90D55C4E912552046F8BD6834D9E72A
:103D000004213846FFF762FF044630600028D5D111
:103D1000FFF778FF0C233B60EEE700BFE44D0000A7
:103D20000100FFFF2DE9F8430646884600F14804EC
:103D30000027D4E90195B9F1010905D52468002CC3
:103D4000F7D13846BDE8F883AB89012B07D9B5F91F
:103D50000E30013303D029463046C047074368354B
:103D6000E9E770477047704770B50E46B1F90E101D
:103D700096B0144600291D4608DAB6F90C30002228
:103D80002A601A0610D44FF480630EE06A4600F0F1
:103D900025FD0028F1DB019A02F47042A2F50053E0
:103DA0005A425A412A60EEE740230020236016B0B1
:103DB00070BD00008B8973B59D0706460C4607D57C
:103DC00004F14703236023610123636102B070BDE6
:103DD00001AB6A46FFF7C8FF00990546304600F080
:103DE0007DF848B9B4F90C309A05EFD423F00303F9
:103DF00043F00203A381E3E70D4BB362A389206084
:103E000043F080032061A381009B6361019B5BB150
:103E1000B4F90E10304600F0F3FC28B1A38923F06A
:103E2000030343F00103A381A0890543A581CDE7E6
:103E3000C13B0000024B0146186800F04FB800BFBC
:103E40002C10002037B5002943D051F8043C0C1F3A
:103E50000190002BB8BFE41800F002FD1E4A019843
:103E6000136833B96360146003B0BDE8304000F0FC
:103E7000FDBCA34208D9256861198B4201BF1968AE
:103E80005B6849192160EDE71A465B680BB1A342F4
:103E9000FAD911685518A5420BD124682144541849
:103EA0001160A342E0D11C685B682144536011603B
:103EB000DAE702D90C230360D6E7256861198B4243
:103EC00002BF19685B684919636008BF21605460CC
:103ED000CAE703B030BD00BF54160020F8B5CD1CB2
:103EE000064625F0030508350C2D38BF0C25002D9E
:103EF00001DBA94203D90C2333600020F8BD00F098
:103F0000AFFC21490A6814469CB9204F3B6823B98D
:103F10002146304600F02CFB38602946304600F040
:103F200027FB431C23D10C233046336000F09EFC5A
:103F3000E3E723685B1B17D40B2B03D923601C44D6
:103F4000256004E06368A2420CBF0B6053603046FA
:103F500000F08CFC04F10B00231D20F00700C21AB6
:103F6000CCD01B1AA350C9E722466468CCE7C41C16
:103F700024F00304A042E3D0211A304600F0F8FAFE
:103F80000130DDD1CFE700BF5416002058160020C5
:103F90009368013B002B936010B408DA9469A34244
:103FA00001DB0A2903D15DF8044B00F035BB13682F
:103FB000581C1060084619705DF8044B7047F8B53E
:103FC00006460F461446D518AC4201D1002007E042
:103FD0003A4614F8011B3046FFF7DAFF431CF3D1D1
:103FE000F8BD00002DE9F04F0D469DB014469846EF
:103FF000064618B183690BB9FFF716FE894B9D423F
:104000001BD175686B6ED90705D4AB899A0502D4AC
:10401000A86DFFF7A7FEAB891B0701D52B69EBB98C
:104020002946304600F05CFBC0B16B6EDC070ED554
:104030004FF0FF301DB0BDE8F08F7B4B9D4201D1AA
:10404000B568DFE7794B9D4208BFF568DAE7AB89D1
:104050009805EDD4A86DFFF786FEE9E70023CDF8BB
:104060000C804FF00109DFF8C881099320238DF8F7
:10407000293030238DF82A3023469A4613F8012B35
:104080000AB1252AF9D1BAEB040B0BD05B462246C4
:1040900029463046FFF793FF013000F0AA80099AC5
:1040A0005A4409929AF80030002B00F0A2800023B5
:1040B0004FF0FF320AF1010A049307938DF8533051
:1040C0001A93CDE9052354460522594814F8011BDB
:1040D00000F0B8FB049AD8B9D10644BF20238DF86C
:1040E0005330130744BF2B238DF853309AF8003018
:1040F0002A2B15D0079A544600204FF00A0C21466F
:1041000011F8013B303B092B4ED9B0B1079214E0B6
:10411000A0EB0803A24609FA03F313430493D2E782
:10412000039B191D1B68002B0391BBBF5B4242F030
:10413000020207930793B8BF049223782E2B0CD169
:1041400063782A2B35D1039B02341A1D1B68002B80
:104150000392B8BF4FF0FF330593DFF8E4A00322CA
:104160002178504600F06EFB40B14023A0EB0A00DE
:10417000013403FA00F0049B0343049314F8011B79
:1041800006222C488DF8281000F05CFB00283FD058
:10419000294B1BBB039B073323F00703083303930F
:1041A000099B3B44099367E70CFB02320C46012054
:1041B000A5E7002301344FF00A0C19460593204669
:1041C00010F8012B303A092A03D9002BC5D00591EC
:1041D000C3E70CFB012104460123F0E703AB2A46A9
:1041E00004A930460093154B00E000BF0746781C39
:1041F000D6D16B6ED90705D4AB899A0502D4A86DC8
:10420000FFF7B1FDAB895B063FF512AF099811E7E7
:1042100003AB2A4604A930460093084B00F082F80D
:10422000E4E700BF084E0000284E0000E84D000003
:10423000484E0000524E000000000000BF3F00004A
:104240004E4E00002DE9F047164699468A6807460B
:104250000B690C46DDF820809342B8BF13463360EB
:1042600091F843200AB1013333602368990642BFB5
:10427000336802333360256815F0060506D104F172
:10428000190AE36832689B1AAB4229DC94F8432090
:10429000131E226818BF012392062ED404F1430294
:1042A00049463846C047013021D023681A3454F8B3
:1042B0000E5C03F0060332680026042B54F8123C0F
:1042C00008BFAD1A54F80A2C14BF002525EAE5757D
:1042D0009342C4BF9B1AED18B5421AD1002008E0E2
:1042E0000123524649463846C047013003D14FF0BA
:1042F000FF30BDE8F0870135C3E7E1185A1C3020D4
:104300000233224481F8430094F8451082F84310A8
:10431000C4E70123224649463846C0470130E6D06B
:104320000136D9E72DE9FF470F7E914680460C46BE
:10433000782F9A460C9D01F1430207D8622F0AD8C4
:10434000002F00F0D880582F00F0A38004F1420520
:1043500084F842703AE0A7F16303152BF6D801A167
:1043600051F823F0BD430000D14300004D4300004D
:104370004D4300004D4300004D430000D143000079
:104380004D4300004D4300004D4300004D430000ED
:10439000DD44000001440000BF4400004D43000024
:1043A0004D430000FF4400004D4300000144000065
:1043B0004D4300004D430000C74400002B681A1D08
:1043C0001B682A6004F1420584F842300123A3E00F
:1043D00020682968060601F104030AD50E682B60DF
:1043E000002E03DA2D23764284F843305E480A23F8
:1043F00019E00E6810F0400F2B6018BF36B2EFE7DF
:104400002B682068191D2960010601D51E6802E08D
:104410004606FBD51E886F2F53480CBF08230A237E
:10442000002184F843106568002DA560A2BF2168B3
:1044300021F0040121600EB9002D4DD01546B6FBC8
:10444000F3F103FB1167C75D05F8017D37460E46A2
:10445000BB42F4D9082B0BD12368DE0708D52369AA
:1044600061689942DEBF302305F8013C05F1FF3554
:10447000521B22614B4603AA21464046CDF800A0BC
:10448000FFF7E0FE01304CD14FF0FF3004B0BDE843
:10449000F087354881F845702968236851F8046B26
:1044A00029601D0614D5DF0744BF43F020032360B5
:1044B0001EB9236823F0200323601023B0E723688C
:1044C00043F0200323607823284884F84530E3E74D
:1044D000590648BFB6B2E6E71546BBE72B68266823
:1044E000181D6169286035061B6801D5196002E056
:1044F0007006FBD51980002315462361BAE72B68A7
:1045000000211A1D2A601D686268284600F09AF989
:1045100008B1401B606063682361002384F8433066
:10452000A8E723692A4649464046D0470130ABD028
:1045300023689B0713D4E068039B9842B8BF1846D2
:10454000A4E70123324649464046D04701309BD07C
:104550000135E36803995B1AAB42F2DCEBE7002517
:1045600004F11906F5E700BF594E00006A4E00003D
:1045700038B50023054D044608462B60FCF710F9BA
:10458000431C02D12B6803B1236038BD5C160020A8
:1045900010B50C46B1F90E1000F06EF90028ABBF53
:1045A000636DA3891B1823F48053ACBF6365A3819B
:1045B00010BD2DE9F0411F468B8905460C46DB05F1
:1045C000164605D502230022B1F90E1000F028F995
:1045D000A3893246B4F90E10284623F48053A381F0
:1045E0003B46BDE8F04100F069B810B50C46B1F9A2
:1045F0000E1000F015F9431CA38915BF606523F464
:10460000805343F48053A38118BFA38110BDB1F937
:104610000E1000F0D3B80000F8B50E46144605465B
:1046200018B183690BB9FFF7FFFA214B9C422BD1DC
:104630006C68A369A360A3891A072FD523696BB39C
:104640002369F6B220683746C01A6369834204DCE6
:1046500021462846FFF754FA30BBA3680130013BDE
:10466000A36023685A1C22601E706369834204D0D1
:10467000A389DB0706D50A2E04D121462846FFF779
:104680003FFA88B93846F8BD0A4B9C4201D1AC6864
:10469000CFE7094B9C4208BFEC68CAE72146284691
:1046A00000F01EF80028CBD04FF0FF37EAE700BF3C
:1046B000084E0000284E0000E84D000038B50446C2
:1046C000064D0846114600222A601A46FEF724F8D5
:1046D000431C02D12B6803B1236038BD5C16002057
:1046E000324B70B51D6806460C4625B1AB6913B94F
:1046F0002846FFF799FA2E4B9C420FD16C68A3898C
:10470000B4F90C2019072CD4DD0611D40923336029
:1047100042F040034FF0FF30A3813EE0254B9C4226
:1047200001D1AC68EBE7244B9C4208BFEC68E6E79C
:10473000580712D5616B41B104F14403994202D08C
:104740003046FFF77FFB00236363A38923F0240334
:10475000A3810023636023692360A38943F00803D6
:10476000A38123694BB9A38903F42073B3F5007FB8
:1047700003D021463046FFF71DFBA089B4F90C2079
:1047800010F001030AD00023A36063695B42A361B8
:10479000236943B910F08000BAD170BD810758BFBA
:1047A0006369A360F4E70020F7E700BF2C10002046
:1047B000084E0000284E0000E84D000038B50023E8
:1047C000054D044608462B60FDF78BFF431C02D1C4
:1047D0002B6803B1236038BD5C16002038B5002378
:1047E000064D0446084611462B60FDF77DFF431C2D
:1047F00002D12B6803B1236038BD00BF5C160020D6
:1048000038B50023054D044608462B60FDF771FFBF
:10481000431C02D12B6803B1236038BD5C16002015
:1048200038B50446064D0846114600222A601A464D
:10483000FDF761FF431C02D12B6803B1236038BD33
:104840005C160020C9B2024410B59042034601D163
:10485000002303E01C7801308C42F6D1184610BDCD
:104860000148FFF77FBA00BF501600200148FFF74C
:104870007ABA00BF5016002038B50446064D0846E7
:10488000114600222A601A46FDF737FF431C02D169
:104890002B6803B1236038BD5C160020F8B500BF5B
:1048A000F8BC08BC9E467047F8B500BFF8BC08BC11
:1048B0009E4670475B495D2000676961207472699C
:1048C00020646F20616D206C61202564200A000047
:1048D000000002000000000000000000BA04000018
:1048E00000000000000002000000000000000000C6
:1048F000BA04000000000000434C4920696E737444
:10490000616E636520696E737430002E2E2F6175A1
:10491000746F67656E2F736C5F696F737472656116
:104920006D5F696E69745F75736172745F696E73D0
:1049300074616E6365732E63000000000500000063
:104940000000000000C2010000050000001000008F
:1049500000000000000000000000064029000005E3
:1049600000060008000701000F100000E4130020FB
:104970002000000000010000433A2F557365727358
:104980002F39387175612F53696D706C6963697463
:104990007953747564696F2F53444B732F67656344
:1049A0006B6F5F73646B2F706C6174666F726D2FC9
:1049B000636F6D6D6F6E2F7372632F736C5F736CAB
:1049C0006973742E6300433A2F55736572732F39E0
:1049D000387175612F53696D706C696369747953AF
:1049E000747564696F2F53444B732F6765636B6FE6
:1049F0005F73646B2F706C6174666F726D2F656D81
:104A00006C69622F7372632F656D5F636D752E63C2
:104A10000002010103030206010504433A2F557306
:104A20006572732F39387175612F53696D706C69B8
:104A30006369747953747564696F2F53444B732F92
:104A40006765636B6F5F73646B2F706C6174666F07
:104A5000726D2F656D6C69622F7372632F656D5F68
:104A6000636F72652E6300433A2F55736572732F1F
:104A700039387175612F53696D706C696369747928
:104A800053747564696F2F53444B732F6765636B61
:104A90006F5F73646B2F706C6174666F726D2F65DE
:104AA0006D6C69622F7372632F656D5F656D752E16
:104AB0006300633A5C75736572735C393871756154
:104AC0005C73696D706C696369747973747564691A
:104AD0006F5C73646B735C6765636B6F5F73646B50
:104AE0005C706C6174666F726D5C656D6C69625C44
:104AF000696E635C656D5F6770696F2E6800433A2D
:104B00002F55736572732F39387175612F53696D25
:104B1000706C696369747953747564696F2F534459
:104B20004B732F6765636B6F5F73646B2F706C6182
:104B300074666F726D2F656D6C69622F7372632F6F
:104B4000656D5F6770696F2E6300433A2F5573651B
:104B500072732F39387175612F53696D706C696389
:104B600069747953747564696F2F53444B732F675D
:104B700065636B6F5F73646B2F706C6174666F72CB
:104B80006D2F656D6C69622F7372632F656D5F6940
:104B90006164632E6300433A2F55736572732F3936
:104BA000387175612F53696D706C696369747953DD
:104BB000747564696F2F53444B732F6765636B6F14
:104BC0005F73646B2F706C6174666F726D2F656DAF
:104BD0006C69622F7372632F656D5F727463632EED
:104BE0006300433A2F55736572732F3938717561BD
:104BF0002F53696D706C6963697479537475646956
:104C00006F2F53444B732F6765636B6F5F73646BD8
:104C10002F706C6174666F726D2F656D6C69622F99
:104C20007372632F656D5F75736172742E63003EDE
:104C3000200001030401010109030B0B0200002005
:104C40002000038C8C3C00000000000000012604C2
:104C50000000010000000000433A2F557365727395
:104C60002F39387175612F53696D706C6963697480
:104C70007953747564696F2F53444B732F67656361
:104C80006B6F5F73646B2F706C6174666F726D2FE6
:104C9000736572766963652F696F73747265616D90
:104CA0002F7372632F736C5F696F73747265616DBC
:104CB0005F72657461726765745F737464696F2E87
:104CC0006300433A2F55736572732F3938717561DC
:104CD0002F53696D706C6963697479537475646975
:104CE0006F2F53444B732F6765636B6F5F73646BF8
:104CF0002F706C6174666F726D2F73657276696365
:104D0000652F696F73747265616D2F7372632F7392
:104D10006C5F696F73747265616D5F756172742E1B
:104D20006300433A2F55736572732F39387175617B
:104D30002F53696D706C6963697479537475646914
:104D40006F2F53444B732F6765636B6F5F73646B97
:104D50002F706C6174666F726D2F73657276696304
:104D6000652F736C65657074696D65722F737263FE
:104D70002F736C5F736C65657074696D65722E63FB
:104D8000000100000005000200000300433A2F5517
:104D9000736572732F39387175612F53696D706C3B
:104DA000696369747953747564696F2F53444B73E5
:104DB0002F6765636B6F5F73646B2F706C617466D4
:104DC0006F726D2F736572766963652F7564656C9C
:104DD00061792F7372632F736C5F7564656C617991
:104DE0002E630000301000200000000000000000D2
:104DF00000000000000000000000000000000000B3
:104E000000000000000000000000000000000000A2
:104E10000000000000000000000000000000000092
:104E20000000000000000000000000000000000082
:104E30000000000000000000000000000000000072
:104E40000000000000000000232D302B2000686CC3
:104E50004C0065666745464700303132333435369D
:104E600037383941424344454600303132333435D6
:0C4E700036373839616263646566000003
:084E7C0004B3FF7F01000000F8
:104E84000000000000000000C8100020CC1000202A
:104E940001041F00C0EA2101C0EA210100F0490217
:104EA4000080000060160020FFFF01003010002089
:104EB40000000000084E0000284E0000E84D0000ED
:104EC40000000000000000000000000000000000DE
:104ED40000000000000000000000000000000000CE
:104EE40000000000000000000000000000000000BE
:104EF40000000000000000000000000000000000AE
:104F0400000000000000000000000000000000009D
:084F14006501000041010000ED
:04000003000006757E
:00000001FF
