:1000000000100020950C0000930C0000930C0000E1
:10001000930C0000930C0000930C0000930C000064
:10002000930C0000930C0000930C0000930C000054
:10003000930C0000930C0000930C0000930C000044
:10004000930C0000930C0000930C0000930C000034
:10005000930C0000930C0000930C0000930C000024
:10006000930C0000930C0000930C0000930C000014
:10007000930C0000930C0000930C0000E90B0000AF
:10008000F50B0000930C0000930C0000930C000093
:10009000930C0000930C0000930C0000930C0000E4
:1000A000930C0000930C0000930C0000930C0000D4
:1000B000930C0000930C0000930C0000930C0000C4
:1000C000930C0000930C0000930C0000930C0000B4
:1000D000930C0000930C0000930C0000930C0000A4
:1000E000930C0000930C0000930C0000930C000094
:1000F000930C0000930C0000930C0000930C000084
:10010000CD080000930C0000930C0000930C00003D
:10011000930C0000930C0000930C0000930C000063
:10012000930C0000930C0000930C0000930C000053
:10013000930C0000930C00003D040000930C0000A1
:1001400010B5054C237833B9044B13B1044800E0D3
:1001500000BF0123237010BDA81C00200000000078
:10016000AC5C000008B5034B1BB10349034800E039
:1001700000BF08BD00000000AC1C0020AC5C00000B
:10018000A3F5803A704700BF174B002B08BF134BF5
:100190009D46FFF7F5FF00218B460F461348144A92
:1001A000121A04F04AFA0E4B002B00D098470D4B60
:1001B000002B00D098470020002104000D000D48BE
:1001C000002802D00C4800E000BF04F0F5F9200040
:1001D000290000F09DFB04F0DBF900BF00000800DF
:1001E000000000000000000000100020A810002007
:1001F000D01D002000000000000000007047704784
:100200007FB50123074A01A9019207480DF10302B6
:100210008DF803300292ADF80C3000F08DFE07B07F
:100220005DF804FB46000100008006407FB5102306
:100230008DF80330074B01A901930DF103030293DD
:1002400001230548ADF80C3000F076FE07B05DF8EC
:1002500004FB00BF46000100008006407FB50F4B45
:1002600001A9019302230E48ADF80C30CDF808D057
:1002700000F062FE9DF801309DF8000003EB0020C5
:1002800003F0C2FE4FF03332064B04F051F804F095
:100290005FF980B207B05DF804FB00BF46000200C2
:1002A000008006403333F33F024B586CC0F300101C
:1002B000704700BF00C0034038B504220123114637
:1002C000184602F00FF91022144B44F250601A64E1
:1002D00003F09EFB012200231046042102F002F9E4
:1002E000192003F095FBFFF7DFFFA0B9462003F0CC
:1002F0008FFBFFF7D9FF051E18BF01256524FFF707
:10030000D3FF30B10120013C03F082FB14F0FF0465
:10031000F5D1284638BD0025F0E700BF00E00340D6
:1003200070B5002508262C46FFF7BEFF28B901202E
:10033000013503F06DFB642DF6DD1E2003F068FB34
:10034000FFF7B2FF640080B90025E4B2FFF7ACFF0D
:1003500028B10120013503F05BFB652DF6D1013E8C
:1003600016F0FF06E0D1204670BD44F00104EBE733
:1003700010B506220021044604F05FF9FFF79CFF48
:1003800070B1FFF7CDFFA070FFF7CAFFE070FFF775
:10039000C7FF2070FFF7C4FF6070FFF7C1FFA080A8
:1003A00010BD0000FF23C340DB0710B5044604D492
:1003B00040F22B41044800F0CFFD0120034B00FA2E
:1003C00004F41C6710BD00BFC056000000D00340FD
:1003D000FF23C340DB0710B5044604D44FF47F71FC
:1003E000044800F0B9FD0120034B00FA04F41C6737
:1003F00010BD00BFC056000000E00340612808B5F2
:1004000007D10120FFF7E4FFBDE808400220FFF715
:10041000DFBF622807D10120FFF7C4FFBDE8084015
:100420000220FFF7BFBF63284FF0010002D1FFF7A2
:10043000CFFFF3E7FFF7B6FFE6E7000070B5002354
:1004400004220121022002F04DF80221042200239F
:10045000084602F047F8104C0921104801F038FE18
:100460000E48266801F064FE0D4D2368A855E85C2F
:10047000FFF7C4FF0521094801F02AFE2368EA5C62
:100480000A2A07D04F2B05D8013304222360054BDD
:100490005A6470BD0123F8E7141D00200000034AD0
:1004A000C41C00200020034AF8B5044618201D464D
:1004B0000F46164604F0A4F8069BC0E90076C36018
:1004C000079B85600361002320604361F8BD6FF0E6
:1004D0000403C0E90033C0E9023309B90161704780
:1004E0000A220361143091FBF2F302FB131140F86E
:1004F000041D1946002BF6D1704700002DE9F0418C
:100500000E460546144686B00021142201A804F0C8
:1005100094F8002EACBF3146714201A8FFF7D7FF17
:10052000019A2B1930322A55029A002E02F130021C
:100530005A70039A02F130029A70049A02F1300262
:10054000DA70059A02F130021A7109DAE8432D26B1
:10055000E11C13F8012B2B2A02D1C21891420EDAAA
:100560002646DFF83480271DB7420EDA142C03D05C
:100570002F21094801F0E2FD06B0BDE8F0811A78AC
:100580002B2A18BF03F8016CE3E7A95D404601F090
:10059000D5FD0136E8E700BF0000034A38B5044640
:1005A000006808B9206038BD456904F031F8284674
:1005B000F7E70000F0B5234B8BB01A880446ADF87E
:1005C000082003AA15469B788DF80A301E4B03F1CC
:1005D0001807164618685968083303C6BB423246E6
:1005E000F7D11B78194F337002AE16F8012B1ABBE6
:1005F00073211648019201F0A1FD2846019A216855
:10060000FFF77CFF284661680522FFF777FF284641
:10061000A1680A22FFF772FF2846E1680F22FFF760
:100620006DFF142228462169FFF768FF70210748F3
:1006300001F084FD0BB0F0BD1146384601F07EFD9F
:10064000D3E700BF0D570000105700000000034A19
:10065000F0B51F46002304460D46164685B01A46DF
:100660001946CDE9003303A8FFF71EFF094803F040
:10067000CFF903A8FFF792FF0A9B2A462146CDE94E
:10068000007303A83346FFF70FFF0398FFF792FFAD
:1006900005B0F0BD404B4C0008B501213A2000F0F8
:1006A00037FE012304221946184601F01BFF0122E0
:1006B00000231046022101F015FF0023042201212E
:1006C000022001F00FFF022100230422084601F05E
:1006D00009FF0120FFF77CFE0220FFF763FE0222E4
:1006E000054BC3F8C0204FF00112C3F8D02002F52B
:1006F0008032C3F8CC2008BD00C4034030B589B0B7
:100700006C460F21382001F0C7F9144D01214FF438
:10071000806000F0FDFD0121382000F0F9FD0FCDD3
:100720000FC495E80F0084E80F004FF416530C4CEB
:1007300069462046029301F047FE4FF08042094B84
:1007400004F58054C3F884215A604FF00042C3F886
:1007500084215A600423A36409B030BD2C570000E3
:100760000000034A00E100E0F0B5514DA7B008AC2D
:100770000FCD0FC40FCD0FC495E80300002603274B
:1007800084E8030001245022314612A8CDE9056611
:1007900007968DF80C608DF80D608DF80E708DF851
:1007A0000F608DF810608DF811608DF8126003F005
:1007B00044FF21462A208DF848408DF84D408DF8A1
:1007C00052408DF857408DF85C408DF861408DF8AF
:1007D00066408DF86B408DF870408DF875408DF84F
:1007E0007A408DF87F408DF884408DF889408DF8EF
:1007F0008E408DF8934000F08BFD21463A2000F0AA
:1008000087FD02214FF4B06001F046F90223294D23
:100810003246284628498DF8173002F0B1F940F6E3
:10082000E44332468DF819000B9300903346284676
:1008300022498DF823708DF8216002F0CFF99023C2
:100840008DF84930A3230A9008AA284605A98DF8F7
:100850004E308DF80E708DF80D408DF848408DF8B3
:100860004C408DF84D408DF8514002F0F3F912AA3A
:10087000284603A902F0EEF8114BD3F824232243B3
:10088000C3F82423D3F8242342F48032C3F824236A
:100890000C4A05F500535A624FF48032AB6A43F4B8
:1008A0008073AB62084BC3F884215A6027B0F0BD57
:1008B000845700000040004A002D310180969800C6
:1008C00000C003408F330F8000E100E073B50D4D91
:1008D0000D4ED5F888305B0705D14FF480720B4B75
:1008E0005A6202B070BD2946684602F03BFB009890
:1008F00003F07AFB9DF8044006EBC404C4E9000150
:10090000E7E700BF0040004A181D00200060004AD1
:100910007FB503F065F8FFF771FCFFF7BDFEFFF749
:10092000EDFEFFF76DFCFFF781FC4A4B1B68C3F33C
:100930000743012B0ED1484B04205A6E4FF48023FD
:100940004649520358BF464A4B6601F510410862BA
:1009500058BF5366FFF708FF424C434E03F04DF873
:10096000FFF74DFCFFF77AFC0546032000F044F941
:1009700060B13146206802F048FD00F05DF900F0FA
:100980005CF92A463949206802F03FFD02A8FFF7CA
:10099000EFFC032000F030F968B13146206802F026
:1009A00034FD00F049F900F048F99DF80A2030497B
:1009B000206802F02AFD032000F01EF968B13146DC
:1009C000206802F022FD00F037F900F036F99DF8BA
:1009D00008202849206802F018FD0822264BDA601A
:1009E000264BD3E9000103F08BFD6423584348BF35
:1009F00000F6FF700513032000F0FEF860B13146E9
:100A0000206802F002FD00F017F900F016F92A46FE
:100A10001B49206802F0F9FC032000F0EDF858B102
:100A20003146206802F0F1FC00F006F900F005F90B
:100A30001449206802F0E9FC0023642000939DF82B
:100A40000A202B469DF80810FFF702FE0E4B013BD3
:100A5000FDD183E70080E00F00800040009000405F
:100A600000A000409C1D00204C5700005157000082
:100A70005C570000675700000040004A181D002026
:100A800071570000825700007F969800704708B5A4
:100A90000321802001F000F803214FF4806000F072
:100AA000FBFF03214FF4906000F0F6FF08214FF4A4
:100AB000C06000F0F1FF08214FF4F06000F0ECFF9F
:100AC00008213E2000F0E8FF08212D2000F0E4FF7F
:100AD000002008BD08B5134B1B68C3F30743012B67
:100AE0000ED1114B04205A6E4FF480230F4952034C
:100AF00058BF0F4A4B6601F51041086258BF536654
:100B000002F020FC00F0C1F802F0A2FB02F0C2FBF0
:100B100002F0FEFBFFF7BBFF02F0AAFBBDE80840B6
:100B200000F0AAB80080E00F008000400090004074
:100B300000A0004000F018B8704700F07FB8704780
:100B400070477047704708B502F0C2FCBDE8084026
:100B500000F048B808B500F08DF802F0D3FCBDE80D
:100B60000840FFF7F0BF000008B53A20012100F06F
:100B7000CFFBBDE80840014800F01EB9001000207E
:100B800070B5144C92B00BAD0FCC0FC594E80700B4
:100B9000032385E8070003AE8DF8453007AD04F167
:100BA0000C031C340FCB86E80F0094E80F0085E897
:100BB0000F00094B29460093084833460BAA02F060
:100BC0003BFE044618B18721054800F0C5F92046D0
:100BD00012B070BDDC570000281D0020841D0020CD
:100BE000AC570000FFF7CCBF014B186802F0E0BE25
:100BF000841D0020FFF7F8BF0B4B02461B788BB11A
:100C00000A4B1B78834234BF00200120084B1B781D
:100C10003BB1084B1B7843FA02F212F0010F08BFF8
:100C2000002070470120F1E714100020151000206B
:100C3000A01D00201610002070477047012208B543
:100C4000074B1A700022074B1A700422064B1A70C9
:100C50001F22064B1A7002F09FFB054B186008BD5F
:100C600014100020A01D00201510002016100020D8
:100C70009C1D00200F20704708B501213A2000F08C
:100C800047FBBDE80840FFF701BF01213A2000F013
:100C90003FBBFEE708B500F013F8064B064A0749CC
:100CA0008B4201D3FFF770FA52F8040B43F8040BA0
:100CB000F6E700BF00100020B45C0000A810002080
:100CC000044B054A9A60D3F8882042F47002C3F8B6
:100CD0008820704700ED00E000000000014B18681C
:100CE000704700BF1C100020084B1B6F03F0070368
:100CF000022B04D0032B05D0012B05D0FEE7044BBB
:100D000018687047034BFBE70348704700800040BA
:100D10001C10002020100020002D310108B5FFF725
:100D2000E3FF054B1B6FC3F303330133B0FBF3F059
:100D3000024B186008BD00BF008000401810002062
:100D40000048704700B4C404014B1868704700BFE6
:100D500020100020054B1860054B1B6F03F00703A4
:100D6000032B01D1FFF7DABF704700BF201000202E
:100D7000008000400020704700487047002D31017E
:100D80004FF4004070474FF47A707047014B186879
:100D9000704700BF2410002005490A681318054851
:100DA00083428CBF4FF0FF320B601046704700BF8C
:100DB00028100020008000202DE9FF47044618B9C4
:100DC0002C21584800F0C8F82368574A93420AD0AB
:100DD000564A934200F083804221524804B0BDE855
:100DE000F04700F0B9B82E20012100F091FA01235C
:100DF0000A226179207901F075FB01230A22E17949
:100E0000A07901F06FFB09274FF00108DFF824916A
:100E1000474D267994F805A0002E62D0012E63D0AC
:100E2000022E63D0032E04D10C2323FA0AF3DA072F
:100E300004D44FF47F71484600F08EF8302202FB54
:100E4000065642F2100208FA0AF3B350642002F088
:100E5000DFFD267994F805A0002E49D0012E4AD056
:100E6000022E4AD0032E04D10C2323FA0AF3DB0707
:100E700004D440F22B41484600F06EF8302202FBC9
:100E8000065641F2100208FA0AF36420B35002F049
:100E9000BFFD013FBDD12068234B98422FD10323D2
:100EA000C5F890346279237943EA0243C5F8943453
:100EB000E279A37943EA0243C5F8983440F201137A
:100EC000ADF80030E36869460293A3680193237C80
:100ED0008DF80C3001F0E8FB04B0BDE8F0872F205E
:100EE00082E740F2FF13A0E71F239EE7FF239CE762
:100EF00040F2FF13B9E71F23B7E7FF23B5E70B4B1A
:100F00009842DBD10323C5F8A0346279237943EA00
:100F10000243C5F8A434E279A37943EA0243C5F851
:100F2000A834CBE7185800000000014A00800640B2
:100F300000C00340C056000038B5054601F00AFD68
:100F4000044C012801D1013C00D138BD284601F0F4
:100F5000DFFBF6E7E1930400FEE74FF04023D3F810
:100F60008420D206FBD4D3F88400C0F381107047EC
:100F700038B5124B0546D3F820310C4603F0030375
:100F8000022B0BD0032B0DD0012B0FD1FFF7A6FEA8
:100F9000052305B1286004B1237038BDFFF7D4FEE6
:100FA0000323F6E7FFF7E8FE0223F2E7044840F6E2
:100FB000BE71FFF7D1FF00231846EAE7008000402A
:100FC0006F580000F7B50024114B0194D3F88051FD
:100FD000074605F00305012D0E4607D0022D11D05E
:100FE00041F2E2010B48FFF7B7FF04E0214601A8F8
:100FF000FFF7BEFF0F240FB1019B3B6006B13470B9
:1010000003B0F0BDFFF7B8FE2C460190F3E700BF38
:10101000008000406F58000038B5194B0546D3F8E2
:1010200024310C4603F00703013B052B20D8DFE8F1
:1010300003F0030F171B0B13FFF750FE052305B139
:10104000286004B1237038BDFFF748FE0623F6E799
:10105000FFF77AFE0323F2E7FFF776FE0423EEE7BD
:10106000FFF78AFE0223EAE7FFF784FE0723E6E79D
:10107000044840F64651FFF76FFF00231846DEE7AD
:10108000008000406F58000038B5124B0546D3F879
:1010900040310C4603F00303022B0BD0032B0DD081
:1010A000012B0FD1FFF76CFE092305B1286004B1B5
:1010B000237038BDFFF76AFE0823F6E7FFF763FEEB
:1010C0000B23F2E7044840F6EC71FFF745FF0023DD
:1010D0001846EAE7008000406F58000038B5154B0D
:1010E0000546D3F800320C4603F00703013B032BFF
:1010F00018D8DFE803F0020A0E12FFF741FE0923B9
:1011000005B1286004B1237038BDFFF73FFE082306
:10111000F6E7FFF738FE0B23F2E7FFF7FFFD0E239C
:10112000800AEDE7044841F29811FFF715FF00230C
:101130001846E5E7008000406F58000038B5124BB4
:101140000546D3F840320C4603F00303022B0BD0C4
:10115000032B0DD0012B0FD1FFF712FE092305B190
:10116000286004B1237038BDFFF710FE0823F6E7AE
:10117000FFF709FE0B23F2E7044841F22B11FFF7BA
:10118000EBFE00231846EAE7008000406F5800009D
:1011900038B5124B0546D3F860310C4603F0030313
:1011A000022B0BD0032B0DD0012B0FD1FFF7E8FD45
:1011B000092305B1286004B1237038BDFFF7E6FDAF
:1011C0000823F6E7FFF7DFFD0B23F2E7044841F2BF
:1011D0001A01FFF7C1FE00231846EAE7008000402D
:1011E0006F58000010B40F4C0B46D4F8204204F0A6
:1011F0000304012C0ED0022C10D008B10021016094
:101200000BB100221A704FF4576107485DF8044B88
:10121000FFF7A2BE5DF8044BFFF7AABE5DF8044BD2
:10122000FFF732BF008000406F580000B0F5207F0C
:1012300010B534D009D8B0F5007F2AD003D898B1C2
:10124000B0F5C07F10D0002421E0B0F5607FFAD166
:10125000154BD3F88030C3F301149B0617D5032C2C
:1012600015D04FF41D710FE00F4B1C6F230B13F0C3
:101270000E0FC4F303340AD0032C08D0072C06D079
:101280000F2C04D04FF419710848FFF765FE601C5D
:1012900010BD054BD3F89040C4F30464F7E7024B4C
:1012A0001C6FC4F38024F2E7008000406F580000F8
:1012B0004FF400320F4B70B59A66064600200D467B
:1012C000FFF7B4FF41F671320B4B7043DC690B49F9
:1012D000DA639A68884204F4803422F4401203D915
:1012E000012D18BF42F480129A600CB10022DA631B
:1012F00070BD00BF0090004000000340005A620231
:1013000008B5FFF71DFDBDE808400021FFF7D0BF7D
:1013100070B5460904460D460FD140F205310D481F
:10132000FFF71AFE334604F01F0485B103F580531E
:10133000012000FA04F41C6070BD012E05D0064B9C
:10134000064A022E18BF1346EDE7054BEBE703F5FF
:101350000053EDE76F580000688000406082004055
:1013600064800040002330B5802885B00446029395
:1013700075D02BD8002878D0A0F12004A3B2412B3F
:1013800032D8412C30D8DFE804F070737073868651
:1013900086867373903FA7653F7373732F2F2F2F2C
:1013A0002F2F8B57737373B1AC732F2F2F2F2F2FBA
:1013B0002F2F2F2F2F2F2F702F707070862F2F2FE2
:1013C0002F2F2F2F2F2F2F2F2F2F7070B0F5806FD3
:1013D00061D024D8B0F5007F54D00BD8B0F5807F11
:1013E00068D0B0F5C07F40D040F25A414248FFF784
:1013F000B3FD37E0B0F5607F44D0F5D8B0F5207F7D
:1014000036D0B0F5407FEFD1FFF788FC04464FF4AB
:101410002070FFF70BFFB4FBF0F0400821E0B0F5BF
:10142000C06F59D00DD8B0F5A06F39D0B0F5B06FFE
:101430003BD0B0F5906FD7D1002102A8FFF7ECFDAB
:1014400010E0B0F5E06F4CD0B0F5F06F4ED0B0F5D5
:10145000D06FC9D1002102A8FFF740FE02E0FFF7DC
:1014600043FC0290029805B030BDFFF757FCF8E747
:10147000FFF754FC04464FF42070FFF7D7FEB4FB8F
:10148000F0F0EEE7FFF730FC05462046FFF7CEFE12
:10149000B5FBF0F0E5E7002102A8FFF769FDE1E701
:1014A000002102A8FFF79EFEDCE7002102A8FFF75B
:1014B00089FDD7E703934FF0E0231B695B0705D550
:1014C000FFF72CFC0390039B0293CBE70DF1070180
:1014D00003A8FFF7D9FDF6E7002102A8FFF7D4FD26
:1014E000C0E7002102A8FFF729FEBBE7002102A800
:1014F000FFF74EFEB6E700BF6F58000008B580202A
:10150000FFF730FF034B98429EBF4FF48032024BEF
:101510001A6708BD005A620200A00040002307B508
:10152000B0F5807F8DF8023000F0888028D8382808
:1015300000F0A8800CD8243883B2092B10D80928D1
:101540000ED8DFE800F0757575750D0D6B0D378FD2
:1015500052286DD007D83D283CD03E2800F0988016
:1015600040F2365156E08028FAD14C4B1B6F03F005
:101570000703013B032B4BD8DFE803F048444280CC
:10158000B0F5D06F6ED01BD8B0F5A06F7AD00BD865
:10159000B0F5806F4CD0B0F5906FE1D100200DF127
:1015A0000201FFF739FD3EE0B0F5B06F36D0B0F57F
:1015B000C06FD5D100200DF10201FFF765FD32E0CB
:1015C000B0F5006FEAD00BD8B0F5E06F60D0B0F5A1
:1015D000F06FC5D100200DF10201FFF7D9FD22E027
:1015E000B0F5086FBCD12D4BD3F8003103F00303E5
:1015F000022B3DD0032B3FD0012B41D1FFF7A4FBA1
:10160000032300E005238DF802300CE00223FAE703
:1016100040F28C412248FFF79FFC04E000200DF1CE
:101620000201FFF7CFFC9DF8020003B05DF804FB58
:1016300000200DF10201FFF79BFCF4E701934FF04E
:10164000E0231B695B0707D5FFF768FB0C238DF8C8
:1016500003309DF80330D6E70DF1030101A8FFF731
:1016600013FDF6E700200DF10201FFF737FDDAE781
:10167000FFF78CFB0823C6E7FFF77CFB0723C2E7D5
:101680000123C0E700200DF10201FFF7ABFDCAE71F
:1016900000200DF10201FFF751FDC4E7008000407A
:1016A0006F58000070B5037804460F2B04D940F63C
:1016B00021216B48FFF750FC63780F2B04D940F6CB
:1016C00024216748FFF748FCA3780F2B04D940F684
:1016D00027216348FFF740FCE3780F2B04D940F63D
:1016E0002A215F48FFF738FC23790F2B04D940F6F5
:1016F0002D215B48FFF730FC63793F2B04D94FF471
:1017000023615748FFF728FCA3793F2B04D940F603
:1017100033215348FFF720FCE379032B04D940F62B
:1017200036214F48FFF718FC237A032B04D940F6E3
:1017300039214B48FFF710FC637B012B04D940F69D
:101740003C214748FFF708FC8020FFF7E7FE03280D
:101750007CD04FF40022434B43495A6645F60E03B2
:101760000222C1F88030414B9A62012203F5805376
:101770009A628A6D12F48032FBD1637820781B055F
:1017800043EA0063A079257C0343E078667C43EA62
:101790000043207943EA0033607943EA80130B6108
:1017A0008B69E07A03F000430343E07943EA806306
:1017B000207A43EA0063607A43EA0043A07A43EA6E
:1017C00000238B61637B096A002B18BF0822207BF2
:1017D00021F00D0143EA010343EA800342EA0302D8
:1017E000214B1A62A27B4FEA421230D1986AE17B08
:1017F00020F0330042EA0112024342F001029A62F1
:101800001B4A996D32EA0101FBD1022217498A6213
:101810001A659A6D5200FCD41869A27820F4700001
:1018200040EA02504FF000421861104B9A611DB916
:10183000022203F580539A6216B901220D4B9A6277
:10184000A37C1BB1084B0C4AC3F8802070BD996A79
:1018500021F0330131430A4342EA4502EFE700BF7A
:101860006F5800000090004000C0004000D00040D1
:101870000300014000E00040F1A7FFFF014B93F996
:1018800000007047A11D002010B583780446072B87
:1018900004D940F69F312A48FFF75EFBE378032B1B
:1018A00004D940F6A1312648FFF756FB2378032BD5
:1018B00004D940F6A3312248FFF74EFB94F90130DA
:1018C000002B04DA40F6A5311D48FFF745FB4FF425
:1018D00080011C4A637851664FF4D151022002F511
:1018E000B832516218494F2B48604FF0010028BFB1
:1018F0004F2301F5805148601169C903FCD4217858
:1019000043EA01235361E378A1781B0143EA0123F1
:1019100061790B43217943EA41039360E379A1792B
:101920001B0143EA4113617A0B43217A43EA4103E5
:101930005360A37A13B16FF4D153536210BD00BF4B
:101940006F5800000090004000100240014B1880CA
:10195000704700BF2C1000200029CCBF01210021BE
:10196000FFF7A6BCB0F5207F10B565D00ED8B0F556
:10197000007F4FD003D800B3B0F5C07F1DD04FF427
:101980003A71BDE810403448FFF7E6BAB0F5607F21
:10199000F5D14C1E012C06D9042904D040F2CD21EA
:1019A0002D48FFF7D9FA2D4AD2F8803023F03003C2
:1019B00043EA0413C2F8803010BD102901F1FF344E
:1019C00004D8274B23FA01F1CB0704D440F2A3211A
:1019D0002148FFF7C1FAFFF793FC00F045F84FF4F8
:1019E0008031204B1D4A1967136F23F4704343EA7B
:1019F00004331367FFF792F90446FFF7AEFAC0F11C
:101A000002012046FFF7A8FF00F034F8BDE81040BF
:101A1000FFF774BD4C1E1F2C04D94FF437710E48CC
:101A2000FFF79AFA0D4BD3F8901021F0F85141EAE4
:101A30000461C3F89010BFE74C1E012C04D940F29A
:101A4000E2210548FFF788FA044B196F21F4806101
:101A500041EA84211967AFE76F5800000080004019
:101A6000160101000090004002214FF42070FFF7A2
:101A700079BF000008B54FF4C070FFF773FCBDE8F4
:101A80000840044988428CBF022101214FF4207094
:101A9000FFF768BF80F0FA02B0F5807F70B50C46A2
:101AA00000F00C812CD8382800F0A48111D82438FB
:101AB00083B2092B16D8092814D8DFE810F0E40007
:101AC000E400E400E40013001300CF001300490019
:101AD0005301522800F0D78007D83D2853D03E2824
:101AE00000F09F8140F6250122E18028FAD18B1E6B
:101AF000052B00F2A880DFE803F0A394A6AEA6674A
:101B0000B0F5D06F00F02E8132D8B0F5A06F00F0A4
:101B1000718116D8B0F5806F00F0B580B0F5906F88
:101B2000E0D1023CE4B2052C00F21581A84B195D0E
:101B3000A84AD2F8243123F007030B43C2F824311A
:101B40006EE0B0F5B06F00F08980B0F5C06FC9D11C
:101B5000083CE4B2032C00F2F0809F4B195D9D4AD3
:101B6000D2F8403123F003030B43C2F8403157E071
:101B7000B0F5006FD5D016D8B0F5E06F00F0518108
:101B8000B0F5F06FAED1083CE4B2032C00F2DC807B
:101B9000924B195D8F4AD2F8603123F003030B4357
:101BA000C2F860313CE0B0F5086F9BD14C1E072CA9
:101BB00000F20481DFE814F00701020109010201CB
:101BC000020102010001F600002504260121022085
:101BD00000F05EF9FFF794FBFFF746FF4FF480310A
:101BE0007F4B7C4A1967136F23F007033343136756
:101BF000FFF794F80646FFF7B0F9C0F1020130464E
:101C0000FFF7AAFE0121002000F09AF9FFF732FF4A
:101C1000FFF774FC25B9032C02D10122714B9A62A3
:101C200070BD4FF400226E4B03265A66012203F565
:101C300040539D6A03F58053C5F340059A62C5E79A
:101C400000250126C2E7002540F277516648FFF7DC
:101C500083F92E46BAE700250226B7E7022C07D003
:101C60000F2C0ED040F2BC515F48FFF775F90024ED
:101C7000584AD2F8803123F003031C43C2F8804154
:101C8000CEE70124F4E7032C12D0052C12D0022C4D
:101C900012D040F2F3515448FFF75EF900224D494B
:101CA000D1F8203123F003031343C1F82031B7E703
:101CB0000222F4E70122F2E70322F0E7A1F108048F
:101CC000082C33D8DFE804F0050532051C32323227
:101CD00005004FF480323F4B4449586E03F5805362
:101CE0005A660B6A43F001030B62C1035CBF404BB1
:101CF0005A664FF0E022136923F0040313618FE763
:101D00004FF48032334B3949586E03F580535A668D
:101D10000B6A23F001030B62C3035CBF344B5A66AA
:101D20004FF0E022136943F00403E7E740F21B6140
:101D3000BDE870402C48FFF70FB940F237612A48E0
:101D4000FFF70AF900210AE740F252612648FFF73F
:101D500003F900211EE740F277612348FFF7FCF802
:101D60000021E5E6083C062C13D8DFE804F004194E
:101D7000190E1212100002221649D1F8003223F077
:101D800007031343C1F800324AE70322F4E70422B1
:101D9000F2E740F297611448FFF7DEF80022EBE724
:101DA0000122E9E702220B49D1F8003123F00303B5
:101DB0001343C1F8003133E70322F4E740F2D36163
:101DC0000948FFF7C9F80022EDE70122EBE700BF61
:101DD000BF58000000800040BB580000BB58000006
:101DE0000090004000E000406F58000000C0074035
:101DF00000A000400F2C10D0102C10D040F2197110
:101E00001348FFF7A9F800221249D1F8203223F035
:101E100003031343C1F8203202E70122F4E7022250
:101E2000F2E7083CE4B2032C0AD80B4B195D094ACF
:101E3000D2F8403223F003030B43C2F84032EFE6FE
:101E400040F273710248FFF787F80021EFE700BF07
:101E50006F58000000800040BB580000EFF3108076
:101E600072B6704700B962B67047EFF31180302345
:101E700083F31188704780F3118870474FF0402238
:101E8000D36E017923F030030B43D366704770475C
:101E90002DE9F0414FF040230446D3F88420D006CA
:101EA000FBD4D3F88430C3F381139C423FD0FEF7B8
:101EB0001BFF012C05460BD11E4B984204D940F262
:101EC000F9611D48FFF748F801212846FFF744FD56
:101ED000FFF7C4FF4FF00072184B07465A662046C2
:101EE000FFF7D5FF4FF480634FF04026621E93400A
:101EF000DFF844803367736E9A0103D4D6F88430D8
:101F00009B060AD53846FFF7ADFF022C0FD12846B5
:101F1000BDE8F0410021FFF71FBDD6F884309906D7
:101F2000E9D540F207714046FFF716F8E3E7BDE850
:101F3000F08100BF005A6202C558000000600040F6
:101F400007B518B90191FEF7CFFE0199064B1B7832
:101F500043B1064B984205D8012003B05DF804EB6D
:101F6000FFF796BF0220F8E7A21D0020005A620288
:101F70004FF0004210B501244AF6CD31144B5A6699
:101F8000144A03F50B2354605A6C1964224078B943
:101F9000996811F0010F104903D08C60D86AC0070E
:101FA000FCD501234B6012B10C4B0D4A1A6410BDD5
:101FB000D96A0907FCD42021074B59620121A3F5F6
:101FC0008053996005494B6A9B06FCD5EBE700BF3F
:101FD0000090004000500940006009400040094066
:101FE0003254FFFF4FF0004238B5184B184C5A6678
:101FF000012203F50C235A604AF6CD33656C236445
:1020000043781540934013434FF04022D363A368B5
:10201000827823F0740343EA0213C278002A14BFC3
:10202000042200221343A3600279837943EA022346
:1020300023614279C37943EA022363610078FFF7A1
:1020400097FF0DB1034B2364012038BD0090004081
:10205000004009403254FFFFC36C0B42FCD1704773
:1020600008B543680246DB0714D50A2350210363F1
:10207000FFF7F2FF136C9907FCD1936A0121104618
:102080009362FFF7E9FF136C1B0604D4012302F5EA
:102090000052536008BD536BF5E7000010B50446CD
:1020A000FFF7DEFF002341F202020849E360A3606C
:1020B000226104F50052E3616361A36123626362FC
:1020C000E362A3645164A36210BD00BF7F370C01BB
:1020D00038B5154B044698420D4604D040F25D11C8
:1020E0001248FEF739FF25B92046BDE83840FFF712
:1020F000B7BF012204F580535A6040F2FF712046B9
:1021000005F00F02FFF7A8FF22637821FFF7A4FF75
:1021100005F001036A0748BF43F00203226C02F096
:1021200003029A42FAD138BD0000034A1159000057
:10213000036C1B06FCD5406BC0B27047036C5B069A
:10214000FCD5C16370470000F8B506460C4617463B
:1021500022B940F202214148FEF7FEFE404B9E426A
:1021600078D040F205213D48FEF7F6FE44B93B48E1
:102170004FF45571FEF7F0FE2046FFF7F3F80446E2
:102180007368012B04D040F237213448FEF7E4FE97
:10219000B16801F0E001402946D009D8B9B1202941
:1021A00038D040F27921BDE8F8402C48FEF7D4BE83
:1021B000602945D08029F4D107EB4703A34204D915
:1021C00040F273212548FEF7C7FE012308E0B7EB74
:1021D000141F04D940F25F212048FEF7BDFE1023F2
:1021E0007B436401B4FBF3F31E4D203BB5EBC30FFF
:1021F0004FEAC30404D24FF421711848FEF7ACFE35
:1022000030462C400121FFF727FFB462BDE8F840BB
:10221000FFF722BFB7EBD40F04D94FF419710F4861
:10222000FEF79AFE0823DBE70625B4FBF5F3BB4275
:1022300004D240F269210948FEF78EFE2B46CFE713
:10224000B7EB940F04D940F26E210448FEF784FEE8
:102250000423C5E7002C93D138208EE711590000E4
:102260000000034AF8FF7F00436870B504460D463E
:1022700016461BB140F2FF71FFF7EEFE2046FFF756
:102280000DFFE9896B7B22690B43298A22F44C52AA
:102290000B4322F0030213432361A2682B7B297EA8
:1022A00022F0804222F0E2020B4313436A69134397
:1022B000A360AB681BB9A36843F00043A360EB695C
:1022C000002B52D0A268197A42EA8152A260A26819
:1022D000997A42EA4142A2609A88A16802F4C04217
:1022E0000A43A260A268597842EA8102A260A26809
:1022F000597B42EAC102A260A268997B42EA0112BC
:10230000A260A268997842EA8122A260DA7999797A
:10231000520242EA8122E2601A7802F0FD010129AC
:1023200008BFE168A2F1020204BF41F00401E160CC
:10233000012A4FF0010294BF20492149C1F8C02071
:102340005A7A04F580510A621AB1E26842F40062D6
:10235000E260DA7A4AB1E26842F40042E2601B7B52
:10236000184A03F00F03C2F8803036B196F82030D7
:1023700004F58051ABB101238B6105212046FFF7A5
:10238000A7FEAA681AB120466968FFF7DDFE20465D
:102390002978FFF79DFE236CDB4313F4405FFAD1ED
:1023A00070BD626996F8223096F8210022F0090289
:1023B0000343134343F001034B61DEE700D40340C2
:1023C00000E403400090034038B5114B05469842A5
:1023D0000C4603D070210F48FEF7BEFD1CB97221D8
:1023E0000C48FEF7B9FD237B802B03D176210948E9
:1023F000FEF7B2FD637B032B03D979210548FEF775
:10240000ABFD21462846BDE838400022FFF72CBF2F
:102410000000034A1159000038B50D460446D8B1F2
:1024200001281CD002281CD0032803D10C23EB4028
:10243000DB0704D440F22B410B48FEF78DFD302022
:10244000012141F21003444304F1804401FA05F5EF
:1024500004F57034E55038BD40F2FF13E7E71F2361
:10246000E5E7FF23E3E700BFC056000038B50D469F
:102470000446D8B101281CD002281CD0032803D15F
:102480000C23EB40DB0704D44FF47F710B48FEF7BD
:1024900063FD3020012142F21003444304F18044E3
:1024A00001FA05F504F57034E55038BD40F2FF132C
:1024B000E7E71F23E5E7FF23E3E700BFC05600007F
:1024C00070B5054614460E46FFF7C8FC296881EA38
:1024D000040202EA06044C402C60BDE87040FFF79D
:1024E000C1BC0000F8B50D4616461F46044658B359
:1024F00001282CD002282CD0032803D10C22EA403A
:10250000D30704D44FF4B0711B48FEF725FD26B164
:1025100029462046FFB1FFF77FFF3023072D4FF0FC
:102520000F0104FB03F319D8A80006FA00F281405A
:1025300012481844FFF7C4FFE6B929462046AFB158
:10254000BDE8F840FFF768BF40F2FF12D7E71F224F
:10255000D5E7FF22D3E7FFF789FFDEE7A5F1080003
:10256000800006FA00F281400548E2E7BDE8F84045
:10257000FFF77CBFF8BD00BF6059000004C00340F6
:102580000CC00340F8B506460C4615469ABB40F20F
:102590000F11BDE8F8402F48FEF7DEBC2E4B9E42DF
:1025A00001D12F203DE040F229112A48FEF7D4FC4A
:1025B0003AE0032F42D0294B3CE06FEAC5050544C1
:1025C0002C44B4FBF0F4013C0AD540F275112148CB
:1025D000FEF7C2FC4FF4BB711E48FEF7BDFC02E0E3
:1025E000B4F5007FF6D2B3689B0702D5002C08BF74
:1025F0000124B461F8BD03F00307836823F440733A
:102600008360FFF72BFCB26882EA072303F4407370
:102610005340B360FFF726FC34B9114B9E42BDD145
:102620002E20FEF79FFE0446B3689A07C1D5032FFC
:1026300004D00C4B53F827309C4204D84FF4AF71B0
:102640000448FEF789FC084BD85D6843B5D140F2D9
:102650006F119EE7AD59000000800640085A000047
:102660000000014AFC590000145A000038B50B4B19
:10267000044698420D4607D0094B984204D040F2D8
:102680008F110848FEF768FC043425B104F5805426
:102690000123236038BD04F50054F9E70000014A26
:1026A00000800640AD59000038B5154B04469842ED
:1026B0000D4607D0134B984204D04FF4D271124804
:1026C000FEF74AFC0023114A236404F50053DA6341
:1026D0006A7804F108037AB903F5805302221A607C
:1026E0002046D5E901122B7BFFF74CFF20462978C5
:1026F000BDE83840FFF7BABF03F50053EEE700BF6F
:102700000000014A00800640AD590000FFFF1F0095
:102710002DE9F843894B98420BD0894B984226D03B
:10272000884840F2FB11FEF717FC6FF00300BDE88C
:10273000F883854B402505264FF000084FF0030C29
:10274000996800F50054C26B12F4C06F15D097055C
:102750000FD5FD225A7009221A700022026493F9E3
:102760000110012900D15A7093F90100DFE7774B7E
:10277000E0E75605EFD5FE22ECE71F78082F00F2C0
:10278000D880DFE817F009001F0041004C00690005
:10279000740096009E00CD004C880A88E5060AD594
:1027A000120A02F0060242F0F0020121197042639F
:1027B000C1600120BBE702F0FE02A10748BF42F062
:1027C0000102F2E7170607D5802100F50052D16318
:1027D0004FF608721A8062E05206EAD54A88E5632D
:1027E000D70604D502221A700B784363E1E79207FB
:1027F00065D507221A701B7901EBC3010B89012BE8
:10280000D7D10823C360D4E71706DDD45206D0D54C
:102810004A88E563970752D583F800C093E74C8850
:102820000A88E50643BF120A02F0060242F0F002EF
:1028300002F0FE02640709D51C7942F0010201EBA7
:10284000C4010989012904BF0821C160042119704C
:102850000123C3604263ACE71706B5D45706A8D579
:102860004A88E56352072AD507221A70A1E71A7928
:102870005F8801EBC20EBEF80890B94511D801324D
:10288000D2B21A714F88A3F8028017F0040FC3D197
:10289000FF0702D4012A7FF656AF08221A700223DE
:1028A000B0E7DEF80420791C5980D25D426306222D
:1028B000DBE7170688D457067FF57BAFE5631E700C
:1028C00041E794067FF575AF456A214C46691A7950
:1028D0003440B4F5003F04BF466A4FF4005601EBA4
:1028E000C20100F500540A8908BFE6632026E663AA
:1028F0005C88A24281BF4968661C5E800D5559887C
:102900008A42CAD90424012AC46004D9013A9142F6
:1029100001D10822C2601A78092A3FF41EAF48E7A5
:10292000D2057FF546AF4FF4807100F50052D163B8
:1029300011E74FF609321A800FE700BF0000014A85
:1029400000800640AD590000A41D0020B01D0020ED
:102950002000020038B5284B044698420D4644D06A
:10296000264B98423ED040F25E312548FEF7F4FAFD
:10297000002D3DD140F25F312148FEF7EDFA1E4BAC
:102980009C4228D11F4B2269D00744BF2022E2601D
:102990006A88910701D5298951B3520701D52A8A3E
:1029A00032B34FF480721A6000229D601A71C02306
:1029B000E3606369DB0513D4202204F50053DA6376
:1029C000114A2046DA63236C43F4FC632364BDE8B8
:1029D0003840FFF79DBE094B9C4209D10B4BD2E713
:1029E000636AE6E70029F9D1C4E70029CAD1C1E743
:1029F0006FF0030038BD00BF0000014A00800640B0
:102A0000AD590000A41D0020FFFF1F00B01D0020D5
:102A10004369DB01FCD4012300F50050436070479B
:102A2000022A10B54FF0000405D9033A022A0CD946
:102A30000360047110BD11F4000218BF4FF07F4213
:102A400021F07F4313430C0EF2E721F0FF03CCB2D9
:102A5000EEE70000F8B5354B044698420E461546A1
:102A600004D04FF404713248FEF776FA2046FFF79F
:102A7000CFFF33782D4803F007027378002BB3782B
:102A800018BF08214FEA031303F0300343EA02039F
:102A9000F27808BF0021002A14BF4FF48072002290
:102AA0000B431343C4F880307379E26A1B0122F0B0
:102AB000170203F0100313433279002102F00702DA
:102AC00013432A46E362844224D110290ED1012205
:102AD000002004F580535A60034604358B421BD115
:102AE000B379A0610BB10823E360F8BD9378178830
:102AF0001B0403F480333B43D7780532002F14BF07
:102B00004FF4003700273B4301F1280744F82730F2
:102B10000131D8E70021DAE703EB8307EF5D17B156
:102B200002FA03F738430133D8E700BF0040004AF8
:102B3000185A00000F4B10B598420C4604D04FF4C1
:102B40005A710D48FEF708FA34B92A20FEF70AFC3C
:102B5000012838BF01200446084804F5742404F213
:102B60003F24B4FBF0F4601E7F2828BF7F20C0B252
:102B700010BD00BF0040004A185A000040420F003C
:102B800038B5134B0C469842154604D040F29B31A1
:102B90001048FEF7E1F924B94FF467710D48FEF7CC
:102BA000DBF90D498C4228BF0C461DB92A20FEF7DF
:102BB000D9FB0546621E1544B5FBF4F0A54228BFBB
:102BC00000F1FF30032828BF0320C0B238BD00BF8A
:102BD0000040004A185A0000005A6202F8B51F4629
:102BE000184B0E469842144604D040F2D531164890
:102BF000FEF7B2F926B940F2D6311348FEF7ACF928
:102C0000124A134D002F08BF1546B54228BF35465E
:102C10001CB92A20FEF7A6FB04469DF8182040F2B6
:102C2000FF330132B4FBF2F46A1E1444B4FBF5F036
:102C3000AC4228BF00F1FF30984228BF1846C0B20E
:102C4000F8BD00BF0040004A185A00008096980066
:102C5000404B4C002DE9F04FB64B044698420E46CF
:102C6000154685B003D0D321B348FEF775F9B349B3
:102C700000222046FFF784FF7379984238BF184638
:102C80005FFA80F82046FFF7C3FE317919B9204674
:102C9000FFF750FF0146F3784FEA08721B0102F07C
:102CA000E04203F0300313430804327800F4FE00DE
:102CB00003430AB143F0020372780AB143F00403FC
:102CC000B2780AB143F008030027A360F388328981
:102CD00023617389DFF85C9243EA0243DFF880B234
:102CE00023624C4501D1022F06D1012304F5805403
:102CF000636005B0BDE8F08F00222B7890489149C1
:102D0000AE68934218BF0146CDF80080894803930E
:102D1000FFF764FFF2B2824238BF024604EB0710AD
:102D2000039B1646826C03F0030C02EA0B024CEA8A
:102D3000020295F801C039014FEA8C0C0CF01C0C12
:102D400042EA0C0295F802C04FEA0C3C0CF4E04C4D
:102D500042EA0C0295F803C04FEA0C4C0CF4E02C4C
:102D600042EA0C0295F810C04FEA4C5C0CF4600C7F
:102D700042EA0C0295F804C04FEA0C7C0CF0405C6F
:102D800042EA0C028264826C6F48C2F30232013A5A
:102D9000042A00F28980DFE802F0878787030300B6
:102DA000D0F8842107F1050A002B40F0BC8009EB24
:102DB0000103986CC0F30230431E012B624B76D89E
:102DC000DFED627AD3F8800180B24944896C20F447
:102DD000C043C1F3820E01210EF1010C01FA0CF186
:102DE00007EE101A02044FEA8343B8EEC76AF6EE04
:102DF000006A554A48BF43F00043BEF1000F74D14A
:102E0000D2F88C1109B207EE101AB8EEC77A77EE35
:102E1000877A95ED037A9FED4E5AB8EE477AC7EE62
:102E2000055AB7EE045A85EE257ADFED4A5A67EE69
:102E3000277A85EE867A9FED486A27EE067AB1EE0C
:102E4000006AB3F1004F07EE867A0BD09FED436A1C
:102E500007EE900A77EE065AFAEEE87AB0EE467A76
:102E600017EEA57AB5EEC07AF1EE10FACABFB1EE50
:102E7000477A36EEC77A37EE667AFDEEC77A17EEF6
:102E8000901AB1F5003F45DB6FEA53436FEA4343C5
:102E90004FEA0A1149F80130C6F3090609EB0A1294
:102EA0005660013714351CE7D0F880217AE70328F3
:102EB0000AD1D3F88001D3F88C31000C1B1407EE33
:102EC000903AF8EEE77A80E70428D3F884010BBF44
:102ED000D3F88C31D3F88C311B141B1407BF80B28C
:102EE0005B00000C03EB4303E9E7D2F8901166EEB8
:102EF000265A09B207EE101AB8EEC77A77EE677A4B
:102F0000D2F8881187EEA57A0AB207EE902AF8EE79
:102F1000E77A7CE711F5003FAABFC1F3110143F442
:102F200000330B43B4E74FF4F5710348FEF714F890
:102F3000B2E700BF0040004A185A0000005A62027F
:102F4000404B4C00809698000080E00F000000008D
:102F500000007A4400008043000020440000004943
:102F6000E08F18CF08B5D1F88020D1F8841002F096
:102F70000702FFF755FD08BD2DE9F04180460E46DA
:102F80001F46154622B94FF4A1713148FDF7E4FF01
:102F900026B94FF42070FEF7E5F90646402F2AD0F7
:102FA00009D8A7B1202F1CD040F28911BDE8F0410B
:102FB0002748FDF7D1BF602FF6D1B5EB960F04D9A6
:102FC00040F283112248FDF7C7FF04241DE0B5EB52
:102FD000161F04D94FF4BA711D48FDF7BDFF102428
:102FE00013E0B5EBD60F04D940F279111848FDF77C
:102FF000B3FF082409E00624B6FBF4F3AB4204D285
:103000004FF4BF711248FDF7A7FF6C43610801EB55
:103010004616B6FBF4F40F4E203CB6EBC40F4FEA55
:10302000C40504D24FF4D0710948FDF795FFD8F8D4
:103030000830354023F06003C8F80830D8F808306D
:103040001F43C8F80870C8F81C50BDE8F08100BFE5
:10305000655A0000F8FF7F0038B50E4B04469842D1
:103060000D4608D003F58043984204D040F2BE21BB
:103070000948FDF771FF012204F580535A60EB43C4
:10308000934003F00A036361656115B904F50054C8
:10309000626038BD00C00540655A0000194B10B58C
:1030A0009842044608D003F58043984204D040F289
:1030B00034411548FDF750FF012204F580535A6052
:1030C00040F6AA6341F20502636100230F49A36041
:1030D000E365E26004F500522361E361E364916417
:1030E0000849A3658C4202D00948844207D18C422A
:1030F000236502D0064B9C4201D100236365012366
:10310000536010BD00C00540655A0000FFFF01007C
:1031100000000640444B70B5984204460D4608D066
:1031200003F58043984204D040F2EF213F48FDF779
:1031300013FF2046FFF7B2FF012304F580567360AA
:10314000AB7C1BB1A36843F08043A360EB7C5BB115
:10315000354A2B7D944245D1A2F51032C2F88C310C
:10316000E36D43F08003E3652A8A6B7B20461343BB
:10317000EA891343E3602B7BD5E90112FFF7FCFEDC
:103180006B7D1BB1A36843F48033A360AB7D1BB19F
:10319000A36843F40043A360EB7D2A7E1B0712055E
:1031A00002F4E00203F0E0431343A365697E1E4A84
:1031B0008B1E012B1E4B1FD894421BD002F5804260
:1031C00094420CBF01224FF0FF3203EB4213022066
:1031D00041F21C620329985020D10423F3652B7817
:1031E000636170BD134A944204BFA2F52032C2F855
:1031F0009C31B5E70022E8E794420DD00D4A944295
:103200000CBF01224FF0FF3203EB4213022042F2C7
:103210001C6201299850DFE70022F5E7042204F53B
:103220000053DA65DBE700BF00C00540655A0000C7
:1032300000C003400000064083691B06FCD5406ABD
:10324000C0B2704783695B06FCD5C163704700005C
:1032500007B56B46054A1068516803C36846FEF718
:10326000C1FE002003B05DF804FB00BFB35A0000AC
:103270004FF0402213B50024536F684643F001031A
:10328000536700948DF80440FEF7F8FD204602B025
:1032900010BD000070B586B001AA1546184B03F1A9
:1032A0001006144618685968083303C4B34222460E
:1032B000F7D119889B782180A370124BD3F84C2149
:1032C000120314D4D3F85041E4B28DF80E40FEF747
:1032D000D5FA204480F308008DF80D000A48FDF768
:1032E00039FD2846FEF7DEF9002006B070BD074B19
:1032F0001C884FF6FF739C4208BF8C24E5E700BF93
:10330000BB5A00000080E00F00F049020001E00F0E
:103310001FB50B4A01AB1068516803C31189927A3B
:1033200019809A70192301A88DF80530FEF7ACFAC0
:103330006420FEF70BFB002005B05DF804FB00BF26
:10334000CE5A00006FF00402502110B50A480B4C11
:1033500012F0800FD3B21BBF03F00F03043BA3187E
:103360001B1802F101020CBF83F800131976402AE2
:10337000EED1002010BD00BF00ED00E000E100E054
:1033800010B50446FEF76AFD024B1C60FEF76AFDAD
:10339000002010BDBC1D002010B5FEF75FFD034BE3
:1033A0001C68FEF75FFD204610BD00BFBC1D00205D
:1033B00007B530B9CDE90012FFF7EEFFDDE90012E5
:1033C00030B1436823B1006803B05DF804EB1847DF
:1033D000232003B05DF804FB30B51C4685B058B916
:1033E000CDE90012FFF7D8FFDDE9001204B903AC04
:1033F00020B9232005B030BD03B903AC8568002D8A
:10340000F7D023460068A847F4E70EB477B507ABBA
:1034100053F8046B05460193B0B9FFF7BDFF0446AE
:1034200005463046019901F093FAAC42064602D0B7
:103430002046FFF7A5FF002ED4BF3720002003B0A1
:10344000BDE8704003B07047FFF7A6FF8542044611
:10345000E7D02846FFF794FFE3E700207047FEE738
:103460004FF4005300204B6070470120704700204C
:10347000704707B5002001AB0190FFF7ADFF019841
:10348000002808BF4FF0FF3003B05DF804FB0000D8
:1034900010B500201446FFF78BFF18B1BF2102487A
:1034A000FDF75AFD204610BDD95A000010B5002086
:1034B0001C4600F09FFB002820600CBF1B20002052
:1034C00010BD08B5002000F0D3FB002008BD0000AF
:1034D00013B500F045FC0124002300941A46194658
:1034E000184600F0DFFB002300941A4619461846E0
:1034F00000F008FC0248FFF743FF002002B010BDB7
:1035000030100020034B02221868002380681946FF
:1035100001F052B93C10002080F82410704790F858
:103520002400704770B504460568FFF735FF8442F4
:1035300002D10020FFF724FF95F92830002B11DB82
:10354000012203F01F015B099B0003F160438A40E5
:1035500003F56143C3F88021C3F88020BFF34F8F88
:10356000BFF36F8F00232846C4E90033C4E9043356
:10357000A360EB68BDE87040184790F8243070B540
:1035800005460C468E18E3B9A6420AD095F82630B7
:10359000002BF9D028462B6814F8011B9847002807
:1035A000F2D070BD95F826305BB123780A2B03D199
:1035B0000D2128462B68984728462B6814F8011BD4
:1035C0009847A642EED1ECE72DE9F7434FF000090A
:1035D000044690461E46C3F800904F1E336843458C
:1035E00005D2FEF742FCA269C2B9FEF744FC94F88A
:1035F00027305BB91123012220460DF107018DF818
:103600000730FFF7BAFF012384F827303368002B17
:103610000CBF1B20002003B0BDE8F083E1692269E4
:103620008A5C07F8012F2569226A0135954208BF97
:103630004D46A2692561013AA261FEF71CFCA36810
:1036400020469847336801333360C7E708B5FFF772
:1036500094FF002008BD0000F8B51F4653680546DA
:103660000C461646002B3ED09368002B3DD02C22F2
:103670000021204600F0E1FF73681D4AE361B36852
:103680002362337B84F82430B37B276084F82530B1
:1036900040F20113E384069B6360079BA360089BD1
:1036A000E36096F9003084F828306A60114A002BF4
:1036B000AA60114A2C602A61104A6A61104AEA60C5
:1036C0000CDB012203F01F015B099B0003F1604347
:1036D0008A4003F56143C3F880211A602846FFF74A
:1036E0004FFE0020F8BD2220FCE72120FAE700BFB2
:1036F0004D360000C9350000193500001F350000A7
:103700002535000010B50446FEF7AFFBA269236A19
:103710009A4203D2FEF7AFFB012010BDFEF7ABFBD0
:103720000020FAE773B504460D46FEF79EFB94F8B9
:10373000253006466BB1132D07D1002384F82630BF
:1037400002B0BDE87040FEF796BB112D01D10123F8
:10375000F4E7A269236A9A4204D34FF4B271134882
:10376000FDF7FAFB6369E2693046D554A2696369E3
:103770000132A261226A01339342636104BF0023D4
:103780006361FEF778FBA269236A9A420BD1132387
:10379000012220460DF107018DF80730FFF7EDFEFD
:1037A000002384F8273002B070BD00BF445B0000E6
:1037B000C26AD36C43F00403D364704710B5044667
:1037C000C26A93695906FCD5002394F833101A464F
:1037D00094F83200FEF786FE002394F835101A465E
:1037E00094F83400FEF77EFE94F83A30DA0707D5F5
:1037F000002394F837101A4694F83600FEF772FE4C
:1038000094F83A309B0707D5002394F839101A46EC
:1038100094F83800FEF766FEE06A0021FFF71CFC12
:10382000208E0021FDF774FD002010BD08B5C06A90
:10383000FFF708FD002008BD2DE9F0411C46574B5D
:1038400086B00293564B0127019300230C9D0093F1
:103850009046CDE903770A46524B2946FFF7FCFE16
:103860000646002874D123683946EB62A3883A20C3
:103870002B86E37985F83330A37985F83230637A83
:1038800085F83530237A85F83430E37A85F8373097
:10389000A37A85F83630637B85F83930237B85F849
:1038A0003830FDF735FD3B460422E179A079FEF77B
:1038B00019FE3B460222617A207AFEF713FE394652
:1038C000A088FDF725FD88F8006041462068FFF7D5
:1038D00021FC1422A37B5B0103F1804303F57033C9
:1038E000C3F81C26E179A27942EA0142C3F83426E2
:1038F000617A227A42EA0142C3F82C2685F83A60BE
:1039000098F81930032B46D8DFE803F01A02264056
:10391000012385F83A30002500230222E17AA07ABB
:10392000FEF7E0FDE37AA27AA17B42EA03421E4B56
:1039300049015A500422236803F58053DA6575B9AA
:1039400020680521C36C43F00403C364FFF784FBC4
:10395000304606B0BDE8F081022385F83A300023F6
:103960000422617B207BFEF7BDFD022541F21C6134
:10397000A27B0E4B03EB42104550607B217BB132A2
:1039800041EA004103EB42139960D9E7032385F82C
:103990003A300125C0E72326DAE700BFBD37000033
:1039A000B13700002D38000024D6034000C003408A
:1039B000C36A10B59B6904461B0610D5FFF7A2FE2B
:1039C00040B1E06AFFF738FC01462046BDE81040F0
:1039D000FFF7A8BEE26AD36C23F00403D36410BDE2
:1039E00008B5FDF777F8FDF7A5F8FDF7B3F8FDF793
:1039F000A3F8BDE80840FDF7A0B808B5FDF79FF8AB
:103A0000FDF79EF8FDF79DF8BDE80840FDF79AB870
:103A100010B50446FDF782F94FF47A729042B0FB7C
:103A2000F2F105D23621BDE810400C48FDF794BAFA
:103A30000B4BB3FBF1F30B49884201D93C21F2E770
:103A400002FB04F0B0FBF3F0022806D9BDE81040F9
:103A50000323B0FBF3F000F00BB810BDA55B000032
:103A600040420F00E7CD9A3B00000000000000003C
:103A7000013800D0FCE770470369C26893429CBFDD
:103A800080681B18013B981A70472DE9F843D0E96C
:103A900002940546A9EB04084068904520440F466F
:103AA000144404D900F0BCFDEC60BDE8F883424644
:103AB000A4EB090400F0B4FD2246686807EB080196
:103AC000F0E72DE9F8430646894617464FF000080F
:103AD000C5683469B368A54228BFE418013C621B7D
:103AE0005C1BBC4228BF3C46944228BF1446706809
:103AF00049462844224600F093FDB3682544AB4272
:103B000008BF00253F1BA044A144F560E1D1404619
:103B1000BDE8F883032310B5104C1149236163619C
:103B200004F1A803A1614FF48062E36100232262E3
:103B3000A3626362E362216604F595616166E01D3C
:103B40000849A2662367E366636700F0F9FE204632
:103B5000054900F0F5FE2023A37110BD00140020DC
:103B6000FD5B0000065C00000A5C00002DE9F84FD8
:103B7000DFF87C80824698F80030894616460BB9FB
:103B8000FFF7C8FF182707FB0A873D6FD7F86CB00F
:103B90005D452BD9BC6E796E641BB44228BF344698
:103BA00048462944224600F03BFDBB6E2544AB420B
:103BB00008BF0025A144361BABEB0502964228BF87
:103BC000164656B1182303FB0A83596E3246294420
:103BD000484600F025FD3444354424B1182000FB4C
:103BE0000A88C8F870502046BDE8F88F0024E3E743
:103BF0000014002010B50B46EFF311844FF02001A4
:103C000081F311881946FFF7B1FF84F3118810BDC5
:103C100070B5182400FB0445144B16461D4404FBE4
:103C20000033DC6A012C0ED0022C18D0E4B92846EF
:103C3000FFF722FF864204D832462846FFF725FFC9
:103C40003446204670BD2846FFF716FF86423446AC
:103C500028BF044628462246FFF717FFF1E728460B
:103C6000BDE87040FFF72DBF0024EAE700140020F4
:103C700037B50B4B0C461B782BB9CDE90002FFF78B
:103C800049FFDDE90002EFF311854FF0200181F3D8
:103C900011882146FFF7BCFF85F3118803B030BDC2
:103CA000001400202DE9F041154C1E4623780546EE
:103CB000884617460BB9FFF72DFF022D1DD8EFF3ED
:103CC000118C4FF0200181F3118865B1182005FB9C
:103CD000000344F80380E2180023576000FB05420C
:103CE000166293625362182000FB0544069BE36250
:103CF0008CF311880020BDE8F0814FF0FF30FAE727
:103D0000001400202DE9F843144E1F463378054671
:103D1000894690460BB9FFF7FDFE022D1BD8EFF345
:103D200011824FF0200181F3118855B1182400232E
:103D300004FB0564C4F86090C4F86480A766236738
:103D4000E366182000FB0565089B6B6782F311880A
:103D50000020BDE8F8834FF0FF30FAE700140020A0
:103D6000FFF7D8BE81F0004102E000BF83F00043BE
:103D700030B54FEA41044FEA430594EA050F08BF06
:103D800090EA020F1FBF54EA000C55EA020C7FEACA
:103D9000645C7FEA655C00F0E2804FEA5454D4EB47
:103DA0005555B8BF6D420CDD2C4480EA020281EA11
:103DB000030382EA000083EA010180EA020281EA49
:103DC0000303362D88BF30BD11F0004F4FEA01319B
:103DD0004FF4801C4CEA113102D0404261EB4101AA
:103DE00013F0004F4FEA03334CEA133302D0524230
:103DF00063EB430394EA050F00F0A780A4F10104EC
:103E0000D5F1200E0DDB02FA0EFC22FA05F2801825
:103E100041F1000103FA0EF2801843FA05F359410B
:103E20000EE0A5F120050EF1200E012A03FA0EFC8A
:103E300028BF4CF0020C43FA05F3C01851EBE371B4
:103E400001F0004507D54FF0000EDCF1000C7EEBD1
:103E500000006EEB0101B1F5801F1BD3B1F5001F0F
:103E60000CD349085FEA30004FEA3C0C04F101042E
:103E70004FEA445212F5800F80F09A80BCF1004F57
:103E800008BF5FEA500C50F1000041EB045141EAD9
:103E9000050130BD5FEA4C0C404141EB0101013CA2
:103EA00028BFB1F5801FE9D291F0000F04BF014691
:103EB0000020B1FA81F308BF2033A3F10B03B3F163
:103EC00020020CDA0C3208DD02F1140CC2F10C02F3
:103ED00001FA0CF021FA02F10CE002F11402D8BF51
:103EE000C2F1200C01FA02F120FA0CFCDCBF41EA1D
:103EF0000C019040E41AA2BF01EB0451294330BDEC
:103F00006FEA04041F3C1CDA0C340EDC04F11404C8
:103F1000C4F1200220FA04F001FA02F340EA03009F
:103F200021FA04F345EA030130BDC4F10C04C4F1E5
:103F3000200220FA02F001FA04F340EA03002946C5
:103F400030BD21FA04F0294630BD94F0000F83F40F
:103F5000801306BF81F480110134013D4EE77FEAF2
:103F6000645C18BF7FEA655C29D094EA050F08BF3E
:103F700090EA020F05D054EA000C04BF194610461F
:103F800030BD91EA030F1EBF0021002030BD5FEA63
:103F9000545C05D14000494128BF41F0004130BD8B
:103FA00014F580043CBF01F5801130BD01F00045DF
:103FB00045F0FE4141F470014FF0000030BD7FEA52
:103FC000645C1ABF194610467FEA655C1CBF0B464D
:103FD000024650EA013406BF52EA033591EA030F64
:103FE00041F4002130BD00BF90F0000F04BF00215C
:103FF000704730B54FF4806404F132044FF000058F
:104000004FF0000150E700BF90F0000F04BF002107
:10401000704730B54FF4806404F1320410F000456D
:1040200048BF40424FF000013EE700BF42004FEA68
:10403000E2014FEA31014FEA02701FBF12F07F43E5
:1040400093F07F4F81F06051704732F07F4208BF9C
:10405000704793F07F4F04BF41F40021704730B5A3
:104060004FF4607401F0004521F000411CE700BFEF
:1040700050EA010208BF704730B54FF000050AE072
:1040800050EA010208BF704730B511F0004502D573
:10409000404261EB41014FF4806404F132045FEA75
:1040A000915C3FF4D8AE4FF003025FEADC0C18BF1E
:1040B00003325FEADC0C18BF033202EBDC02C2F110
:1040C000200300FA03FC20FA02F001FA03FE40EAA2
:1040D0000E0021FA02F11444BDE600BF70B54FF0A6
:1040E000FF0C4CF4E06C1CEA11541DBF1CEA135584
:1040F00094EA0C0F95EA0C0F00F0DEF82C4481EAEC
:10410000030621EA4C5123EA4C5350EA013518BF0B
:1041100052EA033541F4801143F4801338D0A0FBF8
:1041200002CE4FF00005E1FB02E506F00042E0FBA5
:1041300003E54FF00006E1FB03569CF0000F18BFAB
:104140004EF0010EA4F1FF04B6F5007F64F5407453
:1041500004D25FEA4E0E6D4146EB060642EAC621E6
:1041600041EA55514FEAC52040EA5E504FEACE2E53
:10417000B4F1FD0C88BFBCF5E06F1ED8BEF1004F56
:1041800008BF5FEA500E50F1000041EB045170BDD2
:1041900006F0004646EA010140EA020081EA030116
:1041A000B4EB5C04C2BFD4EB0C0541EA045170BD12
:1041B00041F480114FF0000E013C00F3AB8014F18C
:1041C000360FDEBF002001F0004170BDC4F10004D5
:1041D000203C35DA0C341BDC04F11404C4F1200556
:1041E00000FA05F320FA04F001FA05F240EA0200B1
:1041F00001F0004221F0004110EBD37021FA04F6E7
:1042000042EB06015EEA430E08BF20EAD37070BDA0
:10421000C4F10C04C4F1200500FA04F320FA05F0FF
:1042200001FA04F240EA020001F0004110EBD37001
:1042300041F100015EEA430E08BF20EAD37070BD71
:10424000C4F1200500FA05F24EEA020E20FA04F34A
:1042500001FA05F243EA020321FA04F001F00041F9
:1042600021FA04F220EA020000EBD3705EEA430E6A
:1042700008BF20EAD37070BD94F0000F0FD101F099
:104280000046400041EB010111F4801F08BF013CD2
:10429000F7D041EA060195F0000F18BF704703F010
:1042A0000046520043EB030313F4801F08BF013D97
:1042B000F7D043EA0603704794EA0C0F0CEA135553
:1042C00018BF95EA0C0F0CD050EA410618BF52EA0D
:1042D0004306D1D181EA030101F000414FF0000013
:1042E00070BD50EA410606BF1046194652EA430621
:1042F00019D094EA0C0F02D150EA013613D195EA95
:104300000C0F05D152EA03361CBF104619460AD1DC
:1043100081EA030101F0004141F0FE4141F47001E6
:104320004FF0000070BD41F0FE4141F4780170BDD6
:1043300070B54FF0FF0C4CF4E06C1CEA11541DBF3B
:104340001CEA135594EA0C0F95EA0C0F00F0A7F83D
:10435000A4EB050481EA030E52EA03354FEA01316A
:1043600000F088804FEA03334FF0805545EA13137D
:1043700043EA12634FEA022245EA111545EA106545
:104380004FEA00260EF000419D4208BF964244F1DC
:10439000FD0404F5407402D25B084FEA3202B61AFB
:1043A00065EB03055B084FEA32024FF480104FF4CF
:1043B000002CB6EB020E75EB030E22BFB61A754643
:1043C00040EA0C005B084FEA3202B6EB020E75EBD6
:1043D000030E22BFB61A754640EA5C005B084FEA3E
:1043E0003202B6EB020E75EB030E22BFB61A75460B
:1043F00040EA9C005B084FEA3202B6EB020E75EB16
:10440000030E22BFB61A754640EADC0055EA060ED6
:1044100018D04FEA051545EA16754FEA06164FEA19
:10442000C30343EA52734FEAC2025FEA1C1CC0D1C5
:1044300011F4801F0BD141EA00014FF000004FF052
:10444000004CB6E711F4801F04BF01430020B4F113
:10445000FD0C88BFBCF5E06F3FF6AFAEB5EB030CCB
:1044600004BFB6EB020C5FEA500C50F1000041EBC8
:10447000045170BD0EF0004E4EEA113114EB5C0495
:10448000C2BFD4EB0C0541EA045170BD41F4801168
:104490004FF0000E013C90E645EA060E8DE60CEA70
:1044A000135594EA0C0F08BF95EA0C0F3FF43BAF8D
:1044B00094EA0C0F0AD150EA01347FF434AF95EA44
:1044C0000C0F7FF425AF104619462CE795EA0C0F28
:1044D00006D152EA03353FF4FDAE1046194622E7F5
:1044E00050EA410618BF52EA43067FF4C5AE50EACF
:1044F00041047FF40DAF52EA43057FF4EBAE12E7BF
:104500004FEA410212F5001215D211D56FF47873FB
:10451000B3EB625212D94FEAC12343F0004343EA9E
:10452000505311F0004F23FA02F018BF4042704779
:104530004FF00000704750EA013005D111F0004003
:1045400008BF6FF0004070474FF00000704700BF99
:104550004A0011D212F5001211D20DD56FF4787302
:10456000B3EB62520ED44FEAC12343F0004343EA57
:10457000505323FA02F070474FF00000704750EAA2
:10458000013002D14FF0FF3070474FF0000070470C
:1045900008B5074B044613B1002100E000BF054BEE
:1045A0001868836A03B198472046FEF758FF00BF9A
:1045B00000000000145C000070B50D4D00260D4C8D
:1045C000641BA410A64209D10B4D00260B4C01F030
:1045D0006BF8641BA410A64205D170BD55F8043BCE
:1045E00001369847EEE755F8043B01369847F2E765
:1045F000A0100020A0100020A0100020A410002077
:10460000024B0146186800F06DB800BF3C10002056
:10461000024B0146186800F019B800BF3C1000209A
:104620000A44431E914200D1704710B511F8014B66
:10463000914203F8014FF9D110BD02440346934261
:1046400000D1704703F8011BF9E7000037B50029D6
:1046500043D051F8043C0C1F0190002BB8BFE41864
:1046600000F0ACFB1E4A0198136833B96360146014
:1046700003B0BDE8304000F0A7BBA34208D92568CD
:1046800061198B4201BF19685B6849192160EDE728
:104690001A465B680BB1A342FAD911685518A542B6
:1046A0000BD12468214454181160A342E0D11C6846
:1046B0005B68214453601160DAE702D90C23036080
:1046C000D6E7256861198B4202BF19685B684919F2
:1046D000636008BF21605460CAE703B030BD00BF0B
:1046E000C01D0020F8B5CD1C064625F00305083591
:1046F0000C2D38BF0C25002D01DBA94203D90C235A
:1047000033600020F8BD00F059FB21490A681446C7
:104710009CB9204F3B6823B92146304600F03CF855
:1047200038602946304600F037F8431C23D10C236B
:104730003046336000F048FBE3E723685B1B17D487
:104740000B2B03D923601C44256004E06368A2425C
:104750000CBF0B605360304600F036FB04F10B00D9
:10476000231D20F00700C21ACCD01B1AA350C9E7A2
:1047700022466468CCE7C41C24F00304A042E3D0C2
:10478000211A304600F008F80130DDD1CFE700BF34
:10479000C01D0020C41D002038B50023054D04466F
:1047A00008462B60FCF7F8FA431C02D12B6803B1D2
:1047B000236038BDCC1D00202DE9F7431D465C4B1E
:1047C00004460E461F68904627B1BB6913B93846A8
:1047D00000F0EEF9574B9C4267D17C68B8F1020FAC
:1047E00006D0B8F1010F00F29E80002DC0F29B8030
:1047F000636EDB0705D4A389980502D4A06D00F091
:1048000075FA2146384600F03FF9616B41B104F179
:104810004403994202D03846FFF718FF0023636330
:104820000023A3616360A389190603D52169384673
:10483000FFF70CFFA389B8F1020F23F44A6323F0BA
:104840000303A3816BD001AB6A462146384600F0D2
:104850004FFAA3891843A081002D30D1009D28462E
:10486000FFF7CEFE0646002854D1DDF80090A9459A
:1048700049D14FF0FF350022B4F90C30A26004F1A9
:10488000470243F00203226022610122A381626198
:10489000626ED20705D413F4007F02D1A06D00F040
:1048A00026FA284603B0BDE8F083234B9C4201D191
:1048B000BC6893E7214B9C4208BFFC688EE7002E42
:1048C000CDD0BB6913B9384600F072F9B8F1010FC9
:1048D000266002BFA38943F00103A381A28912F0DD
:1048E0000803C4E904651CD0D30745BF00236D420B
:1048F000A560A36048BFA561656E15F0010515D1DF
:1049000012F4007FC9E74846FFF77AFE0646002802
:10491000AFD04D46A38943F08003A381D1E70025A2
:10492000A9E7A360E8E74FF0FF35BAE70025B8E74D
:104930003C100020385C0000585C0000185C00004F
:10494000034611F8012B03F8012B002AF9D1704717
:1049500013B50B46094902460C6844B1A16931B947
:10496000CDE90003204600F023F9DDE90023A1682A
:10497000204602B0BDE8104000F056BA3C100020BE
:104980008A892DE9F041054610070C4658D44B683A
:10499000002B05DC0B6C002B02DC0020BDE8F08155
:1049A000E66A002EF9D0002312F480522F682B60A3
:1049B00032D0606DA3895A0705D56368C01A636B4E
:1049C0000BB1236CC01A00230246E66A2846216A0E
:1049D000B047431CA38906D129681D292CD8294A30
:1049E000CA40D60728D50022D90462602269226015
:1049F00004D5421C01D12B6803B96065616B2F603F
:104A00000029CAD004F14403994202D02846FFF796
:104A10001DFE00206063C1E7216A01232846B047DC
:104A2000411CC7D12B68002BC4D01D2B01D0162BE5
:104A300001D12F60B1E7A38943F04003A381ADE723
:104A40000F69002FA9D093070E680F600CBF4B6948
:104A50000023A6EB07088B60B8F1000F9DDD4346ED
:104A60003A46216A2846A66AB047002806DCA38990
:104A70004FF0FF3043F04003A3818FE70744A8EBDA
:104A80000008E9E70100402038B50B6905460C46EF
:104A900013B90025284638BD18B183690BB900F059
:104AA00087F8144B9C421BD16C68B4F90C30002B76
:104AB000EFD0626ED00704D4990502D4A06D00F047
:104AC00015F928462146FFF75BFF636E0546DA07B6
:104AD000E0D4A3899B05DDD4A06D00F008F9D9E7E7
:104AE000054B9C4201D1AC68DFE7044B9C4208BFF8
:104AF000EC68DAE7385C0000585C0000185C0000E5
:104B0000002310B504468360818119464366C28143
:104B100008228361C0E90033C0E904335C30FFF749
:104B20008CFD054B24626362044BA362044BE36279
:104B3000044B236310BD00BFB5530000D7530000E2
:104B40000F54000033540000014900F0AFB800BF1B
:104B5000894A000070B568224D1E0E46554305F186
:104B60007401FFF7BFFD044640B1002105F1680262
:104B7000C0E900160C30A060FFF75FFD204670BD55
:104B8000014800F0B3B800BFC91D0020014800F083
:104B9000AEB800BFC91D0020014800F0A7B800BF93
:104BA000CA1D0020014800F0A2B800BFCA1D0020A5
:104BB00010B50446FFF7F0FFA3691BB1BDE8104034
:104BC000FFF7F0BFC4E9123323652046124B134AA6
:104BD0001B68A262A34204BF0123A36100F020F876
:104BE0006060204600F01CF8A060204600F018F835
:104BF00000220421E0606068FFF782FF01220921A2
:104C0000A068FFF77DFF02221221E068FFF778FF1E
:104C10000123A361D2E700BF145C0000494B0000F0
:104C2000F8B50746FFF7ACFF1E4B1E68B36913B912
:104C30003046FFF7BDFF4836D6E90134013B03D5C6
:104C400033680BB33668F7E7B4F90C50D5B9164B97
:104C500004F158006566E36000F047F8FFF796FF3F
:104C60000822294604F15C002560A561C4E90155CC
:104C7000C4E90455FFF7E1FCC4E90D55C4E9125538
:104C80002046F8BD6834D9E704213846FFF762FFB3
:104C9000044630600028D5D1FFF778FF0C233B6035
:104CA000EEE700BF145C00000100FFFF2DE9F843B0
:104CB0000646884600F148040027D4E90195B9F179
:104CC000010905D52468002CF7D13846BDE8F883E2
:104CD000AB89012B07D9B5F90E30013303D0294632
:104CE0003046C04707436835E9E77047704770476B
:104CF00070B50E46B1F90E1096B0144600291D4647
:104D000008DAB6F90C3000222A601A0610D44FF4E3
:104D100080630EE06A4600F073FC0028F1DB019A24
:104D200002F47042A2F500535A425A412A60EEE75B
:104D300040230020236016B070BD00008B8973B53E
:104D40009D0706460C4607D504F1470323602361FF
:104D50000123636102B070BD01AB6A46FFF7C8FF73
:104D6000009905463046FFF7BDFC48B9B4F90C3050
:104D70009A05EFD423F0030343F00203A381E3E792
:104D80000D4BB362A389206043F080032061A381AF
:104D9000009B6361019B5BB1B4F90E10304600F0DB
:104DA00041FC28B1A38923F0030343F00103A3814D
:104DB000A0890543A581CDE7494B00000148FFF7D5
:104DC00095BF00BFC81D00200148FFF790BF00BF7E
:104DD000C81D00209368013B002B936010B408DAD3
:104DE0009469A34201DB0A2903D15DF8044B00F06A
:104DF00025BB1368581C1060084619705DF8044BF9
:104E00007047F8B506460F461446D518AC4201D196
:104E1000002007E03A4614F8011B3046FFF7DAFF9E
:104E2000431CF3D1F8BD00002DE9F04F0D469DB0B5
:104E300014469846064618B183690BB9FFF7B8FEC9
:104E4000894B9D421BD175686B6ED90705D4AB8920
:104E50009A0502D4A86DFFF749FFAB891B0701D55E
:104E60002B69EBB92946304600F04CFBC0B16B6EA4
:104E7000DC070ED54FF0FF301DB0BDE8F08F7B4B47
:104E80009D4201D1B568DFE7794B9D4208BFF568C7
:104E9000DAE7AB899805EDD4A86DFFF728FFE9E7BD
:104EA0000023CDF80C804FF00109DFF8C881099389
:104EB00020238DF8293030238DF82A3023469A4656
:104EC00013F8012B0AB1252AF9D1BAEB040B0BD048
:104ED0005B46224629463046FFF793FF013000F03B
:104EE000AA80099A5A4409929AF80030002B00F0DF
:104EF000A28000234FF0FF320AF1010A04930793C6
:104F00008DF853301A93CDE90523544605225948AC
:104F100014F8011B00F0A8FB049AD8B9D10644BFCD
:104F200020238DF85330130744BF2B238DF85330C3
:104F30009AF800302A2B15D0079A544600204FF0DB
:104F40000A0C214611F8013B303B092B4ED9B0B178
:104F5000079214E0A0EB0803A24609FA03F31343F7
:104F60000493D2E7039B191D1B68002B0391BBBF61
:104F70005B4242F0020207930793B8BF0492237882
:104F80002E2B0CD163782A2B35D1039B02341A1DAA
:104F90001B68002B0392B8BF4FF0FF330593DFF877
:104FA000E4A003222178504600F05EFB40B140238C
:104FB000A0EB0A00013403FA00F0049B03430493BE
:104FC00014F8011B06222C488DF8281000F04CFB29
:104FD00000283FD0294B1BBB039B073323F007035B
:104FE00008330393099B3B44099367E70CFB0232A8
:104FF0000C460120A5E7002301344FF00A0C1946A6
:105000000593204610F8012B303A092A03D9002BCA
:10501000C5D00591C3E70CFB012104460123F0E74D
:1050200003AB2A4604A930460093154B00E000BFAD
:105030000746781CD6D16B6ED90705D4AB899A0583
:1050400002D4A86DFFF753FEAB895B063FF512AFA4
:10505000099811E703AB2A4604A930460093084B90
:1050600000F082F8E4E700BF385C0000585C000004
:10507000185C0000785C0000825C0000000000000A
:10508000034E00007E5C00002DE9F047164699466D
:105090008A6807460B690C46DDF820809342B8BF4A
:1050A0001346336091F843200AB10133336023681B
:1050B000990642BF336802333360256815F0060550
:1050C00006D104F1190AE36832689B1AAB4229DC65
:1050D00094F84320131E226818BF012392062ED491
:1050E00004F1430249463846C047013021D02368C5
:1050F0001A3454F80E5C03F0060332680026042BC1
:1051000054F8123C08BFAD1A54F80A2C14BF0025FD
:1051100025EAE5759342C4BF9B1AED18B5421AD132
:10512000002008E00123524649463846C047013076
:1051300003D14FF0FF30BDE8F0870135C3E7E11838
:105140005A1C30200233224481F8430094F8451061
:1051500082F84310C4E70123224649463846C04737
:105160000130E6D00136D9E72DE9FF470F7E9146A1
:1051700080460C46782F9A460C9D01F1430207D8D1
:10518000622F0AD8002F00F0D880582F00F0A3809B
:1051900004F1420584F842703AE0A7F16303152B4D
:1051A000F6D801A151F823F0015200001552000079
:1051B0009151000091510000915100009151000067
:1051C00015520000915100009151000091510000D2
:1051D000915100002153000045520000035300008C
:1051E0009151000091510000435300009151000083
:1051F0004552000091510000915100000B530000F6
:105200002B681A1D1B682A6004F1420584F842309D
:105210000123A3E020682968060601F104030AD5EA
:105220000E682B60002E03DA2D23764284F843307B
:105230005E480A2319E00E6810F0400F2B6018BF7B
:1052400036B2EFE72B682068191D2960010601D5E9
:105250001E6802E04606FBD51E886F2F53480CBF20
:1052600008230A23002184F843106568002DA560F7
:10527000A2BF216821F0040121600EB9002D4DD09C
:105280001546B6FBF3F103FB1167C75D05F8017D19
:1052900037460E46BB42F4D9082B0BD12368DE07F4
:1052A00008D5236961689942DEBF302305F8013CC7
:1052B00005F1FF35521B22614B4603AA21464046A9
:1052C000CDF800A0FFF7E0FE01304CD14FF0FF30E9
:1052D00004B0BDE8F087354881F845702968236837
:1052E00051F8046B29601D0614D5DF0744BF43F055
:1052F000200323601EB9236823F0200323601023BA
:10530000B0E7236843F0200323607823284884F81B
:105310004530E3E7590648BFB6B2E6E71546BBE7B6
:105320002B682668181D6169286035061B6801D541
:10533000196002E07006FBD5198000231546236131
:10534000BAE72B6800211A1D2A601D68626828468A
:1053500000F08AF908B1401B606063682361002394
:1053600084F84330A8E723692A4649464046D04797
:105370000130ABD023689B0713D4E068039B9842AD
:10538000B8BF1846A4E70123324649464046D047F5
:1053900001309BD00135E36803995B1AAB42F2DC24
:1053A000EBE7002504F11906F5E700BF895C000072
:1053B0009A5C000010B50C46B1F90E1000F062F9CD
:1053C0000028ABBF636DA3891B1823F48053ACBFC7
:1053D0006365A38110BD2DE9F0411F468B89054609
:1053E0000C46DB05164605D502230022B1F90E1046
:1053F00000F028F9A3893246B4F90E10284623F4A8
:105400008053A3813B46BDE8F04100F069B810B578
:105410000C46B1F90E1000F015F9431CA38915BF15
:10542000606523F4805343F48053A38118BFA381A4
:1054300010BDB1F90E1000F0D3B80000F8B50E465B
:105440001446054618B183690BB9FFF7B1FB214B30
:105450009C422BD16C68A369A360A3891A072FD53E
:1054600023696BB32369F6B220683746C01A6369B3
:10547000834204DC21462846FFF706FB30BBA368C5
:105480000130013BA36023685A1C22601E706369CF
:10549000834204D0A389DB0706D50A2E04D1214616
:1054A0002846FFF7F1FA88B93846F8BD0A4B9C4206
:1054B00001D1AC68CFE7094B9C4208BFEC68CAE752
:1054C0002146284600F01EF80028CBD04FF0FF37C9
:1054D000EAE700BF385C0000585C0000185C000080
:1054E00038B50446064D0846114600222A601A4681
:1054F000FDF7CEFF431C02D12B6803B1236038BDFA
:10550000CC1D0020324B70B51D6806460C4625B1F7
:10551000AB6913B92846FFF74BFB2E4B9C420FD1CA
:105520006C68A389B4F90C2019072CD4DD0611D4BA
:105530000923336042F040034FF0FF30A3813EE087
:10554000254B9C4201D1AC68EBE7244B9C4208BF41
:10555000EC68E6E7580712D5616B41B104F14403EA
:10556000994202D03046FFF771F800236363A389A4
:1055700023F02403A3810023636023692360A389AC
:1055800043F00803A38123694BB9A38903F4207373
:10559000B3F5007F03D021463046FFF7CFFBA0894B
:1055A000B4F90C2010F001030AD00023A360636952
:1055B0005B42A361236943B910F08000BAD170BD8A
:1055C000810758BF6369A360F4E70020F7E700BFD5
:1055D0003C100020385C0000585C0000185C0000A3
:1055E00038B50023054D044608462B60FDF735FF0E
:1055F000431C02D12B6803B1236038BDCC1D0020B1
:1056000038B50023064D0446084611462B60FDF7C9
:1056100027FF431C02D12B6803B1236038BD00BFB4
:10562000CC1D002038B50023054D044608462B60EC
:10563000FDF71BFF431C02D12B6803B1236038BD6B
:10564000CC1D002038B50446064D08461146002200
:105650002A601A46FDF70BFF431C02D12B6803B1E9
:10566000236038BDCC1D0020C9B2024410B5904261
:10567000034601D1002303E01C7801308C42F6D1AF
:10568000184610BD38B50446064D0846114600229E
:105690002A601A46FDF7EDFE431C02D12B6803B1C8
:1056A000236038BDCC1D0020F8B500BFF8BC08BC95
:1056B0009E467047F8B500BFF8BC08BC9E467047D0
:1056C000633A5C75736572735C64756E67635C7373
:1056D000696D706C696369747973747564696F5C02
:1056E00073646B735C6765636B6F5F73646B315C72
:1056F000706C6174666F726D5C656D6C69625C691B
:105700006E635C656D5F6770696F2E68007631004F
:105710003030303030303030303030303030303089
:1057200030303030303030300000000005000000F4
:105730000000000000C20100000200000010000094
:105740000000000000000000000000005B495D2038
:10575000004C696768743A2025640A0048756D69D1
:10576000643A2025640A0054656D703A2025640A65
:1057700000536F696C2048756D69646974792025E0
:1057800064200A0000000200000000000000000089
:10579000BA04000000000000000002000000000049
:1057A00000000000BA040000000000002E2E2F614F
:1057B00075746F67656E2F736C5F696F7374726554
:1057C000616D5F696E69745F75736172745F696E34
:1057D0007374616E6365732E630000000500000042
:1057E0000000000000C201000005000000100000E1
:1057F0000000000000000000000006402900000535
:1058000000060008000701000F100000641D0020C2
:105810002000000000010000433A2F5573657273A9
:105820002F64756E67632F53696D706C696369745B
:105830007953747564696F2F53444B732F67656395
:105840006B6F5F73646B312F706C6174666F726D18
:105850002F6472697665722F69326373706D2F736E
:1058600072632F736C5F69326373706D2E630043D4
:105870003A2F55736572732F64756E67632F536982
:105880006D706C696369747953747564696F2F53B3
:10589000444B732F6765636B6F5F73646B312F705D
:1058A0006C6174666F726D2F656D6C69622F7372B7
:1058B000632F656D5F636D752E6300020101030345
:1058C0000206010504433A2F55736572732F647500
:1058D0006E67632F53696D706C6963697479537473
:1058E0007564696F2F53444B732F6765636B6F5FEC
:1058F00073646B312F706C6174666F726D2F656DA0
:105900006C69622F7372632F656D5F656D752E63B1
:1059100000433A2F55736572732F64756E67632F5A
:1059200053696D706C696369747953747564696FD8
:105930002F53444B732F6765636B6F5F73646B31D9
:105940002F706C6174666F726D2F656D6C69622F5C
:105950007372632F656D5F6575736172742E63007A
:10596000433A2F55736572732F64756E67632F53B7
:10597000696D706C696369747953747564696F2FAC
:1059800053444B732F6765636B6F5F73646B312F89
:10599000706C6174666F726D2F656D6C69622F73C8
:1059A00072632F656D5F6770696F2E6300433A2FD6
:1059B00055736572732F64756E67632F53696D70CD
:1059C0006C696369747953747564696F2F53444BC0
:1059D000732F6765636B6F5F73646B312F706C61DE
:1059E00074666F726D2F656D6C69622F7372632FB1
:1059F000656D5F6932632E630000000080841E00C5
:105A0000404B4C00809FD50080841E00405489008C
:105A1000002D310108091108433A2F55736572733F
:105A20002F64756E67632F53696D706C6963697459
:105A30007953747564696F2F53444B732F67656393
:105A40006B6F5F73646B312F706C6174666F726D16
:105A50002F656D6C69622F7372632F656D5F69616D
:105A600064632E6300433A2F55736572732F647518
:105A70006E67632F53696D706C69636974795374D1
:105A80007564696F2F53444B732F6765636B6F5F4A
:105A900073646B312F706C6174666F726D2F656DFE
:105AA0006C69622F7372632F656D5F7573617274B9
:105AB0002E630001030401010109030B0B02000026
:105AC000202000038C8C3C00000000000000012618
:105AD000040000010000000000433A2F5573657276
