:1000000000100020CD050000CB050000CB0500004E
:10001000CB050000CB050000CB050000CB050000A0
:10002000CB050000CB050000CB050000CB05000090
:10003000CB050000CB050000CB050000CB05000080
:10004000CB050000CB050000CB050000CB05000070
:10005000CB050000CB050000CB050000350A0000F1
:10006000CB050000CB050000CB050000CB05000050
:10007000CB050000CB050000CB05000021050000EA
:100080002D050000CB050000CB050000CB050000CE
:10009000CB050000CB050000CB050000CB05000020
:1000A000CB050000CB050000CB050000CB05000010
:1000B000CB050000CB050000CB050000CB05000000
:1000C000CB050000CB050000CB050000CB050000F0
:1000D000CB050000CB050000CB050000CB050000E0
:1000E000CB050000CB050000CB050000CB050000D0
:1000F000CB050000CB050000CB050000CB050000C0
:10010000CB050000CB050000CB050000CB050000AF
:10011000CB050000CB050000CB050000CB0500009F
:10012000CB050000CB050000CB050000CB0500008F
:10013000CB050000CB050000CB050000CB0500007F
:1001400010B5054C237833B9044B13B1044800E0D3
:1001500000BF0123237010BD9C1000200000000090
:100160000C45000008B5034B1BB10349034800E0F0
:1001700000BF08BD00000000A01000200C450000DA
:10018000A3F5803A704700BF174B002B08BF134BF5
:100190009D46FFF7F5FF00218B460F461348144A92
:1001A000121A02F079FE0E4B002B00D098470D4B2F
:1001B000002B00D098470020002104000D000D48BE
:1001C000002802D00C4800E000BF02F041FE2000F1
:1001D000290000F07DF802F027FE00BF00000800B3
:1001E0000000000000000000001000209C10002013
:1001F000541100200000000000000000704770470C
:10020000024B586CC0F30010704700BF00C00340A1
:100210000422012310B504241146184601F002FD02
:10022000104B12201C6400F0D9FB01232146184614
:100230001A4601F0F7FC282000F0D0FBFFF7E0FFA2
:1002400068B9282000F0CAFBFFF7DAFF021E18BFCA
:100250000122FFF7D5FF0028FBD1104610BD002278
:10026000F7E700BF00E00340012370B51A46042100
:10027000184601F0D7FC072500240126FFF7C0FF30
:100280000028FBD0282000F0A9FBFFF7B9FF06FAF1
:1002900005F35BB264B250B124EA0304E4B2FFF7A1
:1002A000AFFF0028FBD1013DE8D2204670BD1C43C2
:1002B000F4E708B5FFF7ACFFFFF7D6FFFFF7D4FF71
:1002C000FFF7D2FFFFF7D0FFFFF7CEFF80B208BDE8
:1002D0002DE9F041364C02F0D5FBFFF78FFF00F01F
:1002E00047F900F046F93349206802F00CF900F0B4
:1002F000FDFA00F03DF900F03CF92F49206802F0CA
:1003000002F901212F2000F083FD01213A2000F0A5
:100310007FFD00F02DF900F02CF92849206802F04B
:10032000F2F800F025F900F024F92549206802F0E0
:10033000EAF800F01DF900F01CF92249206802F0EB
:10034000E2F800F015F900F014F91F49206802F0F6
:10035000DAF800F00DF900F00CF91A49206802F003
:10036000D2F81A4E1A4FDFF87080FFF748FF00F0FE
:10037000FFF800F0FEF83146206802F0C4F8FFF7FD
:1003800098FF0546032000F0D3F860B13946206895
:1003900002F0B9F800F0ECF800F0EBF82A4641461C
:1003A000206802F0B0F80B4B013BFDD1DDE700BF48
:1003B0002C1100201C3F0000263F0000303F0000B1
:1003C000803F00003A3F0000823F0000CA3F00002B
:1003D000D33F00007F969800D83F0000704708B5D3
:1003E0000321802001F0D8F803214FF4806001F050
:1003F000D3F803214FF4906001F0CEF808214FF4B8
:10040000C06001F0C9F808214FF4F06001F0C4F8B1
:1004100008213E2001F0C0F808212D2001F0BCF891
:10042000002008BD08B5134B1B68C3F30743012B1D
:100430000ED1114B04205A6E4FF480230F49520302
:1004400058BF0F4A4B6601F51041086258BF53660A
:1004500001F0F6FF00F0B5F801F078FF01F098FF29
:1004600001F0D4FFFFF7BBFF01F080FFBDE80840BB
:1004700000F09EB80080E00F008000400090004037
:1004800000A0004000F00CB808B500F08FF802F0B2
:100490008BF8BDE8084000F041B8704700F06AB83A
:1004A00008B53A20012100F0B3FCBDE8084001483E
:1004B00000F01EB90010002070B5144C92B00BADC6
:1004C0000FCC0FC594E80700032385E8070003AEAF
:1004D0008DF8453007AD04F10C031C340FCB86E8D2
:1004E0000F0094E80F0085E80F00094B29460093A0
:1004F000084833460BAA02F0F1F9044618B18721E7
:10050000054800F0A9FA204612B070BD1040000066
:10051000B810002014110020E23F0000FFF7CCBF0C
:10052000014B186802F096BA14110020FFF7F8BFCB
:100530000B4B02461B788BB10A4B1B78834234BFAE
:1005400000200120084B1B783BB1084B1B7843FA75
:1005500002F212F0010F08BF002070470120F1E7FE
:10056000141000201510002030110020161000205B
:1005700070477047012208B5074B1A700022074BDD
:100580001A700422064B1A701F22064B1A7001F0D3
:1005900081FF054B186008BD1410002030110020A9
:1005A00015100020161000202C1100200F2070477D
:1005B00008B501213A2000F02BFCBDE80840FFF708
:1005C0000DBF01213A2000F023BCFEE708B500F082
:1005D00013F8064B064A07498B4201D3FFF7D4FDB7
:1005E00052F8040B43F8040BF6E700BF001000209C
:1005F000144500009C100020044B054A9A60D3F873
:10060000882042F47002C3F88820704700ED00E0B3
:1006100000000000014B1868704700BF1C1000204C
:10062000084B1B6F03F00703022B04D0032B05D0EC
:10063000012B05D0FEE7044B18687047034BFBE71E
:1006400003487047008000401C100020201000204C
:10065000002D310108B5FFF7E3FF054B1B6FC3F316
:1006600003330133B0FBF3F0024B186008BD00BF49
:1006700000800040181000200048704700B4C404F7
:10068000014B1868704700BF20100020054B186010
:10069000054B1B6F03F00703032B01D1FFF7DABFF4
:1006A000704700BF201000200080004000207047ED
:1006B00000487047002D31014FF4004070474FF45F
:1006C0007A707047014B1868704700BF24100020F3
:1006D00005490A681318054883428CBF4FF0FF3262
:1006E0000B601046704700BF2810002000800020DB
:1006F0002DE9FF47044618B93121584800F0ACF9FC
:100700002368574A93420AD0564A934200F08380A6
:100710004721524804B0BDE8F04700F09DB92E20B3
:10072000012100F075FB01230A226179207901F093
:1007300079FA01230A22E179A07901F073FA0927F5
:100740004FF00108DFF82491474D267994F805A071
:10075000002E62D0012E63D0022E63D0032E04D16E
:100760000C2323FA0AF3DA0704D44FF47F714846C6
:1007700000F072F9302202FB065642F2100208FA2B
:100780000AF3B350642002F08BF9267994F805A09F
:10079000002E49D0012E4AD0022E4AD0032E04D179
:1007A0000C2323FA0AF3DB0704D440F22B4148461A
:1007B00000F052F9302202FB065641F2100208FA0C
:1007C0000AF36420B35002F06BF9013FBDD12068F9
:1007D000234B98422FD10323C5F8903462792379B3
:1007E00043EA0243C5F89434E279A37943EA024329
:1007F000C5F8983440F20113ADF80030E36869465B
:100800000293A3680193237C8DF80C3001F0ECFA7D
:1008100004B0BDE8F0872F2082E740F2FF13A0E785
:100820001F239EE7FF239CE740F2FF13B9E71F2336
:10083000B7E7FF23B5E70B4B9842DBD10323C5F89D
:10084000A0346279237943EA0243C5F8A434E279FB
:10085000A37943EA0243C5F8A834CBE74C40000033
:100860000000014A0080064000C00340A240000092
:10087000F8B50746174C01F078F8174B656A1B6806
:1008800006469F422CBFED19ED18236BADB2DB0776
:1008900004D440F21731114800F0DEF81022104B5A
:1008A000A5665A61A36930461343A36101F063F85A
:1008B0000C4A0D4913783BB100231370054A936924
:1008C00023F010039361F8BD0B6923F004030B615F
:1008D00030BFEFE70080044038110020EE400000F8
:1008E00000A004403C11002000ED00E070B50124A0
:1008F00088B00E22002104A802F0CEFA0D220021B9
:1009000068468DF8104002F0C7FA02232146294CB0
:1009100024208DF8063000F07BFA6A46002120463C
:1009200001F04EFB236BDB0704D440F28B412248DD
:1009300000F092F84FF6FF73E36100231D4C1F4D4A
:10094000ADF81230204604A901F0E2FA4FF48060BD
:1009500000F088FABDF812300133B0FBF3F09BB21F
:10096000B3F5806F2860ADF8123002D2144B984274
:10097000E8D8002000F076FA2E680025114C2946B0
:10098000B4FBF0F410480023E6FB04010F4A02F028
:10099000BBF80F4B074A18600E4B28461D70936931
:1009A00023F01003936180220B4BC3F880211A605F
:1009B00008B070BD00800440EE40000034110020FB
:1009C00080841E0000B0710B20A1070040420F0080
:1009D000381100203C11002000E100E00021F8B5B2
:1009E000104B114C1D68114AE5FB004100232046C5
:1009F00002F08AF84FF6E95704460D460C4EBC4209
:100A000075F1000305D2A0B208B1FFF731FF002055
:100A1000F8BD4FF6E850FFF72BFFA41965F100056C
:100A2000EDE700BF3411002020A1070040420F0075
:100A30001802FFFF054B5B69DB0605D51022044B4E
:100A40005A610122034B1A70704700BF00800440B6
:100A500000A004403C110020FEE74FF04023D3F8F3
:100A60008420D206FBD4D3F88400C0F381107047F1
:100A700038B5124B0546D3F820310C4603F003037A
:100A8000022B0BD0032B0DD0012B0FD1FFF7C2FD92
:100A9000052305B1286004B1237038BDFFF7F0FDD0
:100AA0000323F6E7FFF704FE0223F2E7044840F6CB
:100AB000BE71FFF7D1FF00231846EAE7008000402F
:100AC0003B410000F7B50024114B0194D3F880514D
:100AD000074605F00305012D0E4607D0022D11D063
:100AE00041F2E2010B48FFF7B7FF04E0214601A8FD
:100AF000FFF7BEFF0F240FB1019B3B6006B13470BE
:100B000003B0F0BDFFF7D4FD2C460190F3E700BF22
:100B1000008000403B41000038B5194B0546D3F832
:100B200024310C4603F00703013B052B20D8DFE8F6
:100B300003F0030F171B0B13FFF76CFD052305B123
:100B4000286004B1237038BDFFF764FD0623F6E783
:100B5000FFF796FD0323F2E7FFF792FD0423EEE78C
:100B6000FFF7A6FD0223EAE7FFF7A0FD0723E6E76C
:100B7000044840F64651FFF76FFF00231846DEE7B2
:100B8000008000403B41000038B5124B0546D3F8C9
:100B900040310C4603F00303022B0BD0032B0DD086
:100BA000012B0FD1FFF788FD092305B1286004B19F
:100BB000237038BDFFF786FD0823F6E7FFF77FFDBA
:100BC0000B23F2E7044840F6EC71FFF745FF0023E2
:100BD0001846EAE7008000403B41000038B5154B5D
:100BE0000546D3F800320C4603F00703013B032B04
:100BF00018D8DFE803F0020A0E12FFF75DFD0923A3
:100C000005B1286004B1237038BDFFF75BFD0823F0
:100C1000F6E7FFF754FD0B23F2E7FFF71BFD0E236A
:100C2000800AEDE7044841F29811FFF715FF002311
:100C30001846E5E7008000403B41000038B5124B04
:100C40000546D3F840320C4603F00303022B0BD0C9
:100C5000032B0DD0012B0FD1FFF72EFD092305B17A
:100C6000286004B1237038BDFFF72CFD0823F6E798
:100C7000FFF725FD0B23F2E7044841F22B11FFF7A4
:100C8000EBFE00231846EAE7008000403B410000ED
:100C900038B5124B0546D3F860310C4603F0030318
:100CA000022B0BD0032B0DD0012B0FD1FFF704FD2E
:100CB000092305B1286004B1237038BDFFF702FD98
:100CC0000823F6E7FFF7FBFC0B23F2E7044841F2A9
:100CD0001A01FFF7C1FE00231846EAE70080004032
:100CE0003B41000010B40F4C0B46D4F8204204F0F6
:100CF0000304012C0ED0022C10D008B10021016099
:100D00000BB100221A704FF4576107485DF8044B8D
:100D1000FFF7A2BE5DF8044BFFF7AABE5DF8044BD7
:100D2000FFF732BF008000403B410000B0F5207F5C
:100D300010B534D009D8B0F5007F2AD003D898B1C7
:100D4000B0F5C07F10D0002421E0B0F5607FFAD16B
:100D5000154BD3F88030C3F301149B0617D5032C31
:100D600015D04FF41D710FE00F4B1C6F230B13F0C8
:100D70000E0FC4F303340AD0032C08D0072C06D07E
:100D80000F2C04D04FF419710848FFF765FE601C62
:100D900010BD054BD3F89040C4F30464F7E7024B51
:100DA0001C6FC4F38024F2E7008000403B41000048
:100DB0004FF400320F4B70B59A66064600200D4680
:100DC000FFF7B4FF41F671320B4B7043DC690B49FE
:100DD000DA639A68884204F4803422F4401203D91A
:100DE000012D18BF42F480129A600CB10022DA6320
:100DF00070BD00BF0090004000000340005A620236
:100E000008B5FFF739FCBDE808400021FFF7D0BF67
:100E100070B5460904460D460FD140F205310D4824
:100E2000FFF71AFE334604F01F0485B103F5805323
:100E3000012000FA04F41C6070BD012E05D0064BA1
:100E4000064A022E18BF1346EDE7054BEBE703F504
:100E50000053EDE73B4100006880004060820040A5
:100E600064800040002330B5802885B0044602939A
:100E700075D02BD8002878D0A0F12004A3B2412B44
:100E800032D8412C30D8DFE804F070737073868656
:100E900086867373903FA7653F7373732F2F2F2F31
:100EA0002F2F8B57737373B1AC732F2F2F2F2F2FBF
:100EB0002F2F2F2F2F2F2F702F707070862F2F2FE7
:100EC0002F2F2F2F2F2F2F2F2F2F7070B0F5806FD8
:100ED00061D024D8B0F5007F54D00BD8B0F5807F16
:100EE00068D0B0F5C07F40D040F25A414248FFF789
:100EF000B3FD37E0B0F5607F44D0F5D8B0F5207F82
:100F000036D0B0F5407FEFD1FFF7A4FB04464FF495
:100F10002070FFF70BFFB4FBF0F0400821E0B0F5C4
:100F2000C06F59D00DD8B0F5A06F39D0B0F5B06F03
:100F30003BD0B0F5906FD7D1002102A8FFF7ECFDB0
:100F400010E0B0F5E06F4CD0B0F5F06F4ED0B0F5DA
:100F5000D06FC9D1002102A8FFF740FE02E0FFF7E1
:100F60005FFB0290029805B030BDFFF773FBF8E716
:100F7000FFF770FB04464FF42070FFF7D7FEB4FB79
:100F8000F0F0EEE7FFF74CFB05462046FFF7CEFEFC
:100F9000B5FBF0F0E5E7002102A8FFF769FDE1E706
:100FA000002102A8FFF79EFEDCE7002102A8FFF760
:100FB00089FDD7E703934FF0E0231B695B0705D555
:100FC000FFF748FB0390039B0293CBE70DF107016A
:100FD00003A8FFF7D9FDF6E7002102A8FFF7D4FD2B
:100FE000C0E7002102A8FFF729FEBBE7002102A805
:100FF000FFF74EFEB6E700BF3B41000008B580207A
:10100000FFF730FF034B98429EBF4FF48032024BF4
:101010001A6708BD005A620200A00040002307B50D
:10102000B0F5807F8DF8023000F0888028D838280D
:1010300000F0A8800CD8243883B2092B10D80928D6
:101040000ED8DFE800F0757575750D0D6B0D378FD7
:1010500052286DD007D83D283CD03E2800F098801B
:1010600040F2365156E08028FAD14C4B1B6F03F00A
:101070000703013B032B4BD8DFE803F048444280D1
:10108000B0F5D06F6ED01BD8B0F5A06F7AD00BD86A
:10109000B0F5806F4CD0B0F5906FE1D100200DF12C
:1010A0000201FFF739FD3EE0B0F5B06F36D0B0F584
:1010B000C06FD5D100200DF10201FFF765FD32E0D0
:1010C000B0F5006FEAD00BD8B0F5E06F60D0B0F5A6
:1010D000F06FC5D100200DF10201FFF7D9FD22E02C
:1010E000B0F5086FBCD12D4BD3F8003103F00303EA
:1010F000022B3DD0032B3FD0012B41D1FFF7C0FA8B
:10110000032300E005238DF802300CE00223FAE708
:1011100040F28C412248FFF79FFC04E000200DF1D3
:101120000201FFF7CFFC9DF8020003B05DF804FB5D
:1011300000200DF10201FFF79BFCF4E701934FF053
:10114000E0231B695B0707D5FFF784FA0C238DF8B2
:1011500003309DF80330D6E70DF1030101A8FFF736
:1011600013FDF6E700200DF10201FFF737FDDAE786
:10117000FFF7A8FA0823C6E7FFF798FA0723C2E7A4
:101180000123C0E700200DF10201FFF7ABFDCAE724
:1011900000200DF10201FFF751FDC4E7008000407F
:1011A0003B41000070B5037804460F2B04D940F68C
:1011B00021216B48FFF750FC63780F2B04D940F6D0
:1011C00024216748FFF748FCA3780F2B04D940F689
:1011D00027216348FFF740FCE3780F2B04D940F642
:1011E0002A215F48FFF738FC23790F2B04D940F6FA
:1011F0002D215B48FFF730FC63793F2B04D94FF476
:1012000023615748FFF728FCA3793F2B04D940F608
:1012100033215348FFF720FCE379032B04D940F630
:1012200036214F48FFF718FC237A032B04D940F6E8
:1012300039214B48FFF710FC637B012B04D940F6A2
:101240003C214748FFF708FC8020FFF7E7FE032812
:101250007CD04FF40022434B43495A6645F60E03B7
:101260000222C1F88030414B9A62012203F580537B
:101270009A628A6D12F48032FBD1637820781B0564
:1012800043EA0063A079257C0343E078667C43EA67
:101290000043207943EA0033607943EA80130B610D
:1012A0008B69E07A03F000430343E07943EA80630B
:1012B000207A43EA0063607A43EA0043A07A43EA73
:1012C00000238B61637B096A002B18BF0822207BF7
:1012D00021F00D0143EA010343EA800342EA0302DD
:1012E000214B1A62A27B4FEA421230D1986AE17B0D
:1012F00020F0330042EA0112024342F001029A62F6
:101300001B4A996D32EA0101FBD1022217498A6218
:101310001A659A6D5200FCD41869A27820F4700006
:1013200040EA02504FF000421861104B9A611DB91B
:10133000022203F580539A6216B901220D4B9A627C
:10134000A37C1BB1084B0C4AC3F8802070BD996A7E
:1013500021F0330131430A4342EA4502EFE700BF7F
:101360003B4100000090004000C0004000D0004021
:101370000300014000E00040F1A7FFFF014B93F99B
:10138000000070473D11002010B583780446072BFC
:1013900004D940F69F312A48FFF75EFBE378032B20
:1013A00004D940F6A1312648FFF756FB2378032BDA
:1013B00004D940F6A3312248FFF74EFB94F90130DF
:1013C000002B04DA40F6A5311D48FFF745FB4FF42A
:1013D00080011C4A637851664FF4D151022002F516
:1013E000B832516218494F2B48604FF0010028BFB6
:1013F0004F2301F5805148601169C903FCD421785D
:1014000043EA01235361E378A1781B0143EA0123F6
:1014100061790B43217943EA41039360E379A17930
:101420001B0143EA4113617A0B43217A43EA4103EA
:101430005360A37A13B16FF4D153536210BD00BF50
:101440003B4100000090004000100240014B18801A
:10145000704700BF2C1000200029CCBF01210021C3
:10146000FFF7A6BCB0F5207F10B565D00ED8B0F55B
:10147000007F4FD003D800B3B0F5C07F1DD04FF42C
:101480003A71BDE810403448FFF7E6BAB0F5607F26
:10149000F5D14C1E012C06D9042904D040F2CD21EF
:1014A0002D48FFF7D9FA2D4AD2F8803023F03003C7
:1014B00043EA0413C2F8803010BD102901F1FF3453
:1014C00004D8274B23FA01F1CB0704D440F2A3211F
:1014D0002148FFF7C1FAFFF793FC00F045F84FF4FD
:1014E0008031204B1D4A1967136F23F4704343EA80
:1014F00004331367FFF7AEF80446FFF7AEFAC0F106
:1015000002012046FFF7A8FF00F034F8BDE81040C4
:10151000FFF774BD4C1E1F2C04D94FF437710E48D1
:10152000FFF79AFA0D4BD3F8901021F0F85141EAE9
:101530000461C3F89010BFE74C1E012C04D940F29F
:10154000E2210548FFF788FA044B196F21F4806106
:1015500041EA84211967AFE73B4100000080004069
:10156000160101000090004002214FF42070FFF7A7
:1015700079BF000008B54FF4C070FFF773FCBDE8F9
:101580000840044988428CBF022101214FF4207099
:10159000FFF768BF80F0FA02B0F5807F70B50C46A7
:1015A00000F00C812CD8382800F0A48111D8243800
:1015B00083B2092B16D8092814D8DFE810F0E4000C
:1015C000E400E400E40013001300CF00130049001E
:1015D0005301522800F0D78007D83D2853D03E2829
:1015E00000F09F8140F6250122E18028FAD18B1E70
:1015F000052B00F2A880DFE803F0A394A6AEA6674F
:10160000B0F5D06F00F02E8132D8B0F5A06F00F0A9
:10161000718116D8B0F5806F00F0B580B0F5906F8D
:10162000E0D1023CE4B2052C00F21581A84B195D13
:10163000A84AD2F8243123F007030B43C2F824311F
:101640006EE0B0F5B06F00F08980B0F5C06FC9D121
:10165000083CE4B2032C00F2F0809F4B195D9D4AD8
:10166000D2F8403123F003030B43C2F8403157E076
:10167000B0F5006FD5D016D8B0F5E06F00F051810D
:10168000B0F5F06FAED1083CE4B2032C00F2DC8080
:10169000924B195D8F4AD2F8603123F003030B435C
:1016A000C2F860313CE0B0F5086F9BD14C1E072CAE
:1016B00000F20481DFE814F00701020109010201D0
:1016C000020102010001F60000250426012102208A
:1016D00000F05EF9FFF794FBFFF746FF4FF480310F
:1016E0007F4B7C4A1967136F23F00703334313675B
:1016F000FEF7B0FF0646FFF7B0F9C0F10201304631
:10170000FFF7AAFE0121002000F09AF9FFF732FF4F
:10171000FFF774FC25B9032C02D10122714B9A62A8
:1017200070BD4FF400226E4B03265A66012203F56A
:1017300040539D6A03F58053C5F340059A62C5E79F
:1017400000250126C2E7002540F277516648FFF7E1
:1017500083F92E46BAE700250226B7E7022C07D008
:101760000F2C0ED040F2BC515F48FFF775F90024F2
:10177000584AD2F8803123F003031C43C2F8804159
:10178000CEE70124F4E7032C12D0052C12D0022C52
:1017900012D040F2F3515448FFF75EF900224D4950
:1017A000D1F8203123F003031343C1F82031B7E708
:1017B0000222F4E70122F2E70322F0E7A1F1080494
:1017C000082C33D8DFE804F0050532051C3232322C
:1017D00005004FF480323F4B4449586E03F5805367
:1017E0005A660B6A43F001030B62C1035CBF404BB6
:1017F0005A664FF0E022136923F0040313618FE768
:101800004FF48032334B3949586E03F580535A6692
:101810000B6A23F001030B62C3035CBF344B5A66AF
:101820004FF0E022136943F00403E7E740F21B6145
:10183000BDE870402C48FFF70FB940F237612A48E5
:10184000FFF70AF900210AE740F252612648FFF744
:1018500003F900211EE740F277612348FFF7FCF807
:101860000021E5E6083C062C13D8DFE804F0041953
:10187000190E1212100002221649D1F8003223F07C
:1018800007031343C1F800324AE70322F4E70422B6
:10189000F2E740F297611448FFF7DEF80022EBE729
:1018A0000122E9E702220B49D1F8003123F00303BA
:1018B0001343C1F8003133E70322F4E740F2D36168
:1018C0000948FFF7C9F80022EDE70122EBE700BF66
:1018D0008A410000008000408641000086410000EF
:1018E0000090004000E000403B41000000C0074085
:1018F00000A000400F2C10D0102C10D040F2197115
:101900001348FFF7A9F800221249D1F8203223F03A
:1019100003031343C1F8203202E70122F4E7022255
:10192000F2E7083CE4B2032C0AD80B4B195D094AD4
:10193000D2F8403223F003030B43C2F84032EFE603
:1019400040F273710248FFF787F80021EFE700BF0C
:101950003B4100000080004086410000EFF3108012
:1019600072B6704700B962B67047EFF3118030234A
:1019700083F31188704780F3118870474FF040223D
:10198000D36E017923F030030B43D3667047704761
:101990002DE9F0414FF040230446D3F88420D006CF
:1019A000FBD4D3F88430C3F381139C423FD0FEF7BD
:1019B00037FE012C05460BD11E4B984204D940F24C
:1019C000F9611D48FFF748F801212846FFF744FD5B
:1019D000FFF7C4FF4FF00072184B07465A662046C7
:1019E000FFF7D5FF4FF480634FF04026621E93400F
:1019F000DFF844803367736E9A0103D4D6F88430DD
:101A00009B060AD53846FFF7ADFF022C0FD12846BA
:101A1000BDE8F0410021FFF71FBDD6F884309906DC
:101A2000E9D540F207714046FFF716F8E3E7BDE855
:101A3000F08100BF005A6202904100000060004047
:101A400007B518B90191FEF7EBFD0199064B1B781C
:101A500043B1064B984205D8012003B05DF804EB72
:101A6000FFF796BF0220F8E73E110020005A6202FD
:101A70004FF0004210B501244AF6CD31144B5A669E
:101A8000144A03F50B2354605A6C1964224078B948
:101A9000996811F0010F104903D08C60D86AC00713
:101AA000FCD501234B6012B10C4B0D4A1A6410BDDA
:101AB000D96A0907FCD42021074B59620121A3F5FB
:101AC0008053996005494B6A9B06FCD5EBE700BF44
:101AD000009000400050094000600940004009406B
:101AE0003254FFFF4FF0004238B5184B184C5A667D
:101AF000012203F50C235A604AF6CD33656C23644A
:101B000043781540934013434FF04022D363A368BA
:101B1000827823F0740343EA0213C278002A14BFC8
:101B2000042200221343A3600279837943EA02234B
:101B300023614279C37943EA022363610078FFF7A6
:101B400097FF0DB1034B2364012038BD0090004086
:101B5000004009403254FFFF38B50D460446D8B165
:101B600001281CD002281CD0032803D10C23EB40F1
:101B7000DB0704D440F22B410B48FEF76DFF302009
:101B8000012141F21003444304F1804401FA05F5B8
:101B900004F57034E55038BD40F2FF13E7E71F232A
:101BA000E5E7FF23E3E700BFA240000038B50D469C
:101BB0000446D8B101281CD002281CD0032803D128
:101BC0000C23EB40DB0704D44FF47F710B48FEF786
:101BD00043FF3020012142F21003444304F18044CA
:101BE00001FA05F504F57034E55038BD40F2FF13F5
:101BF000E7E71F23E5E7FF23E3E700BFA24000007C
:101C000070B5054614460E46FFF7A8FE296881EA1E
:101C1000040202EA06044C402C60BDE87040FFF765
:101C2000A1BE0000F8B50D4616461F46044658B33F
:101C300001282CD002282CD0032803D10C22EA4002
:101C4000D30704D44FF4B0711B48FEF705FF26B14B
:101C500029462046FFB1FFF77FFF3023072D4FF0C5
:101C60000F0104FB03F319D8A80006FA00F2814023
:101C700012481844FFF7C4FFE6B929462046AFB121
:101C8000BDE8F840FFF768BF40F2FF12D7E71F2218
:101C9000D5E7FF22D3E7FFF789FFDEE7A5F10800CC
:101CA000800006FA00F281400548E2E7BDE8F8400E
:101CB000FFF77CBFF8BD00BFDB41000004C003405C
:101CC0000CC00340F8B506460C4615469ABB40F2D8
:101CD0000F11BDE8F8402F48FEF7BEBE2E4B9E42C6
:101CE00001D12F203DE040F229112A48FEF7B4FE31
:101CF0003AE0032F42D0294B3CE06FEAC50505448A
:101D00002C44B4FBF0F4013C0AD540F27511214893
:101D1000FEF7A2FE4FF4BB711E48FEF79DFE02E0E7
:101D2000B4F5007FF6D2B3689B0702D5002C08BF3C
:101D30000124B461F8BD03F00307836823F4407302
:101D40008360FFF70BFEB26882EA072303F4407357
:101D50005340B360FFF706FE34B9114B9E42BDD12C
:101D60002E20FFF77FF80446B3689A07C1D5032FEA
:101D700004D00C4B53F827309C4204D84FF4AF7179
:101D80000448FEF769FE084BD85D6843B5D140F2C0
:101D90006F119EE72742000000800640804200004D
:101DA0000000014A744200008C42000038B50B4B21
:101DB000044698420D4607D0094B984204D040F2A1
:101DC0008F110848FEF748FE043425B104F580540D
:101DD0000123236038BD04F50054F9E70000014AEF
:101DE000008006402742000038B5154B0446984253
:101DF0000D4607D0134B984204D04FF4D2711248CD
:101E0000FEF72AFE0023114A236404F50053DA6327
:101E10006A7804F108037AB903F5805302221A6044
:101E20002046D5E901122B7BFFF74CFF204629788D
:101E3000BDE83840FFF7BABF03F50053EEE700BF37
:101E40000000014A0080064027420000FFFF1F00FB
:101E50000B4B984211D003F5804398420DD003F507
:101E60008043984209D003F58043984205D003F59A
:101E70008043C31A5842584170470120704700BF41
:101E800000800440F8B51F461A4B0E46984215468E
:101E90001ED003F5804398421CD003F5804398423E
:101EA0001AD003F58043984218D003F58043984236
:101EB00016D011488221FEF7CFFD4FF0FF300621EA
:101EC0000E4C7FB101FB006004EB8000C560F8BDE3
:101ED0000020F4E70120F2E70220F0E70320EEE71C
:101EE0000420ECE701FB00602D0204EB8004E560B8
:101EF000EDE700BF008004409042000000810340F5
:101F0000036BDA0702D503695B06F9D4704700005A
:101F100038B505460C46FFF79BFF18B9A5212748A1
:101F2000FEF79AFD2846FFF7EBFF012205F5005367
:101F30001A63237961881B0243EA8143617A0B4368
:101F40006178002914BF402100210B43A17A0029A8
:101F500014BF802100210B43E17A002914BF202106
:101F600000210B43217B002914BF102100210B43CA
:101F7000617B002914BF082100210B43A1790029AE
:101F800014BF4FF4803100210B436B6005F5805383
:101F90001A6322780AB90223EB6000236B62E179AD
:101FA000237A43EA81036179002914BF10210021BB
:101FB0000B43AB600AB10123EB6038BD90420000D7
:101FC000F8B506460F461446FFF742FF18B9F5214B
:101FD0002748FEF741FD022F03D9F6212448FEF7DA
:101FE0003BFD3046FFF78CFF012206F500531A63D4
:101FF000E279E57A002A627A14BF4FF48011002159
:10200000002A14BF10220022A37943EAC5430B43E0
:10201000134306EB47152B66237A2BB3237B2A6EDB
:10202000394642EA43422A66013B18BF0123A2789F
:10203000FFF728FF012306F5805633636378227883
:102040001B0643EA8263E27843EA0233227943EAD9
:102050008223627943EA0223A27A002A14BF04226F
:10206000002213436B66F8BD2B6E2B66E2E700BFC0
:10207000904200002DE9F04180460E461F4615466D
:1020800022B94FF4A1713148FEF7E6FC26B94FF4AE
:102090002070FEF7E7FE0646402F2AD009D8A7B1E8
:1020A000202F1CD040F28911BDE8F0412748FEF7EF
:1020B000D3BC602FF6D1B5EB960F04D940F2831153
:1020C0002248FEF7C9FC04241DE0B5EB161F04D915
:1020D0004FF4BA711D48FEF7BFFC102413E0B5EBB6
:1020E000D60F04D940F279111848FEF7B5FC082440
:1020F00009E00624B6FBF4F3AB4204D24FF4BF71FF
:102100001248FEF7A9FC6C43610801EB4616B6FBCA
:10211000F4F40F4E203CB6EBC40F4FEAC40504D2D2
:102120004FF4D0710948FEF797FCD8F808303540D5
:1021300023F06003C8F80830D8F808301F43C8F807
:102140000870C8F81C50BDE8F08100BFDD420000F7
:10215000F8FF7F0038B50E4B044698420D4608D074
:1021600003F58043984204D040F2BE210948FEF7AF
:1021700073FC012204F580535A60EB43934003F053
:102180000A036361656115B904F50054626038BDE6
:1021900000C00540DD420000194B10B598420446CE
:1021A00008D003F58043984204D040F234411548EA
:1021B000FEF752FC012204F580535A6040F6AA63F0
:1021C00041F20502636100230F49A360E365E26009
:1021D00004F500522361E361E36491640849A36557
:1021E0008C4202D00948844207D18C42236502D038
:1021F000064B9C4201D1002363650123536010BD4F
:1022000000C00540DD420000FFFF01000000064065
:10221000444B70B5984204460D4608D003F5804300
:10222000984204D040F2EF213F48FEF715FC2046CB
:10223000FFF7B2FF012304F580567360AB7C1BB13E
:10224000A36843F08043A360EB7C5BB1354A2B7DF0
:10225000944245D1A2F51032C2F88C31E36D43F0BF
:102260008003E3652A8A6B7B20461343EA89134384
:10227000E3602B7BD5E90112FFF7FCFE6B7D1BB100
:10228000A36843F48033A360AB7D1BB1A36843F420
:102290000043A360EB7D2A7E1B07120502F4E002D7
:1022A00003F0E0431343A365697E1E4A8B1E012B96
:1022B0001E4B1FD894421BD002F5804294420CBFA3
:1022C00001224FF0FF3203EB4213022041F21C6265
:1022D0000329985020D10423F3652B78636170BDE6
:1022E000134A944204BFA2F52032C2F89C31B5E7EC
:1022F0000022E8E794420DD00D4A94420CBF01221F
:102300004FF0FF3203EB4213022042F21C6201291C
:102310009850DFE70022F5E7042204F50053DA6560
:10232000DBE700BF00C00540DD42000000C0034005
:102330000000064083691B06FCD5406AC0B27047A6
:1023400083695B06FCD5C1637047000007B56B4627
:10235000054A1068516803C36846FFF7C3FB0020B5
:1023600003B05DF804FB00BF2A4300004FF0402299
:1023700013B50024536F684643F00103536700947C
:102380008DF80440FFF7FAFA204602B010BD0000B5
:1023900070B586B001AA1546184B03F11006144615
:1023A00018685968083303C4B3422246F7D1198824
:1023B0009B782180A370124BD3F84C21120314D4C4
:1023C000D3F85041E4B28DF80E40FEF7D7FF204419
:1023D00080F308008DF80D000A48FEF757F92846EB
:1023E000FEF7E0FE002006B070BD074B1C884FF6DC
:1023F000FF739C4208BF8C24E5E700BF3243000016
:102400000080E00F00F049020001E00F1FB50B4A09
:1024100001AB1068516803C31189927A19809A70D0
:10242000192301A88DF80530FEF7AEFF6420FFF7F1
:102430000DF8002005B05DF804FB00BF4543000027
:102440006FF00402502110B50A480B4C12F0800FB7
:10245000D3B21BBF03F00F03043BA3181B1802F1F8
:1024600001020CBF83F800131976402AEED1002038
:1024700010BD00BF00ED00E000E100E010B5044633
:10248000FFF76CFA024B1C60FFF76CFA002010BDDE
:102490004011002010B5FFF761FA034B1C68FFF7ED
:1024A00061FA204610BD00BF4011002007B530B9C9
:1024B000CDE90012FFF7EEFFDDE9001230B143680D
:1024C00023B1006803B05DF804EB1847232003B084
:1024D0005DF804FB30B51C4685B058B9CDE9001253
:1024E000FFF7D8FFDDE9001204B903AC20B92320BF
:1024F00005B030BD03B903AC8568002DF7D0234685
:102500000068A847F4E70EB477B507AB53F8046B3F
:1025100005460193B0B9FFF7BDFF044605463046B6
:10252000019900F085FDAC42064602D02046FFF737
:10253000A5FF002ED4BF3720002003B0BDE87040B7
:1025400003B07047FFF7A6FF85420446E7D0284650
:10255000FFF794FFE3E700207047FEE74FF40053D6
:1025600000204B607047012070470020704707B57E
:10257000002001AB0190FFF7ADFF0198002808BFD4
:102580004FF0FF3003B05DF804FB000010B50020F1
:102590001446FFF78BFF18B1BF210248FEF75CFA23
:1025A000204610BD50430000034B02221868002350
:1025B0008068194600F078BC3010002080F82410A4
:1025C000704790F82400704770B504460568FFF71F
:1025D00061FF844202D10020FFF750FF95F92830B7
:1025E000002B11DB012203F01F015B099B0003F1AB
:1025F00060438A4003F56143C3F88021C3F880201B
:10260000BFF34F8FBFF36F8F00232846C4E9003319
:10261000C4E90433A360EB68BDE87040184790F844
:10262000243070B505460C468E18E3B9A6420AD090
:1026300095F82630002BF9D028462B6814F8011B9A
:1026400098470028F2D070BD95F826305BB123780A
:102650000A2B03D10D2128462B68984728462B6862
:1026600014F8011B9847A642EED1ECE72DE9F74399
:102670004FF00009044690461E46C3F800904F1ED6
:102680003368434505D2FFF770F9A269C2B9FFF775
:1026900072F994F827305BB91123012220460DF11D
:1026A00007018DF80730FFF7BAFF012384F82730C0
:1026B0003368002B0CBF1B20002003B0BDE8F08363
:1026C000E16922698A5C07F8012F2569226A0135D0
:1026D000954208BF4D46A2692561013AA261FFF704
:1026E0004AF9A36820469847336801333360C7E747
:1026F00008B5FFF794FF002008BD0000F8B51F469D
:10270000536805460C461646002B3ED09368002BB6
:102710003DD02C220021204600F0BEFB73681D4AEC
:10272000E361B3682362337B84F82430B37B276092
:1027300084F8253040F20113E384069B6360079B15
:10274000A360089BE36096F9003084F828306A6043
:10275000114A002BAA60114A2C602A61104A6A6152
:10276000104AEA600CDB012203F01F015B099B00A9
:1027700003F160438A4003F56143C3F880211A6086
:102780002846FFF77BFE0020F8BD2220FCE7212031
:10279000FAE700BFF12600006D260000BD2500000D
:1027A000C3250000C925000010B50446FFF7DDF879
:1027B000A269236A9A4203D2FFF7DDF8012010BD17
:1027C000FFF7D9F80020FAE773B504460D46FFF786
:1027D000CCF894F8253006466BB1132D07D10023B1
:1027E00084F8263002B0BDE87040FFF7C4B8112D60
:1027F00001D10123F4E7A269236A9A4204D34FF47A
:10280000B2711348FEF728F96369E2693046D5547E
:10281000A26963690132A261226A01339342636152
:1028200004BF00236361FFF7A6F8A269236A9A42F6
:102830000BD11323012220460DF107018DF807303B
:10284000FFF7EDFE002384F8273002B070BD00BF13
:10285000BA430000C26AD36C43F00403D3647047E8
:1028600010B50446C26A93695906FCD5002394F852
:1028700033101A4694F83200FFF7D4F9002394F885
:1028800035101A4694F83400FFF7CCF994F83A3032
:10289000DA0707D5002394F837101A4694F8360063
:1028A000FFF7C0F994F83A309B0707D5002394F856
:1028B00039101A4694F83800FFF7B4F9E06A00219D
:1028C000FFF748FC208E0021FEF7A2FA002010BD81
:1028D00008B5C06AFFF734FD002008BD2DE9F041BE
:1028E0001C46574B86B00293564B01270193002399
:1028F0000C9D00939046CDE903770A46524B29463A
:10290000FFF7FCFE0646002874D123683946EB62C7
:10291000A3883A202B86E37985F83330A37985F8AC
:102920003230637A85F83530237A85F83430E37AAB
:1029300085F83730A37A85F83630637B85F83930EF
:10294000237B85F83830FEF763FA3B460422E179B1
:10295000A079FFF767F93B460222617A207AFFF7F8
:1029600061F93946A088FEF753FA88F800604146BD
:102970002068FFF74DFC1422A37B5B0103F1804329
:1029800003F57033C3F81C26E179A27942EA0142CB
:10299000C3F83426617A227A42EA0142C3F82C262F
:1029A00085F83A6098F81930032B46D8DFE803F031
:1029B0001A022640012385F83A300025002302221E
:1029C000E17AA07AFFF72EF9E37AA27AA17B42EAB4
:1029D00003421E4B49015A500422236803F58053D9
:1029E000DA6575B920680521C36C43F00403C3643C
:1029F000FFF7B0FB304606B0BDE8F081022385F852
:102A00003A3000230422617B207BFFF70BF902257B
:102A100041F21C61A27B0E4B03EB42104550607BE0
:102A2000217BB13241EA004103EB42139960D9E7BF
:102A3000032385F83A300125C0E72326DAE700BFF3
:102A40006128000055280000D128000024D603404A
:102A500000C00340C36A10B59B6904461B0610D52D
:102A6000FFF7A2FE40B1E06AFFF764FC0146204692
:102A7000BDE81040FFF7A8BEE26AD36C23F0040360
:102A8000D36410BD08B5FDF7CDFCFDF7FBFCFDF7E9
:102A9000FBFCFDF702FDBDE80840FDF7FFBC0000B0
:102AA00010B50446FDF7D6FD4FF47A729042B0FBA4
:102AB000F2F105D23621BDE810400C48FDF7CCBF3D
:102AC0000B4BB3FBF1F30B49884201D93C21F2E7F0
:102AD00002FB04F0B0FBF3F0022806D9BDE8104079
:102AE0000323B0FBF3F000F00BB810BD1A44000054
:102AF00040420F00E7CD9A3B0000000000000000BC
:102B0000013800D0FCE7704753B94AB9002908BF23
:102B100000281CBF4FF0FF314FF0FF3000F082B9AA
:102B2000ADF1080C6DE904CE00F006F8DDF804E024
:102B3000DDE9022304B070472DE9F04F099D0446FA
:102B40000F46002B48D18A42944661D9B2FA82F3EB
:102B500043B1C3F120019F4002FA03FC9C4020FADC
:102B600001F10F434FEA1C411FFA8CFE220CB7FB08
:102B7000F1F601FB167706FB0EF042EA074290429F
:102B800008D91CEB020206F1FF3702D2904200F294
:102B900037813E46121AA4B2B2FBF1F001FB1022BB
:102BA00000FB0EFE44EA0244A64508D91CEB0404CF
:102BB00000F1FF3202D2A64500F21C81104640EA25
:102BC0000640A4EB0E0400261DB1DC400023C5E93D
:102BD00000433146BDE8F08F8B4209D9002D00F04B
:102BE000FD800026C5E9000130463146BDE8F08F82
:102BF000B3FA83F6002E4BD18B42C0F0F2808242B2
:102C000040F2EF803046002DE3D0C5E90047E0E711
:102C100002B9FFDEB2FA82F3002B40F09D80891AE0
:102C20004FEA124E97B20126200CB1FBFEF20EFBCA
:102C3000121140EA014107FB02F088420FD91CEB58
:102C4000010102F1FF382CBF4FF001094FF00009DC
:102C5000884203D9B9F1000F00F0CF804246091A2B
:102C6000A4B2B1FBFEF00EFB101100FB07F744EA23
:102C70000144A74208D91CEB040400F1FF3102D241
:102C8000A74200F2B4800846E41B40EA02409BE7FA
:102C9000C6F12007B34001FA06F422FA07FCF94016
:102CA000B2404CEA030C20FA07F34FEA1C491C43DC
:102CB0001FFA8CFE00FA06F3200CB1FBF9F809FBB1
:102CC000181140EA014108FB0EF088420FD91CEBB5
:102CD000010108F1FF3A2CBF4FF0010B4FF0000B40
:102CE000884203D9BBF1000F00F08D80D046091A4D
:102CF000A4B2B1FBF9F009FB101100FB0EFE44EA8F
:102D000001418E4507D91CEB010100F1FF3401D2CE
:102D10008E457FD8204640EA0840A1EB0E01A0FB7B
:102D2000029841454C46C64602D306D14B4504D2D3
:102D30000138B9EB020468EB0C0E002D70D01A1BA1
:102D400061EB0E0122FA06F301FA07F7F1400026C3
:102D50001F43C5E900713CE702FA03FCC3F1200000
:102D600001FA03F221FA00F64FEA1C4E24FA00F1B0
:102D70001FFA8CF79C401143B6FBFEF00A0C0EFBC9
:102D8000106642EA064200FB07F696420ED91CEB9B
:102D9000020200F1FF382CBF4FF001094FF000098B
:102DA000964202D9B9F1000F31D04046921B89B248
:102DB000B2FBFEF60EFB162241EA024106FB07F2C9
:102DC0008A4207D91CEB010106F1FF3801D28A4281
:102DD00023D84646891A46EA004625E72E46284665
:102DE000F7E6841A61EB030301201F460BE76444F6
:102DF000023849E764440238E1E6023A61442EE7CA
:102E0000023E6244C6E6A8F1020861446FE7023858
:102E10006244CBE7023861447DE7023E6144D9E772
:102E20002E46D6E6704700BF08B5074B044613B1DF
:102E3000002100E000BF054B1868836A03B1984782
:102E40002046FFF78AFB00BF00000000744400002A
:102E500070B50D4D00260D4C641BA410A64209D17F
:102E60000B4D00260B4C01F04DF8641BA410A6423C
:102E700005D170BD55F8043B01369847EEE755F88B
:102E8000043B01369847F2E794100020941000208C
:102E9000941000209810002002440346934200D171
:102EA000704703F8011BF9E72DE9F7431D465C4B1A
:102EB00004460E461F68904627B1BB6913B93846D1
:102EC00000F0E6F9574B9C4267D17C68B8F1020FDD
:102ED00006D0B8F1010F00F29E80002DC0F29B8059
:102EE000636EDB0705D4A389980502D4A06D00F0BA
:102EF0006DFA2146384600F037F9616B41B104F1B3
:102F00004403994202D0384600F0D0FA00236363AC
:102F10000023A3616360A389190603D5216938469C
:102F200000F0C4FAA389B8F1020F23F44A6323F036
:102F30000303A3816BD001AB6A462146384600F0FB
:102F400047FAA3891843A081002D30D1009D28465F
:102F500000F0A4FA0646002854D1DDF80090A945F7
:102F600049D14FF0FF350022B4F90C30A26004F1D2
:102F7000470243F00203226022610122A3816261C1
:102F8000626ED20705D413F4007F02D1A06D00F069
:102F90001EFA284603B0BDE8F083234B9C4201D1C2
:102FA000BC6893E7214B9C4208BFFC688EE7002E6B
:102FB000CDD0BB6913B9384600F06AF9B8F1010FFA
:102FC000266002BFA38943F00103A381A28912F006
:102FD0000803C4E904651CD0D30745BF00236D4234
:102FE000A560A36048BFA561656E15F0010515D108
:102FF00012F4007FC9E7484600F050FA0646002860
:10300000AFD04D46A38943F08003A381D1E70025CB
:10301000A9E7A360E8E74FF0FF35BAE70025B8E776
:103020003010002098440000B844000078440000AC
:1030300013B50B46094902460C6844B1A16931B980
:10304000CDE90003204600F023F9DDE90023A16863
:10305000204602B0BDE8104000F0F8BA3010002061
:103060008A892DE9F041054610070C4658D44B6873
:10307000002B05DC0B6C002B02DC0020BDE8F0818E
:10308000E66A002EF9D0002312F480522F682B60DC
:1030900032D0606DA3895A0705D56368C01A636B87
:1030A0000BB1236CC01A00230246E66A2846216A47
:1030B000B047431CA38906D129681D292CD8294A69
:1030C000CA40D60728D50022D9046260226922604E
:1030D00004D5421C01D12B6803B96065616B2F6078
:1030E0000029CAD004F14403994202D0284600F0D6
:1030F000DDF900206063C1E7216A01232846B0475B
:10310000411CC7D12B68002BC4D01D2B01D0162B1E
:1031100001D12F60B1E7A38943F04003A381ADE75C
:103120000F69002FA9D093070E680F600CBF4B6981
:103130000023A6EB07088B60B8F1000F9DDD434626
:103140003A46216A2846A66AB047002806DCA389C9
:103150004FF0FF3043F04003A3818FE70744A8EB13
:103160000008E9E70100402038B50B6905460C4628
:1031700013B90025284638BD18B183690BB900F092
:1031800087F8144B9C421BD16C68B4F90C30002BAF
:10319000EFD0626ED00704D4990502D4A06D00F080
:1031A00015F928462146FFF75BFF636E0546DA07EF
:1031B000E0D4A3899B05DDD4A06D00F008F9D9E720
:1031C000054B9C4201D1AC68DFE7044B9C4208BF31
:1031D000EC68DAE798440000B84400007844000046
:1031E000002310B504468360818119464366C2817D
:1031F00008228361C0E90033C0E904335C30FFF783
:103200004BFE054B24626362044BA362044BE362F2
:10321000044B236310BD00BFF93B00001B3C0000C2
:10322000533C0000773C0000014900F0AFB800BFFC
:103230006931000070B568224D1E0E46554305F1F8
:10324000740100F07FF9044640B1002105F16802E5
:10325000C0E900160C30A060FFF71EFE204670BDCE
:10326000014800F0B3B800BF45110020014800F04C
:10327000AEB800BF45110020014800F0A7B800BF5C
:1032800046110020014800F0A2B800BF46110020FE
:1032900010B50446FFF7F0FFA3691BB1BDE810406D
:1032A000FFF7F0BFC4E9123323652046124B134ADF
:1032B0001B68A262A34204BF0123A36100F020F8AF
:1032C0006060204600F01CF8A060204600F018F86E
:1032D00000220421E0606068FFF782FF01220921DB
:1032E000A068FFF77DFF02221221E068FFF778FF58
:1032F0000123A361D2E700BF74440000293200001B
:10330000F8B50746FFF7ACFF1E4B1E68B36913B94B
:103310003046FFF7BDFF4836D6E90134013B03D5FF
:1033200033680BB33668F7E7B4F90C50D5B9164BD0
:1033300004F158006566E36000F047F8FFF796FF78
:103340000822294604F15C002560A561C4E9015505
:10335000C4E90455FFF7A0FDC4E90D55C4E91255B1
:103360002046F8BD6834D9E704213846FFF762FFEC
:10337000044630600028D5D1FFF778FF0C233B606E
:10338000EEE700BF744400000100FFFF2DE9F843A1
:103390000646884600F148040027D4E90195B9F1B2
:1033A000010905D52468002CF7D13846BDE8F8831B
:1033B000AB89012B07D9B5F90E30013303D029466B
:1033C0003046C04707436835E9E7704770477047A4
:1033D00070B50E46B1F90E1096B0144600291D4680
:1033E00008DAB6F90C3000222A601A0610D44FF41D
:1033F00080630EE06A4600F025FD0028F1DB019AAB
:1034000002F47042A2F500535A425A412A60EEE794
:1034100040230020236016B070BD00008B8973B577
:103420009D0706460C4607D504F147032360236138
:103430000123636102B070BD01AB6A46FFF7C8FFAC
:1034400000990546304600F07DF848B9B4F90C30D3
:103450009A05EFD423F0030343F00203A381E3E7CB
:103460000D4BB362A389206043F080032061A381E8
:10347000009B6361019B5BB1B4F90E10304600F014
:10348000F3FC28B1A38923F0030343F00103A381D4
:10349000A0890543A581CDE729320000024B0146F2
:1034A000186800F04FB800BF3010002037B5002971
:1034B00043D051F8043C0C1F0190002BB8BFE41816
:1034C00000F002FD1E4A0198136833B9636014606E
:1034D00003B0BDE8304000F0FDBCA34208D9256828
:1034E00061198B4201BF19685B6849192160EDE7DA
:1034F0001A465B680BB1A342FAD911685518A54268
:103500000BD12468214454181160A342E0D11C68F7
:103510005B68214453601160DAE702D90C23036031
:10352000D6E7256861198B4202BF19685B684919A3
:10353000636008BF21605460CAE703B030BD00BFBC
:1035400048110020F8B5CD1C064625F003050835C6
:103550000C2D38BF0C25002D01DBA94203D90C230B
:1035600033600020F8BD00F0AFFC21490A68144622
:103570009CB9204F3B6823B92146304600F02CFB14
:1035800038602946304600F027FB431C23D10C232A
:103590003046336000F09EFCE3E723685B1B17D4E2
:1035A0000B2B03D923601C44256004E06368A2420E
:1035B0000CBF0B605360304600F08CFC04F10B0034
:1035C000231D20F00700C21ACCD01B1AA350C9E754
:1035D00022466468CCE7C41C24F00304A042E3D074
:1035E000211A304600F0F8FA0130DDD1CFE700BFF4
:1035F000481100204C1100209368013B002B936080
:1036000010B408DA9469A34201DB0A2903D15DF8FA
:10361000044B00F035BB1368581C10600846197045
:103620005DF8044B7047F8B506460F461446D518AA
:10363000AC4201D1002007E03A4614F8011B3046A5
:10364000FFF7DAFF431CF3D1F8BD00002DE9F04F7E
:103650000D469DB014469846064618B183690BB9CD
:10366000FFF716FE894B9D421BD175686B6ED9071B
:1036700005D4AB899A0502D4A86DFFF7A7FEAB89E4
:103680001B0701D52B69EBB92946304600F05CFBDE
:10369000C0B16B6EDC070ED54FF0FF301DB0BDE83A
:1036A000F08F7B4B9D4201D1B568DFE7794B9D429E
:1036B00008BFF568DAE7AB899805EDD4A86DFFF788
:1036C00086FEE9E70023CDF80C804FF00109DFF812
:1036D000C881099320238DF8293030238DF82A30B2
:1036E00023469A4613F8012B0AB1252AF9D1BAEBE1
:1036F000040B0BD05B46224629463046FFF793FF6A
:10370000013000F0AA80099A5A4409929AF80030D0
:10371000002B00F0A28000234FF0FF320AF1010AD3
:10372000049307938DF853301A93CDE9052354463B
:103730000522594814F8011B00F0B8FB049AD8B9C7
:10374000D10644BF20238DF85330130744BF2B23E9
:103750008DF853309AF800302A2B15D0079A54462A
:1037600000204FF00A0C214611F8013B303B092B99
:103770004ED9B0B1079214E0A0EB0803A24609FAB3
:1037800003F313430493D2E7039B191D1B68002B1B
:103790000391BBBF5B4242F0020207930793B8BF9D
:1037A000049223782E2B0CD163782A2B35D1039BDE
:1037B00002341A1D1B68002B0392B8BF4FF0FF3371
:1037C0000593DFF8E4A003222178504600F06EFB59
:1037D00040B14023A0EB0A00013403FA00F0049B3F
:1037E0000343049314F8011B06222C488DF828107B
:1037F00000F05CFB00283FD0294B1BBB039B073329
:1038000023F0070308330393099B3B44099367E7BD
:103810000CFB02320C460120A5E7002301344FF0D7
:103820000A0C19460593204610F8012B303A092A54
:1038300003D9002BC5D00591C3E70CFB0121044639
:103840000123F0E703AB2A4604A930460093154B49
:1038500000E000BF0746781CD6D16B6ED90705D4AF
:10386000AB899A0502D4A86DFFF7B1FDAB895B0661
:103870003FF512AF099811E703AB2A4604A9304679
:103880000093084B00F082F8E4E700BF9844000082
:10389000B844000078440000D8440000E24400002E
:1038A0000000000027360000DE4400002DE9F0474C
:1038B000164699468A6807460B690C46DDF8208053
:1038C0009342B8BF1346336091F843200AB10133E5
:1038D00033602368990642BF33680233336025683A
:1038E00015F0060506D104F1190AE36832689B1A3F
:1038F000AB4229DC94F84320131E226818BF012331
:1039000092062ED404F1430249463846C04701309E
:1039100021D023681A3454F80E5C03F00603326891
:103920000026042B54F8123C08BFAD1A54F80A2C98
:1039300014BF002525EAE5759342C4BF9B1AED1814
:10394000B5421AD1002008E00123524649463846C4
:10395000C047013003D14FF0FF30BDE8F08701359B
:10396000C3E7E1185A1C30200233224481F8430097
:1039700094F8451082F84310C4E7012322464946D3
:103980003846C0470130E6D00136D9E72DE9FF4778
:103990000F7E914680460C46782F9A460C9D01F189
:1039A000430207D8622F0AD8002F00F0D880582F82
:1039B00000F0A38004F1420584F842703AE0A7F1D8
:1039C0006303152BF6D801A151F823F0253A000026
:1039D000393A0000B5390000B5390000B5390000AA
:1039E000B5390000393A0000B5390000B53900009A
:1039F000B5390000B5390000453B0000693A0000C8
:103A0000273B0000B5390000B5390000673B0000D6
:103A1000B5390000693A0000B5390000B539000039
:103A20002F3B00002B681A1D1B682A6004F1420519
:103A300084F842300123A3E020682968060601F1DA
:103A400004030AD50E682B60002E03DA2D2376427C
:103A500084F843305E480A2319E00E6810F0400FE6
:103A60002B6018BF36B2EFE72B682068191D29605C
:103A7000010601D51E6802E04606FBD51E886F2FA1
:103A800053480CBF08230A23002184F843106568BB
:103A9000002DA560A2BF216821F0040121600EB9AC
:103AA000002D4DD01546B6FBF3F103FB1167C75D42
:103AB00005F8017D37460E46BB42F4D9082B0BD1E1
:103AC0002368DE0708D5236961689942DEBF302389
:103AD00005F8013C05F1FF35521B22614B4603AA54
:103AE00021464046CDF800A0FFF7E0FE01304CD162
:103AF0004FF0FF3004B0BDE8F087354881F84570DD
:103B00002968236851F8046B29601D0614D5DF0766
:103B100044BF43F0200323601EB9236823F0200331
:103B200023601023B0E7236843F020032360782349
:103B3000284884F84530E3E7590648BFB6B2E6E7BF
:103B40001546BBE72B682668181D61692860350695
:103B50001B6801D5196002E07006FBD519800023AF
:103B600015462361BAE72B6800211A1D2A601D68DB
:103B70006268284600F09AF908B1401B60606368EB
:103B80002361002384F84330A8E723692A46494685
:103B90004046D0470130ABD023689B0713D4E06880
:103BA000039B9842B8BF1846A4E701233246494612
:103BB0004046D04701309BD00135E36803995B1A3A
:103BC000AB42F2DCEBE7002504F11906F5E700BF94
:103BD000E9440000FA44000038B50023054D0446CE
:103BE00008462B60FCF774FD431C02D12B6803B11F
:103BF000236038BD5011002010B50C46B1F90E10ED
:103C000000F06EF90028ABBF636DA3891B1823F485
:103C10008053ACBF6365A38110BD2DE9F0411F4601
:103C20008B8905460C46DB05164605D50223002286
:103C3000B1F90E1000F028F9A3893246B4F90E103C
:103C4000284623F48053A3813B46BDE8F04100F0B1
:103C500069B810B50C46B1F90E1000F015F9431C07
:103C6000A38915BF606523F4805343F48053A38177
:103C700018BFA38110BDB1F90E1000F0D3B8000039
:103C8000F8B50E461446054618B183690BB9FFF71F
:103C9000FFFA214B9C422BD16C68A369A360A389D6
:103CA0001A072FD523696BB32369F6B2206837460C
:103CB000C01A6369834204DC21462846FFF754FAA0
:103CC00030BBA3680130013BA36023685A1C22600B
:103CD0001E706369834204D0A389DB0706D50A2ED0
:103CE00004D121462846FFF73FFA88B93846F8BD87
:103CF0000A4B9C4201D1AC68CFE7094B9C4208BFFC
:103D0000EC68CAE72146284600F01EF80028CBD010
:103D10004FF0FF37EAE700BF98440000B8440000C6
:103D20007844000038B50446064D08461146002286
:103D30002A601A46FEF72AFC431C02D12B6803B105
:103D4000236038BD50110020324B70B51D68064607
:103D50000C4625B1AB6913B92846FFF799FA2E4BEB
:103D60009C420FD16C68A389B4F90C2019072CD49C
:103D7000DD0611D40923336042F040034FF0FF30D9
:103D8000A3813EE0254B9C4201D1AC68EBE7244B7C
:103D90009C4208BFEC68E6E7580712D5616B41B159
:103DA00004F14403994202D03046FFF77FFB002321
:103DB0006363A38923F02403A38100236360236941
:103DC0002360A38943F00803A38123694BB9A38926
:103DD00003F42073B3F5007F03D021463046FFF78C
:103DE0001DFBA089B4F90C2010F001030AD00023B8
:103DF000A36063695B42A361236943B910F080004B
:103E0000BAD170BD810758BF6369A360F4E7002091
:103E1000F7E700BF3010002098440000B8440000CD
:103E20007844000038B50023054D044608462B6051
:103E3000FEF791FB431C02D12B6803B1236038BD10
:103E40005011002038B50023064D0446084611469F
:103E50002B60FEF783FB431C02D12B6803B1236068
:103E600038BD00BF5011002038B50023054D044671
:103E700008462B60FEF777FB431C02D12B6803B189
:103E8000236038BD5011002038B50446064D084661
:103E9000114600222A601A46FEF767FB431C02D136
:103EA0002B6803B1236038BD50110020C9B2024411
:103EB00010B59042034601D1002303E01C78013085
:103EC0008C42F6D1184610BD0148FFF77FBA00BFFB
:103ED000441100200148FFF77ABA00BF44110020C6
:103EE00038B50446064D0846114600222A601A4697
:103EF000FEF73DFB431C02D12B6803B1236038BDA4
:103F000050110020F8B500BFF8BC08BC9E467047B1
:103F1000F8B500BFF8BC08BC9E4670472333204468
:103F2000656275670A0023342044656275670A007C
:103F300023352044656275670A002D2D2D2D2D2D0A
:103F40002D2D2D2D2D2D2D2D2D2D2D2D2D2D2D2DA1
:103F50002D2D2D2D2D2D2D2D2D2D2D2D2D2D2D2D91
:103F60002D2D2D2D2D2D2D2D2D2D2D2D2D2D2D2D81
:103F70002D2D2D2D2D2D2D2D2D2D2D2D2D2D2D2D71
:103F80000A002D2D2D2D2D2D2D2D2D2D2D2D2D2DB1
:103F90002D2D2D2D2D2D2D2D2D2D2D494F542043E3
:103FA00068616C6C656E6765204D6F64756C652D1E
:103FB0002D2D2D2D2D2D2D2D2D2D2D2D2D2D2D2D31
:103FC0002D2D2D2D2D2D2D2D0A00233620446562FB
:103FD0007567005B495D2000446174613A20256487
:103FE0000A002E2E2F6175746F67656E2F736C5FDC
:103FF000696F73747265616D5F696E69745F757303
:104000006172745F696E7374616E6365732E6300B1
:10401000050000000000000000C2010000050000D3
:10402000001000000000000000000000000006403A
:104030002900000500060008000701000F1000001D
:10404000F41000202000000000010000433A2F552A
:10405000736572732F41646D696E2F53696D706C57
:10406000696369747953747564696F2F53444B7332
:104070002F6765636B6F5F73646B2F706C61746621
:104080006F726D2F6472697665722F693263737017
:104090006D2F7372632F736C5F69326373706D2E53
:1040A0006300633A5C75736572735C61646D696E1D
:1040B0005C73696D706C6963697479737475646934
:1040C0006F5C73646B735C6765636B6F5F73646B6A
:1040D0005C706C6174666F726D5C656D6C69625C5E
:1040E000696E635C656D5F6770696F2E6800633A27
:1040F0005C75736572735C61646D696E5C73696D28
:10410000706C696369747973747564696F5C7364E6
:104110006B735C6765636B6F5F73646B5C706C6122
:1041200074666F726D5C656D6C69625C696E635C10
:10413000656D5F74696D65722E6800433A2F557323
:104140006572732F41646D696E2F53696D706C6970
:104150006369747953747564696F2F53444B732F7B
:104160006765636B6F5F73646B2F706C6174666FF0
:10417000726D2F656D6C69622F7372632F656D5F51
:10418000636D752E6300020101030302060105043D
:10419000433A2F55736572732F41646D696E2F53C7
:1041A000696D706C696369747953747564696F2F94
:1041B00053444B732F6765636B6F5F73646B2F7032
:1041C0006C6174666F726D2F656D6C69622F7372AE
:1041D000632F656D5F656D752E6300433A2F5573D0
:1041E0006572732F41646D696E2F53696D706C69D0
:1041F0006369747953747564696F2F53444B732FDB
:104200006765636B6F5F73646B2F706C6174666F4F
:10421000726D2F656D6C69622F7372632F656D5FB0
:104220006770696F2E6300433A2F55736572732F61
:1042300041646D696E2F53696D706C69636974793F
:1042400053747564696F2F53444B732F6765636BA9
:104250006F5F73646B2F706C6174666F726D2F6526
:104260006D6C69622F7372632F656D5F6932632EA7
:104270006300000080841E00404B4C00809FD500EE
:1042800080841E0040548900002D31010809110866
:10429000433A2F55736572732F41646D696E2F53C6
:1042A000696D706C696369747953747564696F2F93
:1042B00053444B732F6765636B6F5F73646B2F7031
:1042C0006C6174666F726D2F656D6C69622F7372AD
:1042D000632F656D5F74696D65722E6300433A2FBD
:1042E00055736572732F41646D696E2F53696D70DC
:1042F0006C696369747953747564696F2F53444BA7
:10430000732F6765636B6F5F73646B2F706C617481
:10431000666F726D2F656D6C69622F7372632F65A6
:104320006D5F75736172742E6300010304010101F6
:1043300009030B0B020000202000038C8C3C0000C2
:104340000000000000012604000001000000000041
:10435000433A2F55736572732F41646D696E2F5305
:10436000696D706C696369747953747564696F2FD2
:1043700053444B732F6765636B6F5F73646B2F7070
:104380006C6174666F726D2F736572766963652FE9
:10439000696F73747265616D2F7372632F736C5FD5
:1043A000696F73747265616D5F7265746172676560
:1043B000745F737464696F2E6300433A2F5573659D
:1043C00072732F41646D696E2F53696D706C6963F0
:1043D00069747953747564696F2F53444B732F67F5
:1043E00065636B6F5F73646B2F706C6174666F7263
:1043F0006D2F736572766963652F696F737472656B
:10440000616D2F7372632F736C5F696F7374726564
:10441000616D5F756172742E6300433A2F55736549
:1044200072732F41646D696E2F53696D706C69638F
:1044300069747953747564696F2F53444B732F6794
:1044400065636B6F5F73646B2F706C6174666F7202
:104450006D2F736572766963652F7564656C61791C
:104460002F7372632F736C5F7564656C61792E6353
:1044700000000000341000200000000000000000D8
:10448000000000000000000000000000000000002C
:10449000000000000000000000000000000000001C
:1044A000000000000000000000000000000000000C
:1044B00000000000000000000000000000000000FC
:1044C00000000000000000000000000000000000EC
:1044D0000000000000000000232D302B2000686C3D
:1044E0004C00656667454647003031323334353617
:1044F0003738394142434445460030313233343550
:0C4500003637383961626364656600007C
:08450C0074BCFF7F01000000F8
:10451400008006400302030300000000A08601009F
:104524000000000001041F00C0EA2101C0EA2101CB
:1045340000F049020080000058110020FFFF000035
:10454400341000200000000098440000B84400002B
:10455400784400000000000000000000000000009B
:104564000000000000000000000000000000000047
:104574000000000000000000000000000000000037
:104584000000000000000000000000000000000027
:104594000000000000000000000000000000000017
:0C45A40000000000650100004101000063
:04000003000005CD27
:00000001FF
